{
  "contractName": "Bondage",
  "abi": [
    {
      "constant": true,
      "inputs": [],
      "name": "db",
      "outputs": [
        {
          "name": "",
          "type": "address"
        }
      ],
      "payable": false,
      "stateMutability": "view",
      "type": "function"
    },
    {
      "constant": true,
      "inputs": [],
      "name": "arbiterAddress",
      "outputs": [
        {
          "name": "",
          "type": "address"
        }
      ],
      "payable": false,
      "stateMutability": "view",
      "type": "function"
    },
    {
      "constant": false,
      "inputs": [],
      "name": "updateDependencies",
      "outputs": [],
      "payable": false,
      "stateMutability": "nonpayable",
      "type": "function"
    },
    {
      "constant": true,
      "inputs": [],
      "name": "owner",
      "outputs": [
        {
          "name": "",
          "type": "address"
        }
      ],
      "payable": false,
      "stateMutability": "view",
      "type": "function"
    },
    {
      "constant": false,
      "inputs": [],
      "name": "selfDestruct",
      "outputs": [],
      "payable": false,
      "stateMutability": "nonpayable",
      "type": "function"
    },
    {
      "constant": false,
      "inputs": [
        {
          "name": "newOwner",
          "type": "address"
        }
      ],
      "name": "transferOwnership",
      "outputs": [],
      "payable": false,
      "stateMutability": "nonpayable",
      "type": "function"
    },
    {
      "constant": true,
      "inputs": [],
      "name": "dispatchAddress",
      "outputs": [
        {
          "name": "",
          "type": "address"
        }
      ],
      "payable": false,
      "stateMutability": "view",
      "type": "function"
    },
    {
      "inputs": [
        {
          "name": "c",
          "type": "address"
        }
      ],
      "payable": false,
      "stateMutability": "nonpayable",
      "type": "constructor"
    },
    {
      "anonymous": false,
      "inputs": [
        {
          "indexed": true,
          "name": "holder",
          "type": "address"
        },
        {
          "indexed": true,
          "name": "oracle",
          "type": "address"
        },
        {
          "indexed": true,
          "name": "endpoint",
          "type": "bytes32"
        },
        {
          "indexed": false,
          "name": "numZap",
          "type": "uint256"
        },
        {
          "indexed": false,
          "name": "numDots",
          "type": "uint256"
        }
      ],
      "name": "Bound",
      "type": "event"
    },
    {
      "anonymous": false,
      "inputs": [
        {
          "indexed": true,
          "name": "holder",
          "type": "address"
        },
        {
          "indexed": true,
          "name": "oracle",
          "type": "address"
        },
        {
          "indexed": true,
          "name": "endpoint",
          "type": "bytes32"
        },
        {
          "indexed": false,
          "name": "numDots",
          "type": "uint256"
        }
      ],
      "name": "Unbound",
      "type": "event"
    },
    {
      "anonymous": false,
      "inputs": [
        {
          "indexed": true,
          "name": "holder",
          "type": "address"
        },
        {
          "indexed": true,
          "name": "oracle",
          "type": "address"
        },
        {
          "indexed": true,
          "name": "endpoint",
          "type": "bytes32"
        },
        {
          "indexed": false,
          "name": "numDots",
          "type": "uint256"
        }
      ],
      "name": "Escrowed",
      "type": "event"
    },
    {
      "anonymous": false,
      "inputs": [
        {
          "indexed": true,
          "name": "holder",
          "type": "address"
        },
        {
          "indexed": true,
          "name": "oracle",
          "type": "address"
        },
        {
          "indexed": true,
          "name": "endpoint",
          "type": "bytes32"
        },
        {
          "indexed": false,
          "name": "numDots",
          "type": "uint256"
        }
      ],
      "name": "Released",
      "type": "event"
    },
    {
      "anonymous": false,
      "inputs": [
        {
          "indexed": true,
          "name": "holder",
          "type": "address"
        },
        {
          "indexed": true,
          "name": "oracle",
          "type": "address"
        },
        {
          "indexed": true,
          "name": "endpoint",
          "type": "bytes32"
        },
        {
          "indexed": false,
          "name": "numDots",
          "type": "uint256"
        }
      ],
      "name": "Returned",
      "type": "event"
    },
    {
      "anonymous": false,
      "inputs": [
        {
          "indexed": true,
          "name": "previousOwner",
          "type": "address"
        },
        {
          "indexed": true,
          "name": "newOwner",
          "type": "address"
        }
      ],
      "name": "OwnershipTransferred",
      "type": "event"
    },
    {
      "constant": false,
      "inputs": [
        {
          "name": "oracleAddress",
          "type": "address"
        },
        {
          "name": "endpoint",
          "type": "bytes32"
        },
        {
          "name": "numDots",
          "type": "uint256"
        }
      ],
      "name": "bond",
      "outputs": [
        {
          "name": "bound",
          "type": "uint256"
        }
      ],
      "payable": false,
      "stateMutability": "nonpayable",
      "type": "function"
    },
    {
      "constant": false,
      "inputs": [
        {
          "name": "oracleAddress",
          "type": "address"
        },
        {
          "name": "endpoint",
          "type": "bytes32"
        },
        {
          "name": "numDots",
          "type": "uint256"
        }
      ],
      "name": "unbond",
      "outputs": [
        {
          "name": "unbound",
          "type": "uint256"
        }
      ],
      "payable": false,
      "stateMutability": "nonpayable",
      "type": "function"
    },
    {
      "constant": false,
      "inputs": [
        {
          "name": "holderAddress",
          "type": "address"
        },
        {
          "name": "oracleAddress",
          "type": "address"
        },
        {
          "name": "endpoint",
          "type": "bytes32"
        },
        {
          "name": "numDots",
          "type": "uint256"
        }
      ],
      "name": "delegateBond",
      "outputs": [
        {
          "name": "boundZap",
          "type": "uint256"
        }
      ],
      "payable": false,
      "stateMutability": "nonpayable",
      "type": "function"
    },
    {
      "constant": false,
      "inputs": [
        {
          "name": "holderAddress",
          "type": "address"
        },
        {
          "name": "oracleAddress",
          "type": "address"
        },
        {
          "name": "endpoint",
          "type": "bytes32"
        },
        {
          "name": "numDots",
          "type": "uint256"
        }
      ],
      "name": "escrowDots",
      "outputs": [
        {
          "name": "success",
          "type": "bool"
        }
      ],
      "payable": false,
      "stateMutability": "nonpayable",
      "type": "function"
    },
    {
      "constant": false,
      "inputs": [
        {
          "name": "holderAddress",
          "type": "address"
        },
        {
          "name": "oracleAddress",
          "type": "address"
        },
        {
          "name": "endpoint",
          "type": "bytes32"
        },
        {
          "name": "numDots",
          "type": "uint256"
        }
      ],
      "name": "releaseDots",
      "outputs": [
        {
          "name": "success",
          "type": "bool"
        }
      ],
      "payable": false,
      "stateMutability": "nonpayable",
      "type": "function"
    },
    {
      "constant": false,
      "inputs": [
        {
          "name": "holderAddress",
          "type": "address"
        },
        {
          "name": "oracleAddress",
          "type": "address"
        },
        {
          "name": "endpoint",
          "type": "bytes32"
        },
        {
          "name": "numDots",
          "type": "uint256"
        }
      ],
      "name": "returnDots",
      "outputs": [
        {
          "name": "success",
          "type": "bool"
        }
      ],
      "payable": false,
      "stateMutability": "nonpayable",
      "type": "function"
    },
    {
      "constant": true,
      "inputs": [
        {
          "name": "oracleAddress",
          "type": "address"
        },
        {
          "name": "endpoint",
          "type": "bytes32"
        },
        {
          "name": "numDots",
          "type": "uint256"
        }
      ],
      "name": "calcZapForDots",
      "outputs": [
        {
          "name": "numZap",
          "type": "uint256"
        }
      ],
      "payable": false,
      "stateMutability": "view",
      "type": "function"
    },
    {
      "constant": true,
      "inputs": [
        {
          "name": "oracleAddress",
          "type": "address"
        },
        {
          "name": "endpoint",
          "type": "bytes32"
        },
        {
          "name": "totalBound",
          "type": "uint256"
        }
      ],
      "name": "currentCostOfDot",
      "outputs": [
        {
          "name": "cost",
          "type": "uint256"
        }
      ],
      "payable": false,
      "stateMutability": "view",
      "type": "function"
    },
    {
      "constant": true,
      "inputs": [
        {
          "name": "oracleAddress",
          "type": "address"
        },
        {
          "name": "endpoint",
          "type": "bytes32"
        }
      ],
      "name": "dotLimit",
      "outputs": [
        {
          "name": "limit",
          "type": "uint256"
        }
      ],
      "payable": false,
      "stateMutability": "view",
      "type": "function"
    },
    {
      "constant": true,
      "inputs": [
        {
          "name": "oracleAddress",
          "type": "address"
        },
        {
          "name": "endpoint",
          "type": "bytes32"
        }
      ],
      "name": "getZapBound",
      "outputs": [
        {
          "name": "",
          "type": "uint256"
        }
      ],
      "payable": false,
      "stateMutability": "view",
      "type": "function"
    },
    {
      "constant": true,
      "inputs": [
        {
          "name": "holderAddress",
          "type": "address"
        },
        {
          "name": "oracleAddress",
          "type": "address"
        }
      ],
      "name": "isProviderInitialized",
      "outputs": [
        {
          "name": "",
          "type": "bool"
        }
      ],
      "payable": false,
      "stateMutability": "view",
      "type": "function"
    },
    {
      "constant": true,
      "inputs": [
        {
          "name": "oracleAddress",
          "type": "address"
        },
        {
          "name": "endpoint",
          "type": "bytes32"
        }
      ],
      "name": "getEndpointBroker",
      "outputs": [
        {
          "name": "",
          "type": "address"
        }
      ],
      "payable": false,
      "stateMutability": "view",
      "type": "function"
    },
    {
      "constant": true,
      "inputs": [
        {
          "name": "holderAddress",
          "type": "address"
        },
        {
          "name": "oracleAddress",
          "type": "address"
        },
        {
          "name": "endpoint",
          "type": "bytes32"
        }
      ],
      "name": "getNumEscrow",
      "outputs": [
        {
          "name": "",
          "type": "uint256"
        }
      ],
      "payable": false,
      "stateMutability": "view",
      "type": "function"
    },
    {
      "constant": true,
      "inputs": [
        {
          "name": "oracleAddress",
          "type": "address"
        },
        {
          "name": "endpoint",
          "type": "bytes32"
        }
      ],
      "name": "getNumZap",
      "outputs": [
        {
          "name": "",
          "type": "uint256"
        }
      ],
      "payable": false,
      "stateMutability": "view",
      "type": "function"
    },
    {
      "constant": true,
      "inputs": [
        {
          "name": "oracleAddress",
          "type": "address"
        },
        {
          "name": "endpoint",
          "type": "bytes32"
        }
      ],
      "name": "getDotsIssued",
      "outputs": [
        {
          "name": "",
          "type": "uint256"
        }
      ],
      "payable": false,
      "stateMutability": "view",
      "type": "function"
    },
    {
      "constant": true,
      "inputs": [
        {
          "name": "holderAddress",
          "type": "address"
        },
        {
          "name": "oracleAddress",
          "type": "address"
        },
        {
          "name": "endpoint",
          "type": "bytes32"
        }
      ],
      "name": "getBoundDots",
      "outputs": [
        {
          "name": "",
          "type": "uint256"
        }
      ],
      "payable": false,
      "stateMutability": "view",
      "type": "function"
    },
    {
      "constant": true,
      "inputs": [
        {
          "name": "holderAddress",
          "type": "address"
        }
      ],
      "name": "getIndexSize",
      "outputs": [
        {
          "name": "",
          "type": "uint256"
        }
      ],
      "payable": false,
      "stateMutability": "view",
      "type": "function"
    },
    {
      "constant": true,
      "inputs": [
        {
          "name": "holderAddress",
          "type": "address"
        },
        {
          "name": "index",
          "type": "uint256"
        }
      ],
      "name": "getOracleAddress",
      "outputs": [
        {
          "name": "",
          "type": "address"
        }
      ],
      "payable": false,
      "stateMutability": "view",
      "type": "function"
    }
  ],
  "bytecode": "0x60806040523480156200001157600080fd5b5060405160208062004b43833981018060405260208110156200003357600080fd5b810190808051906020019092919050505080336000806101000a81548173ffffffffffffffffffffffffffffffffffffffff021916908373ffffffffffffffffffffffffffffffffffffffff16021790555080600160006101000a81548173ffffffffffffffffffffffffffffffffffffffff021916908373ffffffffffffffffffffffffffffffffffffffff16021790555080600260006101000a81548173ffffffffffffffffffffffffffffffffffffffff021916908373ffffffffffffffffffffffffffffffffffffffff16021790555050620001186200011f60201b60201c565b50620006d1565b6000600260009054906101000a900473ffffffffffffffffffffffffffffffffffffffff1673ffffffffffffffffffffffffffffffffffffffff1663358177736040518163ffffffff1660e01b81526004018080602001828103825260088152602001807f444154414241534500000000000000000000000000000000000000000000000081525060200191505060206040518083038186803b158015620001c657600080fd5b505afa158015620001db573d6000803e3d6000fd5b505050506040513d6020811015620001f257600080fd5b8101908080519060200190929190505050905080600360006101000a81548173ffffffffffffffffffffffffffffffffffffffff021916908373ffffffffffffffffffffffffffffffffffffffff160217905550600260009054906101000a900473ffffffffffffffffffffffffffffffffffffffff1673ffffffffffffffffffffffffffffffffffffffff1663358177736040518163ffffffff1660e01b81526004018080602001828103825260078152602001807f415242495445520000000000000000000000000000000000000000000000000081525060200191505060206040518083038186803b158015620002eb57600080fd5b505afa15801562000300573d6000803e3d6000fd5b505050506040513d60208110156200031757600080fd5b8101908080519060200190929190505050600660006101000a81548173ffffffffffffffffffffffffffffffffffffffff021916908373ffffffffffffffffffffffffffffffffffffffff160217905550600260009054906101000a900473ffffffffffffffffffffffffffffffffffffffff1673ffffffffffffffffffffffffffffffffffffffff1663358177736040518163ffffffff1660e01b81526004018080602001828103825260088152602001807f444953504154434800000000000000000000000000000000000000000000000081525060200191505060206040518083038186803b1580156200040d57600080fd5b505afa15801562000422573d6000803e3d6000fd5b505050506040513d60208110156200043957600080fd5b8101908080519060200190929190505050600760006101000a81548173ffffffffffffffffffffffffffffffffffffffff021916908373ffffffffffffffffffffffffffffffffffffffff160217905550600260009054906101000a900473ffffffffffffffffffffffffffffffffffffffff1673ffffffffffffffffffffffffffffffffffffffff1663358177736040518163ffffffff1660e01b81526004018080602001828103825260098152602001807f5a41505f544f4b454e000000000000000000000000000000000000000000000081525060200191505060206040518083038186803b1580156200052f57600080fd5b505afa15801562000544573d6000803e3d6000fd5b505050506040513d60208110156200055b57600080fd5b8101908080519060200190929190505050600560006101000a81548173ffffffffffffffffffffffffffffffffffffffff021916908373ffffffffffffffffffffffffffffffffffffffff160217905550600260009054906101000a900473ffffffffffffffffffffffffffffffffffffffff1673ffffffffffffffffffffffffffffffffffffffff1663358177736040518163ffffffff1660e01b815260040180806020018281038252600c8152602001807f43555252454e545f434f5354000000000000000000000000000000000000000081525060200191505060206040518083038186803b1580156200065157600080fd5b505afa15801562000666573d6000803e3d6000fd5b505050506040513d60208110156200067d57600080fd5b8101908080519060200190929190505050600460006101000a81548173ffffffffffffffffffffffffffffffffffffffff021916908373ffffffffffffffffffffffffffffffffffffffff16021790555050565b61446280620006e16000396000f3fe608060405234801561001057600080fd5b50600436106101735760003560e01c80638da5cb5b116100de578063bbee369411610097578063ceae8b3211610071578063ceae8b32146109ea578063f2fde38b14610a42578063f528c94914610a86578063f6dfac2514610ad057610173565b8063bbee369414610870578063ca01fed5146108f2578063cbdaf0c81461097e57610173565b80638da5cb5b1461064a57806399275cc7146106945780639c39c8ea146107005780639cb8a26a1461078e578063a06fe77514610798578063b6105f151461080457610173565b80633fe79685116101305780633fe796851461043a5780634d655aff1461049c5780635d799306146104e65780636e5ecdff146105305780637a68c23a1461053a5780638758eb69146105bc57610173565b8063036459c01461017857806316614c98146101f457806319ec825c146102845780631d7b5e22146102e657806321cb4ec7146103485780633b058aa7146103aa575b600080fd5b6101da6004803603604081101561018e57600080fd5b81019080803573ffffffffffffffffffffffffffffffffffffffff169060200190929190803573ffffffffffffffffffffffffffffffffffffffff169060200190929190505050610b60565b604051808215151515815260200191505060405180910390f35b61026a6004803603608081101561020a57600080fd5b81019080803573ffffffffffffffffffffffffffffffffffffffff169060200190929190803573ffffffffffffffffffffffffffffffffffffffff1690602001909291908035906020019092919080359060200190929190505050610d05565b604051808215151515815260200191505060405180910390f35b6102d06004803603604081101561029a57600080fd5b81019080803573ffffffffffffffffffffffffffffffffffffffff16906020019092919080359060200190929190505050610f74565b6040518082815260200191505060405180910390f35b610332600480360360408110156102fc57600080fd5b81019080803573ffffffffffffffffffffffffffffffffffffffff16906020019092919080359060200190929190505050610f88565b6040518082815260200191505060405180910390f35b6103946004803603604081101561035e57600080fd5b81019080803573ffffffffffffffffffffffffffffffffffffffff169060200190929190803590602001909291905050506110c5565b6040518082815260200191505060405180910390f35b610420600480360360808110156103c057600080fd5b81019080803573ffffffffffffffffffffffffffffffffffffffff169060200190929190803573ffffffffffffffffffffffffffffffffffffffff16906020019092919080359060200190929190803590602001909291905050506111b1565b604051808215151515815260200191505060405180910390f35b6104866004803603604081101561045057600080fd5b81019080803573ffffffffffffffffffffffffffffffffffffffff16906020019092919080359060200190929190505050611420565b6040518082815260200191505060405180910390f35b6104a461155d565b604051808273ffffffffffffffffffffffffffffffffffffffff1673ffffffffffffffffffffffffffffffffffffffff16815260200191505060405180910390f35b6104ee611583565b604051808273ffffffffffffffffffffffffffffffffffffffff1673ffffffffffffffffffffffffffffffffffffffff16815260200191505060405180910390f35b6105386115a9565b005b6105a66004803603606081101561055057600080fd5b81019080803573ffffffffffffffffffffffffffffffffffffffff169060200190929190803573ffffffffffffffffffffffffffffffffffffffff16906020019092919080359060200190929190505050611676565b6040518082815260200191505060405180910390f35b610608600480360360408110156105d257600080fd5b81019080803573ffffffffffffffffffffffffffffffffffffffff169060200190929190803590602001909291905050506117eb565b604051808273ffffffffffffffffffffffffffffffffffffffff1673ffffffffffffffffffffffffffffffffffffffff16815260200191505060405180910390f35b610652611950565b604051808273ffffffffffffffffffffffffffffffffffffffff1673ffffffffffffffffffffffffffffffffffffffff16815260200191505060405180910390f35b6106ea600480360360608110156106aa57600080fd5b81019080803573ffffffffffffffffffffffffffffffffffffffff1690602001909291908035906020019092919080359060200190929190505050611975565b6040518082815260200191505060405180910390f35b61074c6004803603604081101561071657600080fd5b81019080803573ffffffffffffffffffffffffffffffffffffffff169060200190929190803590602001909291905050506119fa565b604051808273ffffffffffffffffffffffffffffffffffffffff1673ffffffffffffffffffffffffffffffffffffffff16815260200191505060405180910390f35b610796611b67565b005b6107ee600480360360608110156107ae57600080fd5b81019080803573ffffffffffffffffffffffffffffffffffffffff1690602001909291908035906020019092919080359060200190929190505050611bfa565b6040518082815260200191505060405180910390f35b61085a6004803603606081101561081a57600080fd5b81019080803573ffffffffffffffffffffffffffffffffffffffff1690602001909291908035906020019092919080359060200190929190505050611c77565b6040518082815260200191505060405180910390f35b6108dc6004803603606081101561088657600080fd5b81019080803573ffffffffffffffffffffffffffffffffffffffff169060200190929190803573ffffffffffffffffffffffffffffffffffffffff16906020019092919080359060200190929190505050611d88565b6040518082815260200191505060405180910390f35b6109686004803603608081101561090857600080fd5b81019080803573ffffffffffffffffffffffffffffffffffffffff169060200190929190803573ffffffffffffffffffffffffffffffffffffffff1690602001909291908035906020019092919080359060200190929190505050611f25565b6040518082815260200191505060405180910390f35b6109d46004803603606081101561099457600080fd5b81019080803573ffffffffffffffffffffffffffffffffffffffff1690602001909291908035906020019092919080359060200190929190505050611fab565b6040518082815260200191505060405180910390f35b610a2c60048036036020811015610a0057600080fd5b81019080803573ffffffffffffffffffffffffffffffffffffffff1690602001909291905050506120a0565b6040518082815260200191505060405180910390f35b610a8460048036036020811015610a5857600080fd5b81019080803573ffffffffffffffffffffffffffffffffffffffff1690602001909291905050506121fc565b005b610a8e61234d565b604051808273ffffffffffffffffffffffffffffffffffffffff1673ffffffffffffffffffffffffffffffffffffffff16815260200191505060405180910390f35b610b4660048036036080811015610ae657600080fd5b81019080803573ffffffffffffffffffffffffffffffffffffffff169060200190929190803573ffffffffffffffffffffffffffffffffffffffff1690602001909291908035906020019092919080359060200190929190505050612373565b604051808215151515815260200191505060405180910390f35b60006001600360009054906101000a900473ffffffffffffffffffffffffffffffffffffffff1673ffffffffffffffffffffffffffffffffffffffff16632ecb0d64858560405160200180807f686f6c64657273000000000000000000000000000000000000000000000000008152506007018373ffffffffffffffffffffffffffffffffffffffff1673ffffffffffffffffffffffffffffffffffffffff1660601b8152601401807f696e697469616c697a6564000000000000000000000000000000000000000000815250600b018273ffffffffffffffffffffffffffffffffffffffff1673ffffffffffffffffffffffffffffffffffffffff1660601b815260140192505050604051602081830303815290604052805190602001206040518263ffffffff1660e01b81526004018082815260200191505060206040518083038186803b158015610cb357600080fd5b505afa158015610cc7573d6000803e3d6000fd5b505050506040513d6020811015610cdd57600080fd5b810190808051906020019092919050505014610cfa576000610cfd565b60015b905092915050565b6000600660009054906101000a900473ffffffffffffffffffffffffffffffffffffffff1673ffffffffffffffffffffffffffffffffffffffff163373ffffffffffffffffffffffffffffffffffffffff161480610db05750600760009054906101000a900473ffffffffffffffffffffffffffffffffffffffff1673ffffffffffffffffffffffffffffffffffffffff163373ffffffffffffffffffffffffffffffffffffffff16145b610e22576040517f08c379a000000000000000000000000000000000000000000000000000000000815260040180806020018281038252601a8152602001807f4572726f723a204f70657261746f72204f6e6c79204572726f7200000000000081525060200191505060405180910390fd5b6000610e2f868686611d88565b905080831115610ea7576040517f08c379a000000000000000000000000000000000000000000000000000000000815260040180806020018281038252601c8152602001807f4572726f723a204e6f7420656e6f75676820646f747320626f756e640000000081525060200191505060405180910390fd5b610ed4868686867f61646400000000000000000000000000000000000000000000000000000000006125e2565b610f01868686867f7375620000000000000000000000000000000000000000000000000000000000612913565b838573ffffffffffffffffffffffffffffffffffffffff168773ffffffffffffffffffffffffffffffffffffffff167f2738c9bd1693cadc7b4fabefd6467b42f901650c7401bad1076dbc984f4b15d0866040518082815260200191505060405180910390a46001915050949350505050565b6000610f808383611420565b905092915050565b6000600360009054906101000a900473ffffffffffffffffffffffffffffffffffffffff1673ffffffffffffffffffffffffffffffffffffffff16632ecb0d64848460405160200180807f746f74616c497373756564000000000000000000000000000000000000000000815250600b018373ffffffffffffffffffffffffffffffffffffffff1673ffffffffffffffffffffffffffffffffffffffff1660601b815260140182815260200192505050604051602081830303815290604052805190602001206040518263ffffffff1660e01b81526004018082815260200191505060206040518083038186803b15801561108257600080fd5b505afa158015611096573d6000803e3d6000fd5b505050506040513d60208110156110ac57600080fd5b8101908080519060200190929190505050905092915050565b6000600460009054906101000a900473ffffffffffffffffffffffffffffffffffffffff1673ffffffffffffffffffffffffffffffffffffffff1663c1ca69c484846040518363ffffffff1660e01b8152600401808373ffffffffffffffffffffffffffffffffffffffff1673ffffffffffffffffffffffffffffffffffffffff1681526020018281526020019250505060206040518083038186803b15801561116e57600080fd5b505afa158015611182573d6000803e3d6000fd5b505050506040513d602081101561119857600080fd5b8101908080519060200190929190505050905092915050565b6000600660009054906101000a900473ffffffffffffffffffffffffffffffffffffffff1673ffffffffffffffffffffffffffffffffffffffff163373ffffffffffffffffffffffffffffffffffffffff16148061125c5750600760009054906101000a900473ffffffffffffffffffffffffffffffffffffffff1673ffffffffffffffffffffffffffffffffffffffff163373ffffffffffffffffffffffffffffffffffffffff16145b6112ce576040517f08c379a000000000000000000000000000000000000000000000000000000000815260040180806020018281038252601a8152602001807f4572726f723a204f70657261746f72204f6e6c79204572726f7200000000000081525060200191505060405180910390fd5b60006112db868686611676565b905080831115611353576040517f08c379a000000000000000000000000000000000000000000000000000000000815260040180806020018281038252601f8152602001807f4572726f723a204e6f7420656e6f75676820646f747320457363726f7765640081525060200191505060405180910390fd5b611380868686867f73756200000000000000000000000000000000000000000000000000000000006125e2565b6113ad858686867f6164640000000000000000000000000000000000000000000000000000000000612913565b838573ffffffffffffffffffffffffffffffffffffffff168773ffffffffffffffffffffffffffffffffffffffff167f2afa253d0464d87b039f71a6964ed5c028a3a3c68048d909fbee4b1610756e79866040518082815260200191505060405180910390a46001915050949350505050565b6000600360009054906101000a900473ffffffffffffffffffffffffffffffffffffffff1673ffffffffffffffffffffffffffffffffffffffff16632ecb0d64848460405160200180807f746f74616c426f756e6400000000000000000000000000000000000000000000815250600a018373ffffffffffffffffffffffffffffffffffffffff1673ffffffffffffffffffffffffffffffffffffffff1660601b815260140182815260200192505050604051602081830303815290604052805190602001206040518263ffffffff1660e01b81526004018082815260200191505060206040518083038186803b15801561151a57600080fd5b505afa15801561152e573d6000803e3d6000fd5b505050506040513d602081101561154457600080fd5b8101908080519060200190929190505050905092915050565b600360009054906101000a900473ffffffffffffffffffffffffffffffffffffffff1681565b600660009054906101000a900473ffffffffffffffffffffffffffffffffffffffff1681565b600160009054906101000a900473ffffffffffffffffffffffffffffffffffffffff1673ffffffffffffffffffffffffffffffffffffffff163373ffffffffffffffffffffffffffffffffffffffff161461166c576040517f08c379a00000000000000000000000000000000000000000000000000000000081526004018080602001828103825260208152602001807f4572726f723a20436f6f7264696e61746f72204f6e6c792046756e6374696f6e81525060200191505060405180910390fd5b611674612c8b565b565b6000600360009054906101000a900473ffffffffffffffffffffffffffffffffffffffff1673ffffffffffffffffffffffffffffffffffffffff16632ecb0d6485858560405160200180807f657363726f7700000000000000000000000000000000000000000000000000008152506006018473ffffffffffffffffffffffffffffffffffffffff1673ffffffffffffffffffffffffffffffffffffffff1660601b81526014018373ffffffffffffffffffffffffffffffffffffffff1673ffffffffffffffffffffffffffffffffffffffff1660601b81526014018281526020019350505050604051602081830303815290604052805190602001206040518263ffffffff1660e01b81526004018082815260200191505060206040518083038186803b1580156117a757600080fd5b505afa1580156117bb573d6000803e3d6000fd5b505050506040513d60208110156117d157600080fd5b810190808051906020019092919050505090509392505050565b6000600360009054906101000a900473ffffffffffffffffffffffffffffffffffffffff1673ffffffffffffffffffffffffffffffffffffffff1663e16e93408460405160200180807f686f6c64657273000000000000000000000000000000000000000000000000008152506007018273ffffffffffffffffffffffffffffffffffffffff1673ffffffffffffffffffffffffffffffffffffffff1660601b8152601401807f6f7261636c654c69737400000000000000000000000000000000000000000000815250600a0191505060405160208183030381529060405280519060200120846040518363ffffffff1660e01b8152600401808381526020018281526020019250505060206040518083038186803b15801561190d57600080fd5b505afa158015611921573d6000803e3d6000fd5b505050506040513d602081101561193757600080fd5b8101908080519060200190929190505050905092915050565b6000809054906101000a900473ffffffffffffffffffffffffffffffffffffffff1681565b60006119833385858561322e565b9050828473ffffffffffffffffffffffffffffffffffffffff163373ffffffffffffffffffffffffffffffffffffffff167fe8fd3c22d82ce4b5a0addda04f808686ef3d592b33cadc8435ce17dc106ced6c8486604051808381526020018281526020019250505060405180910390a49392505050565b600080600360009054906101000a900473ffffffffffffffffffffffffffffffffffffffff1673ffffffffffffffffffffffffffffffffffffffff1663a6ed563e858560405160200180807f6f7261636c6573000000000000000000000000000000000000000000000000008152506007018373ffffffffffffffffffffffffffffffffffffffff1673ffffffffffffffffffffffffffffffffffffffff1660601b8152601401828152602001807f62726f6b6572000000000000000000000000000000000000000000000000000081525060060192505050604051602081830303815290604052805190602001206040518263ffffffff1660e01b81526004018082815260200191505060206040518083038186803b158015611b1d57600080fd5b505afa158015611b31573d6000803e3d6000fd5b505050506040513d6020811015611b4757600080fd5b810190808051906020019092919050505090508060001c91505092915050565b6000809054906101000a900473ffffffffffffffffffffffffffffffffffffffff1673ffffffffffffffffffffffffffffffffffffffff163373ffffffffffffffffffffffffffffffffffffffff1614611bc057600080fd5b6000809054906101000a900473ffffffffffffffffffffffffffffffffffffffff1673ffffffffffffffffffffffffffffffffffffffff16ff5b6000611c08338585856136a4565b9050828473ffffffffffffffffffffffffffffffffffffffff163373ffffffffffffffffffffffffffffffffffffffff167f60b9c649cd4eb0d02bcdc2d69fd86d12022c0bf7ff8aa61e5ac0bc121fc3cac0856040518082815260200191505060405180910390a49392505050565b600080611c848585610f88565b9050600460009054906101000a900473ffffffffffffffffffffffffffffffffffffffff1673ffffffffffffffffffffffffffffffffffffffff1663197d66d5868660018501600188036040518563ffffffff1660e01b8152600401808573ffffffffffffffffffffffffffffffffffffffff1673ffffffffffffffffffffffffffffffffffffffff16815260200184815260200183815260200182815260200194505050505060206040518083038186803b158015611d4357600080fd5b505afa158015611d57573d6000803e3d6000fd5b505050506040513d6020811015611d6d57600080fd5b81019080805190602001909291905050509150509392505050565b6000600360009054906101000a900473ffffffffffffffffffffffffffffffffffffffff1673ffffffffffffffffffffffffffffffffffffffff16632ecb0d6485858560405160200180807f686f6c64657273000000000000000000000000000000000000000000000000008152506007018473ffffffffffffffffffffffffffffffffffffffff1673ffffffffffffffffffffffffffffffffffffffff1660601b8152601401807f626f6e64730000000000000000000000000000000000000000000000000000008152506005018373ffffffffffffffffffffffffffffffffffffffff1673ffffffffffffffffffffffffffffffffffffffff1660601b81526014018281526020019350505050604051602081830303815290604052805190602001206040518263ffffffff1660e01b81526004018082815260200191505060206040518083038186803b158015611ee157600080fd5b505afa158015611ef5573d6000803e3d6000fd5b505050506040513d6020811015611f0b57600080fd5b810190808051906020019092919050505090509392505050565b6000611f338585858561322e565b9050828473ffffffffffffffffffffffffffffffffffffffff168673ffffffffffffffffffffffffffffffffffffffff167fe8fd3c22d82ce4b5a0addda04f808686ef3d592b33cadc8435ce17dc106ced6c8486604051808381526020018281526020019250505060405180910390a4949350505050565b6000600460009054906101000a900473ffffffffffffffffffffffffffffffffffffffff1673ffffffffffffffffffffffffffffffffffffffff1663ecca1fad8585856040518463ffffffff1660e01b8152600401808473ffffffffffffffffffffffffffffffffffffffff1673ffffffffffffffffffffffffffffffffffffffff168152602001838152602001828152602001935050505060206040518083038186803b15801561205c57600080fd5b505afa158015612070573d6000803e3d6000fd5b505050506040513d602081101561208657600080fd5b810190808051906020019092919050505090509392505050565b6000600360009054906101000a900473ffffffffffffffffffffffffffffffffffffffff1673ffffffffffffffffffffffffffffffffffffffff16632fc94ba68360405160200180807f686f6c64657273000000000000000000000000000000000000000000000000008152506007018273ffffffffffffffffffffffffffffffffffffffff1673ffffffffffffffffffffffffffffffffffffffff1660601b8152601401807f6f7261636c654c69737400000000000000000000000000000000000000000000815250600a01915050604051602081830303815290604052805190602001206040518263ffffffff1660e01b81526004018082815260200191505060206040518083038186803b1580156121ba57600080fd5b505afa1580156121ce573d6000803e3d6000fd5b505050506040513d60208110156121e457600080fd5b81019080805190602001909291905050509050919050565b6000809054906101000a900473ffffffffffffffffffffffffffffffffffffffff1673ffffffffffffffffffffffffffffffffffffffff163373ffffffffffffffffffffffffffffffffffffffff161461225557600080fd5b600073ffffffffffffffffffffffffffffffffffffffff168173ffffffffffffffffffffffffffffffffffffffff16141561228f57600080fd5b8073ffffffffffffffffffffffffffffffffffffffff166000809054906101000a900473ffffffffffffffffffffffffffffffffffffffff1673ffffffffffffffffffffffffffffffffffffffff167f8be0079c531659141344cd1fd0a4f28419497f9722a3daafe3b4186f6b6457e060405160405180910390a3806000806101000a81548173ffffffffffffffffffffffffffffffffffffffff021916908373ffffffffffffffffffffffffffffffffffffffff16021790555050565b600760009054906101000a900473ffffffffffffffffffffffffffffffffffffffff1681565b6000600660009054906101000a900473ffffffffffffffffffffffffffffffffffffffff1673ffffffffffffffffffffffffffffffffffffffff163373ffffffffffffffffffffffffffffffffffffffff16148061241e5750600760009054906101000a900473ffffffffffffffffffffffffffffffffffffffff1673ffffffffffffffffffffffffffffffffffffffff163373ffffffffffffffffffffffffffffffffffffffff16145b612490576040517f08c379a000000000000000000000000000000000000000000000000000000000815260040180806020018281038252601a8152602001807f4572726f723a204f70657261746f72204f6e6c79204572726f7200000000000081525060200191505060405180910390fd5b600061249d868686611676565b905080831115612515576040517f08c379a000000000000000000000000000000000000000000000000000000000815260040180806020018281038252601f8152602001807f4572726f723a204e6f7420656e6f75676820646f747320657363726f7765640081525060200191505060405180910390fd5b612542868686867f73756200000000000000000000000000000000000000000000000000000000006125e2565b61256f868686867f6164640000000000000000000000000000000000000000000000000000000000612913565b838573ffffffffffffffffffffffffffffffffffffffff168773ffffffffffffffffffffffffffffffffffffffff167f8ce63c9cd119808de8fe6e9629b631f115a967dd2cfd274bca3f6b9486745bf7866040518082815260200191505060405180910390a46001915050949350505050565b6000600360009054906101000a900473ffffffffffffffffffffffffffffffffffffffff1673ffffffffffffffffffffffffffffffffffffffff16632ecb0d6487878760405160200180807f657363726f7700000000000000000000000000000000000000000000000000008152506006018473ffffffffffffffffffffffffffffffffffffffff1673ffffffffffffffffffffffffffffffffffffffff1660601b81526014018373ffffffffffffffffffffffffffffffffffffffff1673ffffffffffffffffffffffffffffffffffffffff1660601b81526014018281526020019350505050604051602081830303815290604052805190602001206040518263ffffffff1660e01b81526004018082815260200191505060206040518083038186803b15801561271357600080fd5b505afa158015612727573d6000803e3d6000fd5b505050506040513d602081101561273d57600080fd5b810190808051906020019092919050505090507f73756200000000000000000000000000000000000000000000000000000000008214156127825782810390506127ba565b7f61646400000000000000000000000000000000000000000000000000000000008214156127b45782810190506127b9565b600080fd5b5b600360009054906101000a900473ffffffffffffffffffffffffffffffffffffffff1673ffffffffffffffffffffffffffffffffffffffff166354c552db87878760405160200180807f657363726f7700000000000000000000000000000000000000000000000000008152506006018473ffffffffffffffffffffffffffffffffffffffff1673ffffffffffffffffffffffffffffffffffffffff1660601b81526014018373ffffffffffffffffffffffffffffffffffffffff1673ffffffffffffffffffffffffffffffffffffffff1660601b8152601401828152602001935050505060405160208183030381529060405280519060200120836040518363ffffffff1660e01b81526004018083815260200182815260200192505050600060405180830381600087803b1580156128f357600080fd5b505af1158015612907573d6000803e3d6000fd5b50505050505050505050565b6000600360009054906101000a900473ffffffffffffffffffffffffffffffffffffffff1673ffffffffffffffffffffffffffffffffffffffff16632ecb0d6487878760405160200180807f686f6c64657273000000000000000000000000000000000000000000000000008152506007018473ffffffffffffffffffffffffffffffffffffffff1673ffffffffffffffffffffffffffffffffffffffff1660601b8152601401807f626f6e64730000000000000000000000000000000000000000000000000000008152506005018373ffffffffffffffffffffffffffffffffffffffff1673ffffffffffffffffffffffffffffffffffffffff1660601b81526014018281526020019350505050604051602081830303815290604052805190602001206040518263ffffffff1660e01b81526004018082815260200191505060206040518083038186803b158015612a6c57600080fd5b505afa158015612a80573d6000803e3d6000fd5b505050506040513d6020811015612a9657600080fd5b810190808051906020019092919050505090507f7375620000000000000000000000000000000000000000000000000000000000821415612adb578281039050612b0a565b7f6164640000000000000000000000000000000000000000000000000000000000821415612b095782810190505b5b600360009054906101000a900473ffffffffffffffffffffffffffffffffffffffff1673ffffffffffffffffffffffffffffffffffffffff166354c552db87878760405160200180807f686f6c64657273000000000000000000000000000000000000000000000000008152506007018473ffffffffffffffffffffffffffffffffffffffff1673ffffffffffffffffffffffffffffffffffffffff1660601b8152601401807f626f6e64730000000000000000000000000000000000000000000000000000008152506005018373ffffffffffffffffffffffffffffffffffffffff1673ffffffffffffffffffffffffffffffffffffffff1660601b8152601401828152602001935050505060405160208183030381529060405280519060200120836040518363ffffffff1660e01b81526004018083815260200182815260200192505050600060405180830381600087803b158015612c6b57600080fd5b505af1158015612c7f573d6000803e3d6000fd5b50505050505050505050565b6000600260009054906101000a900473ffffffffffffffffffffffffffffffffffffffff1673ffffffffffffffffffffffffffffffffffffffff1663358177736040518163ffffffff1660e01b81526004018080602001828103825260088152602001807f444154414241534500000000000000000000000000000000000000000000000081525060200191505060206040518083038186803b158015612d3157600080fd5b505afa158015612d45573d6000803e3d6000fd5b505050506040513d6020811015612d5b57600080fd5b8101908080519060200190929190505050905080600360006101000a81548173ffffffffffffffffffffffffffffffffffffffff021916908373ffffffffffffffffffffffffffffffffffffffff160217905550600260009054906101000a900473ffffffffffffffffffffffffffffffffffffffff1673ffffffffffffffffffffffffffffffffffffffff1663358177736040518163ffffffff1660e01b81526004018080602001828103825260078152602001807f415242495445520000000000000000000000000000000000000000000000000081525060200191505060206040518083038186803b158015612e5357600080fd5b505afa158015612e67573d6000803e3d6000fd5b505050506040513d6020811015612e7d57600080fd5b8101908080519060200190929190505050600660006101000a81548173ffffffffffffffffffffffffffffffffffffffff021916908373ffffffffffffffffffffffffffffffffffffffff160217905550600260009054906101000a900473ffffffffffffffffffffffffffffffffffffffff1673ffffffffffffffffffffffffffffffffffffffff1663358177736040518163ffffffff1660e01b81526004018080602001828103825260088152602001807f444953504154434800000000000000000000000000000000000000000000000081525060200191505060206040518083038186803b158015612f7257600080fd5b505afa158015612f86573d6000803e3d6000fd5b505050506040513d6020811015612f9c57600080fd5b8101908080519060200190929190505050600760006101000a81548173ffffffffffffffffffffffffffffffffffffffff021916908373ffffffffffffffffffffffffffffffffffffffff160217905550600260009054906101000a900473ffffffffffffffffffffffffffffffffffffffff1673ffffffffffffffffffffffffffffffffffffffff1663358177736040518163ffffffff1660e01b81526004018080602001828103825260098152602001807f5a41505f544f4b454e000000000000000000000000000000000000000000000081525060200191505060206040518083038186803b15801561309157600080fd5b505afa1580156130a5573d6000803e3d6000fd5b505050506040513d60208110156130bb57600080fd5b8101908080519060200190929190505050600560006101000a81548173ffffffffffffffffffffffffffffffffffffffff021916908373ffffffffffffffffffffffffffffffffffffffff160217905550600260009054906101000a900473ffffffffffffffffffffffffffffffffffffffff1673ffffffffffffffffffffffffffffffffffffffff1663358177736040518163ffffffff1660e01b815260040180806020018281038252600c8152602001807f43555252454e545f434f5354000000000000000000000000000000000000000081525060200191505060206040518083038186803b1580156131b057600080fd5b505afa1580156131c4573d6000803e3d6000fd5b505050506040513d60208110156131da57600080fd5b8101908080519060200190929190505050600460006101000a81548173ffffffffffffffffffffffffffffffffffffffff021916908373ffffffffffffffffffffffffffffffffffffffff16021790555050565b60008061323b85856119fa565b9050600073ffffffffffffffffffffffffffffffffffffffff168173ffffffffffffffffffffffffffffffffffffffff16146132f6578073ffffffffffffffffffffffffffffffffffffffff163373ffffffffffffffffffffffffffffffffffffffff16146132f5576040517f08c379a00000000000000000000000000000000000000000000000000000000081526004018080602001828103825260328152602001806144056032913960400191505060405180910390fd5b5b60006133028686610f88565b905061330e86866110c5565b8482011115613385576040517f08c379a00000000000000000000000000000000000000000000000000000000081526004018080602001828103825260198152602001807f4572726f723a20446f74206c696d69742065786365656465640000000000000081525060200191505060405180910390fd5b6000600460009054906101000a900473ffffffffffffffffffffffffffffffffffffffff1673ffffffffffffffffffffffffffffffffffffffff1663197d66d588886001860160018a036040518563ffffffff1660e01b8152600401808573ffffffffffffffffffffffffffffffffffffffff1673ffffffffffffffffffffffffffffffffffffffff16815260200184815260200183815260200182815260200194505050505060206040518083038186803b15801561344457600080fd5b505afa158015613458573d6000803e3d6000fd5b505050506040513d602081101561346e57600080fd5b81019080805190602001909291905050509050600560009054906101000a900473ffffffffffffffffffffffffffffffffffffffff1673ffffffffffffffffffffffffffffffffffffffff166323b872dd3330846040518463ffffffff1660e01b8152600401808473ffffffffffffffffffffffffffffffffffffffff1673ffffffffffffffffffffffffffffffffffffffff1681526020018373ffffffffffffffffffffffffffffffffffffffff1673ffffffffffffffffffffffffffffffffffffffff1681526020018281526020019350505050602060405180830381600087803b15801561355e57600080fd5b505af1158015613572573d6000803e3d6000fd5b505050506040513d602081101561358857600080fd5b81019080805190602001909291905050506135ee576040517f08c379a00000000000000000000000000000000000000000000000000000000081526004018080602001828103825260378152602001806143ce6037913960400191505060405180910390fd5b6135f88888610b60565b613611576136068888613b3d565b6136108888613cb3565b5b61363e888888887f6164640000000000000000000000000000000000000000000000000000000000612913565b61366a8787877f6164640000000000000000000000000000000000000000000000000000000000613e1d565b6136968787837f61646400000000000000000000000000000000000000000000000000000000006140df565b809350505050949350505050565b6000806136b185856119fa565b9050600073ffffffffffffffffffffffffffffffffffffffff168173ffffffffffffffffffffffffffffffffffffffff161461376c578073ffffffffffffffffffffffffffffffffffffffff163373ffffffffffffffffffffffffffffffffffffffff161461376b576040517f08c379a00000000000000000000000000000000000000000000000000000000081526004018080602001828103825260328152602001806144056032913960400191505060405180910390fd5b5b6000613779878787611d88565b9050838110156137f1576040517f08c379a000000000000000000000000000000000000000000000000000000000815260040180806020018281038252601d8152602001807f4572726f723a204e6f7420656e6f75676820646f747320626f6e64656400000081525060200191505060405180910390fd5b6000841161384a576040517f08c379a000000000000000000000000000000000000000000000000000000000815260040180806020018281038252602c8152602001806143a2602c913960400191505060405180910390fd5b60006138568787610f88565b9050600460009054906101000a900473ffffffffffffffffffffffffffffffffffffffff1673ffffffffffffffffffffffffffffffffffffffff1663197d66d5888888600186010360018a036040518563ffffffff1660e01b8152600401808573ffffffffffffffffffffffffffffffffffffffff1673ffffffffffffffffffffffffffffffffffffffff16815260200184815260200183815260200182815260200194505050505060206040518083038186803b15801561391757600080fd5b505afa15801561392b573d6000803e3d6000fd5b505050506040513d602081101561394157600080fd5b810190808051906020019092919050505093506139808787867f73756200000000000000000000000000000000000000000000000000000000006140df565b6139ac8787877f7375620000000000000000000000000000000000000000000000000000000000613e1d565b6139d9888888887f7375620000000000000000000000000000000000000000000000000000000000612913565b600560009054906101000a900473ffffffffffffffffffffffffffffffffffffffff1673ffffffffffffffffffffffffffffffffffffffff1663a9059cbb33866040518363ffffffff1660e01b8152600401808373ffffffffffffffffffffffffffffffffffffffff1673ffffffffffffffffffffffffffffffffffffffff16815260200182815260200192505050602060405180830381600087803b158015613a8257600080fd5b505af1158015613a96573d6000803e3d6000fd5b505050506040513d6020811015613aac57600080fd5b8101908080519060200190929190505050613b2f576040517f08c379a00000000000000000000000000000000000000000000000000000000081526004018080602001828103825260168152602001807f4572726f723a205472616e73666572206661696c65640000000000000000000081525060200191505060405180910390fd5b839350505050949350505050565b600360009054906101000a900473ffffffffffffffffffffffffffffffffffffffff1673ffffffffffffffffffffffffffffffffffffffff166354c552db838360405160200180807f686f6c64657273000000000000000000000000000000000000000000000000008152506007018373ffffffffffffffffffffffffffffffffffffffff1673ffffffffffffffffffffffffffffffffffffffff1660601b8152601401807f696e697469616c697a6564000000000000000000000000000000000000000000815250600b018273ffffffffffffffffffffffffffffffffffffffff1673ffffffffffffffffffffffffffffffffffffffff1660601b8152601401925050506040516020818303038152906040528051906020012060016040518363ffffffff1660e01b81526004018083815260200182815260200192505050600060405180830381600087803b158015613c9757600080fd5b505af1158015613cab573d6000803e3d6000fd5b505050505050565b600360009054906101000a900473ffffffffffffffffffffffffffffffffffffffff1673ffffffffffffffffffffffffffffffffffffffff1663dd151d1e8360405160200180807f686f6c64657273000000000000000000000000000000000000000000000000008152506007018273ffffffffffffffffffffffffffffffffffffffff1673ffffffffffffffffffffffffffffffffffffffff1660601b8152601401807f6f7261636c654c69737400000000000000000000000000000000000000000000815250600a0191505060405160208183030381529060405280519060200120836040518363ffffffff1660e01b8152600401808381526020018273ffffffffffffffffffffffffffffffffffffffff1673ffffffffffffffffffffffffffffffffffffffff16815260200192505050600060405180830381600087803b158015613e0157600080fd5b505af1158015613e15573d6000803e3d6000fd5b505050505050565b6000600360009054906101000a900473ffffffffffffffffffffffffffffffffffffffff1673ffffffffffffffffffffffffffffffffffffffff16632ecb0d64868660405160200180807f746f74616c497373756564000000000000000000000000000000000000000000815250600b018373ffffffffffffffffffffffffffffffffffffffff1673ffffffffffffffffffffffffffffffffffffffff1660601b815260140182815260200192505050604051602081830303815290604052805190602001206040518263ffffffff1660e01b81526004018082815260200191505060206040518083038186803b158015613f1757600080fd5b505afa158015613f2b573d6000803e3d6000fd5b505050506040513d6020811015613f4157600080fd5b810190808051906020019092919050505090507f7375620000000000000000000000000000000000000000000000000000000000821415613f86578281039050613fbe565b7f6164640000000000000000000000000000000000000000000000000000000000821415613fb8578281019050613fbd565b600080fd5b5b600360009054906101000a900473ffffffffffffffffffffffffffffffffffffffff1673ffffffffffffffffffffffffffffffffffffffff166354c552db868660405160200180807f746f74616c497373756564000000000000000000000000000000000000000000815250600b018373ffffffffffffffffffffffffffffffffffffffff1673ffffffffffffffffffffffffffffffffffffffff1660601b81526014018281526020019250505060405160208183030381529060405280519060200120836040518363ffffffff1660e01b81526004018083815260200182815260200192505050600060405180830381600087803b1580156140c057600080fd5b505af11580156140d4573d6000803e3d6000fd5b505050505050505050565b6000600360009054906101000a900473ffffffffffffffffffffffffffffffffffffffff1673ffffffffffffffffffffffffffffffffffffffff16632ecb0d64868660405160200180807f746f74616c426f756e6400000000000000000000000000000000000000000000815250600a018373ffffffffffffffffffffffffffffffffffffffff1673ffffffffffffffffffffffffffffffffffffffff1660601b815260140182815260200192505050604051602081830303815290604052805190602001206040518263ffffffff1660e01b81526004018082815260200191505060206040518083038186803b1580156141d957600080fd5b505afa1580156141ed573d6000803e3d6000fd5b505050506040513d602081101561420357600080fd5b810190808051906020019092919050505090507f7375620000000000000000000000000000000000000000000000000000000000821415614248578281039050614280565b7f616464000000000000000000000000000000000000000000000000000000000082141561427a57828101905061427f565b600080fd5b5b600360009054906101000a900473ffffffffffffffffffffffffffffffffffffffff1673ffffffffffffffffffffffffffffffffffffffff166354c552db868660405160200180807f746f74616c426f756e6400000000000000000000000000000000000000000000815250600a018373ffffffffffffffffffffffffffffffffffffffff1673ffffffffffffffffffffffffffffffffffffffff1660601b81526014018281526020019250505060405160208183030381529060405280519060200120836040518363ffffffff1660e01b81526004018083815260200182815260200192505050600060405180830381600087803b15801561438257600080fd5b505af1158015614396573d6000803e3d6000fd5b50505050505050505056fe4572726f723a20446f747320746f20756e626f6e64206d757374206265206d6f7265207468616e207a65726f4572726f723a2055736572206d757374206861766520617070726f76656420636f6e747261637420746f207472616e73666572205a41504572726f723a204f6e6c79207468652062726f6b6572206861732061636365737320746f20746869732066756e6374696f6ea165627a7a723058209f860fe82657b955d01a022255096d168e1e419808a3e68fdd3ea7ee9d891e990029",
  "source": "pragma solidity ^0.5.8;\n\nimport \"../../lib/lifecycle/Destructible.sol\";\nimport \"../../lib/ownership/Upgradable.sol\";\nimport \"../../lib/ERC20.sol\";\nimport \"../database/DatabaseInterface.sol\";\nimport \"./currentCost/CurrentCostInterface.sol\";\nimport \"./BondageInterface.sol\";\n\ncontract Bondage is Destructible, BondageInterface, Upgradable {\n    DatabaseInterface public db;\n\n    event Bound(address indexed holder, address indexed oracle, bytes32 indexed endpoint, uint256 numZap, uint256 numDots);\n    event Unbound(address indexed holder, address indexed oracle, bytes32 indexed endpoint, uint256 numDots);\n    event Escrowed(address indexed holder, address indexed oracle, bytes32 indexed endpoint, uint256 numDots);\n    event Released(address indexed holder, address indexed oracle, bytes32 indexed endpoint, uint256 numDots);\n    event Returned(address indexed holder, address indexed oracle, bytes32 indexed endpoint, uint256 numDots);\n\n\n    CurrentCostInterface currentCost;\n    ERC20 token;\n\n    address public arbiterAddress;\n    address public dispatchAddress;\n\n    // For restricting dot escrow/transfer method calls to Dispatch and Arbiter\n    modifier operatorOnly() {\n        require(msg.sender == arbiterAddress || msg.sender == dispatchAddress, \"Error: Operator Only Error\");\n        _;\n    }\n\n    /// @dev Initialize Storage, Token, and CurrentCost Contracts\n    constructor(address c) Upgradable(c) public {\n        _updateDependencies();\n    }\n\n    function _updateDependencies() internal {\n        address databaseAddress = coordinator.getContract(\"DATABASE\");\n        db = DatabaseInterface(databaseAddress);\n        arbiterAddress = coordinator.getContract(\"ARBITER\");\n        dispatchAddress = coordinator.getContract(\"DISPATCH\");\n        token = ERC20(coordinator.getContract(\"ZAP_TOKEN\"));\n        currentCost = CurrentCostInterface(coordinator.getContract(\"CURRENT_COST\"));\n    }\n\n    /// @dev will bond to an oracle\n    /// @return total ZAP bound to oracle\n    function bond(address oracleAddress, bytes32 endpoint, uint256 numDots) external returns (uint256 bound) {\n        bound = _bond(msg.sender, oracleAddress, endpoint, numDots);\n        emit Bound(msg.sender, oracleAddress, endpoint, bound, numDots);\n    }\n\n    /// @return total ZAP unbound from oracle\n    function unbond(address oracleAddress, bytes32 endpoint, uint256 numDots) external returns (uint256 unbound) {\n        unbound = _unbond(msg.sender, oracleAddress, endpoint, numDots);\n        emit Unbound(msg.sender, oracleAddress, endpoint, numDots);\n    }\n\n    /// @dev will bond to an oracle on behalf of some holder\n    /// @return total ZAP bound to oracle\n    function delegateBond(address holderAddress, address oracleAddress, bytes32 endpoint, uint256 numDots) external returns (uint256 boundZap) {\n        boundZap = _bond(holderAddress, oracleAddress, endpoint, numDots);\n        emit Bound(holderAddress, oracleAddress, endpoint, boundZap, numDots);\n    }\n\n    /// @dev Move numDots dots from provider-requester to bondage according to\n    /// data-provider address, holder address, and endpoint specifier (ala 'smart_contract')\n    /// Called only by Dispatch or Arbiter Contracts\n    function escrowDots(\n        address holderAddress,\n        address oracleAddress,\n        bytes32 endpoint,\n        uint256 numDots\n    )\n        external\n        operatorOnly\n        returns (bool success)\n    {\n        uint256 boundDots = getBoundDots(holderAddress, oracleAddress, endpoint);\n        require(numDots <= boundDots, \"Error: Not enough dots bound\");\n        updateEscrow(holderAddress, oracleAddress, endpoint, numDots, \"add\");\n        updateBondValue(holderAddress, oracleAddress, endpoint, numDots, \"sub\");\n        emit Escrowed(holderAddress, oracleAddress, endpoint, numDots);\n        return true;\n    }\n\n    /// @dev Transfer N dots from fromAddress to destAddress.\n    /// Called only by Disptach or Arbiter Contracts\n    /// In smart contract endpoint, occurs per satisfied request.\n    /// In socket endpoint called on termination of subscription.\n    function releaseDots(\n        address holderAddress,\n        address oracleAddress,\n        bytes32 endpoint,\n        uint256 numDots\n    )\n        external\n        operatorOnly\n        returns (bool success)\n    {\n        uint256 numEscrowed = getNumEscrow(holderAddress, oracleAddress, endpoint);\n        require(numDots <= numEscrowed, \"Error: Not enough dots Escrowed\");\n        updateEscrow(holderAddress, oracleAddress, endpoint, numDots, \"sub\");\n        updateBondValue(oracleAddress, oracleAddress, endpoint, numDots, \"add\");\n        emit Released(holderAddress, oracleAddress, endpoint, numDots);\n        return true;\n    }\n\n    /// @dev Transfer N dots from destAddress to fromAddress.\n    /// Called only by Disptach or Arbiter Contracts\n    /// In smart contract endpoint, occurs per satisfied request.\n    /// In socket endpoint called on termination of subscription.\n    function returnDots(\n        address holderAddress,\n        address oracleAddress,\n        bytes32 endpoint,\n        uint256 numDots\n    )\n        external\n        operatorOnly\n        returns (bool success)\n    {\n        uint256 numEscrowed = getNumEscrow(holderAddress, oracleAddress, endpoint);\n        require(numDots <= numEscrowed, \"Error: Not enough dots escrowed\");\n        updateEscrow(holderAddress, oracleAddress, endpoint, numDots, \"sub\");\n        updateBondValue(holderAddress, oracleAddress, endpoint, numDots, \"add\");\n        emit Returned(holderAddress, oracleAddress, endpoint, numDots);\n        return true;\n    }\n\n\n    /// @dev Calculate quantity of tokens required for specified amount of dots\n    /// for endpoint defined by endpoint and data provider defined by oracleAddress\n    function calcZapForDots(\n        address oracleAddress,\n        bytes32 endpoint,\n        uint256 numDots\n    )\n        external\n        view\n        returns (uint256 numZap)\n    {\n        uint256 issued = getDotsIssued(oracleAddress, endpoint);\n        return currentCost._costOfNDots(oracleAddress, endpoint, issued + 1, numDots - 1);\n    }\n\n    /// @dev Get the current cost of a dot.\n    /// @param endpoint specifier\n    /// @param oracleAddress data-provider\n    /// @param totalBound current number of dots\n    function currentCostOfDot(\n        address oracleAddress,\n        bytes32 endpoint,\n        uint256 totalBound\n    )\n        public\n        view\n        returns (uint256 cost)\n    {\n        return currentCost._currentCostOfDot(oracleAddress, endpoint, totalBound);\n    }\n\n    /// @dev Get issuance limit of dots\n    /// @param endpoint specifier\n    /// @param oracleAddress data-provider\n    function dotLimit(\n        address oracleAddress,\n        bytes32 endpoint\n    )\n        public\n        view\n        returns (uint256 limit)\n    {\n        return currentCost._dotLimit(oracleAddress, endpoint);\n    }\n\n\n    /// @return total ZAP held by contract\n    function getZapBound(address oracleAddress, bytes32 endpoint) public view returns (uint256) {\n        return getNumZap(oracleAddress, endpoint);\n    }\n\n    function _bond(\n        address holderAddress,\n        address oracleAddress,\n        bytes32 endpoint,\n        uint256 numDots\n    )\n        private\n        returns (uint256)\n    {\n        address broker = getEndpointBroker(oracleAddress, endpoint);\n\n        if (broker != address(0)) {\n            require(msg.sender == broker, \"Error: Only the broker has access to this function\");\n        }\n\n        // This also checks if oracle is registered w/ an initialized curve\n        uint256 issued = getDotsIssued(oracleAddress, endpoint);\n        require(issued + numDots <= dotLimit(oracleAddress, endpoint), \"Error: Dot limit exceeded\");\n\n        uint256 numZap = currentCost._costOfNDots(oracleAddress, endpoint, issued + 1, numDots - 1);\n        // User must have approved contract to transfer working ZAP\n        require(token.transferFrom(msg.sender, address(this), numZap), \"Error: User must have approved contract to transfer ZAP\");\n\n        if (!isProviderInitialized(holderAddress, oracleAddress)) {\n            setProviderInitialized(holderAddress, oracleAddress);\n            addHolderOracle(holderAddress, oracleAddress);\n        }\n\n        updateBondValue(holderAddress, oracleAddress, endpoint, numDots, \"add\");\n        updateTotalIssued(oracleAddress, endpoint, numDots, \"add\");\n        updateTotalBound(oracleAddress, endpoint, numZap, \"add\");\n\n        return numZap;\n    }\n\n    function _unbond(\n        address holderAddress,\n        address oracleAddress,\n        bytes32 endpoint,\n        uint256 numDots\n    )\n        private\n        returns (uint256 numZap)\n    {\n        address broker = getEndpointBroker(oracleAddress, endpoint);\n\n        if (broker != address(0)) {\n            require(msg.sender == broker, \"Error: Only the broker has access to this function\");\n        }\n\n        // Make sure the user has enough to bond with some additional sanity checks\n        uint256 amountBound = getBoundDots(holderAddress, oracleAddress, endpoint);\n        require(amountBound >= numDots, \"Error: Not enough dots bonded\");\n        require(numDots > 0, \"Error: Dots to unbond must be more than zero\");\n\n        // Get the value of the dots\n        uint256 issued = getDotsIssued(oracleAddress, endpoint);\n        numZap = currentCost._costOfNDots(oracleAddress, endpoint, issued + 1 - numDots, numDots - 1);\n\n        // Update the storage values\n        updateTotalBound(oracleAddress, endpoint, numZap, \"sub\");\n        updateTotalIssued(oracleAddress, endpoint, numDots, \"sub\");\n        updateBondValue(holderAddress, oracleAddress, endpoint, numDots, \"sub\");\n\n        // Do the transfer\n        require(token.transfer(msg.sender, numZap), \"Error: Transfer failed\");\n\n        return numZap;\n    }\n\n    /**** Get Methods ****/\n    function isProviderInitialized(address holderAddress, address oracleAddress) public view returns (bool) {\n        return db.getNumber(keccak256(abi.encodePacked('holders', holderAddress, 'initialized', oracleAddress))) == 1 ? true : false;\n    }\n\n    /// @dev get broker address for endpoint\n    function getEndpointBroker(address oracleAddress, bytes32 endpoint) public view returns (address) {\n        bytes32 bytes32Address = db.getBytes32(keccak256(abi.encodePacked('oracles', oracleAddress, endpoint, 'broker')));\n        return address(uint160(uint256(bytes32Address)));\n    }\n\n    function getNumEscrow(address holderAddress, address oracleAddress, bytes32 endpoint) public view returns (uint256) {\n        return db.getNumber(keccak256(abi.encodePacked('escrow', holderAddress, oracleAddress, endpoint)));\n    }\n\n    function getNumZap(address oracleAddress, bytes32 endpoint) public view returns (uint256) {\n        return db.getNumber(keccak256(abi.encodePacked('totalBound', oracleAddress, endpoint)));\n    }\n\n    function getDotsIssued(address oracleAddress, bytes32 endpoint) public view returns (uint256) {\n        return db.getNumber(keccak256(abi.encodePacked('totalIssued', oracleAddress, endpoint)));\n    }\n\n    function getBoundDots(address holderAddress, address oracleAddress, bytes32 endpoint) public view returns (uint256) {\n        return db.getNumber(keccak256(abi.encodePacked('holders', holderAddress, 'bonds', oracleAddress, endpoint)));\n    }\n\n    function getIndexSize(address holderAddress) external view returns (uint256) {\n        return db.getAddressArrayLength(keccak256(abi.encodePacked('holders', holderAddress, 'oracleList')));\n    }\n\n    function getOracleAddress(address holderAddress, uint256 index) public view returns (address) {\n        return db.getAddressArrayIndex(keccak256(abi.encodePacked('holders', holderAddress, 'oracleList')), index);\n    }\n\n    /**** Set Methods ****/\n    function addHolderOracle(address holderAddress, address oracleAddress) internal {\n        db.pushAddressArray(keccak256(abi.encodePacked('holders', holderAddress, 'oracleList')), oracleAddress);\n    }\n\n    function setProviderInitialized(address holderAddress, address oracleAddress) internal {\n        db.setNumber(keccak256(abi.encodePacked('holders', holderAddress, 'initialized', oracleAddress)), 1);\n    }\n\n    function updateEscrow(address holderAddress, address oracleAddress, bytes32 endpoint, uint256 numDots, bytes32 op) internal {\n        uint256 newEscrow = db.getNumber(keccak256(abi.encodePacked('escrow', holderAddress, oracleAddress, endpoint)));\n\n        if (op == \"sub\") {\n            newEscrow -= numDots;\n        } else if (op == \"add\") {\n            newEscrow += numDots;\n        }\n        else {\n            revert();\n        }\n\n        db.setNumber(keccak256(abi.encodePacked('escrow', holderAddress, oracleAddress, endpoint)), newEscrow);\n    }\n\n    function updateBondValue(address holderAddress, address oracleAddress, bytes32 endpoint, uint256 numDots, bytes32 op) internal {\n        uint256 bondValue = db.getNumber(keccak256(abi.encodePacked('holders', holderAddress, 'bonds', oracleAddress, endpoint)));\n\n        if (op == \"sub\") {\n            bondValue -= numDots;\n        } else if (op == \"add\") {\n            bondValue += numDots;\n        }\n\n        db.setNumber(keccak256(abi.encodePacked('holders', holderAddress, 'bonds', oracleAddress, endpoint)), bondValue);\n    }\n\n    function updateTotalBound(address oracleAddress, bytes32 endpoint, uint256 numZap, bytes32 op) internal {\n        uint256 totalBound = db.getNumber(keccak256(abi.encodePacked('totalBound', oracleAddress, endpoint)));\n\n        if (op == \"sub\"){\n            totalBound -= numZap;\n        } else if (op == \"add\") {\n            totalBound += numZap;\n        }\n        else {\n            revert();\n        }\n\n        db.setNumber(keccak256(abi.encodePacked('totalBound', oracleAddress, endpoint)), totalBound);\n    }\n\n    function updateTotalIssued(address oracleAddress, bytes32 endpoint, uint256 numDots, bytes32 op) internal {\n        uint256 totalIssued = db.getNumber(keccak256(abi.encodePacked('totalIssued', oracleAddress, endpoint)));\n\n        if (op == \"sub\"){\n            totalIssued -= numDots;\n        } else if (op == \"add\") {\n            totalIssued += numDots;\n        }\n        else {\n            revert();\n        }\n\n        db.setNumber(keccak256(abi.encodePacked('totalIssued', oracleAddress, endpoint)), totalIssued);\n    }\n}\n\n    /*************************************** STORAGE ****************************************\n    * 'holders', holderAddress, 'initialized', oracleAddress => {uint256} 1 -> provider-subscriber initialized, 0 -> not initialized\n    * 'holders', holderAddress, 'bonds', oracleAddress, endpoint => {uint256} number of dots this address has bound to this endpoint\n    * 'oracles', oracleAddress, endpoint, 'broker' => {address} address of endpoint broker, 0 if none\n    * 'escrow', holderAddress, oracleAddress, endpoint => {uint256} amount of Zap that have been escrowed\n    * 'totalBound', oracleAddress, endpoint => {uint256} amount of Zap bound to this endpoint\n    * 'totalIssued', oracleAddress, endpoint => {uint256} number of dots issued by this endpoint\n    * 'holders', holderAddress, 'oracleList' => {address[]} array of oracle addresses associated with this holder\n    ****************************************************************************************/\n",
  "sourcePath": "/Users/moinuddin/Desktop/Zap Projects/main-market-template/contracts/platform/bondage/Bondage.sol",
  "compiler": {
    "name": "solc",
    "version": "0.5.8+commit.23d335f2.Emscripten.clang"
  },
  "schemaVersion": "3.0.11",
  "updatedAt": "2019-06-24T03:26:27.652Z",
  "devdoc": {
    "methods": {
      "bond(address,bytes32,uint256)": {
        "details": "will bond to an oracle",
        "return": "total ZAP bound to oracle"
      },
      "calcZapForDots(address,bytes32,uint256)": {
        "details": "Calculate quantity of tokens required for specified amount of dots for endpoint defined by endpoint and data provider defined by oracleAddress"
      },
      "constructor": {
        "details": "Initialize Storage, Token, and CurrentCost Contracts"
      },
      "currentCostOfDot(address,bytes32,uint256)": {
        "details": "Get the current cost of a dot.",
        "params": {
          "endpoint": "specifier",
          "oracleAddress": "data-provider",
          "totalBound": "current number of dots"
        }
      },
      "delegateBond(address,address,bytes32,uint256)": {
        "details": "will bond to an oracle on behalf of some holder",
        "return": "total ZAP bound to oracle"
      },
      "dotLimit(address,bytes32)": {
        "details": "Get issuance limit of dots",
        "params": {
          "endpoint": "specifier",
          "oracleAddress": "data-provider"
        }
      },
      "escrowDots(address,address,bytes32,uint256)": {
        "details": "Move numDots dots from provider-requester to bondage according to data-provider address, holder address, and endpoint specifier (ala 'smart_contract') Called only by Dispatch or Arbiter Contracts"
      },
      "getEndpointBroker(address,bytes32)": {
        "details": "get broker address for endpoint"
      },
      "getZapBound(address,bytes32)": {
        "return": "total ZAP held by contract"
      },
      "releaseDots(address,address,bytes32,uint256)": {
        "details": "Transfer N dots from fromAddress to destAddress. Called only by Disptach or Arbiter Contracts In smart contract endpoint, occurs per satisfied request. In socket endpoint called on termination of subscription."
      },
      "returnDots(address,address,bytes32,uint256)": {
        "details": "Transfer N dots from destAddress to fromAddress. Called only by Disptach or Arbiter Contracts In smart contract endpoint, occurs per satisfied request. In socket endpoint called on termination of subscription."
      },
      "transferOwnership(address)": {
        "details": "Allows the current owner to transfer control of the contract to a newOwner.",
        "params": {
          "newOwner": "The address to transfer ownership to."
        }
      },
      "unbond(address,bytes32,uint256)": {
        "return": "total ZAP unbound from oracle"
      }
    }
  },
  "userdoc": {
    "methods": {
      "isProviderInitialized(address,address)": {
        "notice": "** Get Methods ***"
      }
    }
  }
}