{
  "contractName": "BTCcontest",
  "abi": [
    {
      "constant": true,
      "inputs": [],
      "name": "coordinator",
      "outputs": [
        {
          "name": "",
          "type": "address"
        }
      ],
      "payable": false,
      "stateMutability": "view",
      "type": "function"
    },
    {
      "constant": true,
      "inputs": [],
      "name": "downEndpoint",
      "outputs": [
        {
          "name": "",
          "type": "bytes32"
        }
      ],
      "payable": false,
      "stateMutability": "view",
      "type": "function"
    },
    {
      "constant": true,
      "inputs": [],
      "name": "oracle",
      "outputs": [
        {
          "name": "",
          "type": "address"
        }
      ],
      "payable": false,
      "stateMutability": "view",
      "type": "function"
    },
    {
      "constant": true,
      "inputs": [],
      "name": "owner",
      "outputs": [
        {
          "name": "",
          "type": "address"
        }
      ],
      "payable": false,
      "stateMutability": "view",
      "type": "function"
    },
    {
      "constant": true,
      "inputs": [],
      "name": "upEndpoint",
      "outputs": [
        {
          "name": "",
          "type": "bytes32"
        }
      ],
      "payable": false,
      "stateMutability": "view",
      "type": "function"
    },
    {
      "constant": true,
      "inputs": [],
      "name": "contest",
      "outputs": [
        {
          "name": "",
          "type": "address"
        }
      ],
      "payable": false,
      "stateMutability": "view",
      "type": "function"
    },
    {
      "constant": true,
      "inputs": [],
      "name": "query_id",
      "outputs": [
        {
          "name": "",
          "type": "uint256"
        }
      ],
      "payable": false,
      "stateMutability": "view",
      "type": "function"
    },
    {
      "constant": true,
      "inputs": [],
      "name": "startPrice",
      "outputs": [
        {
          "name": "",
          "type": "uint256"
        }
      ],
      "payable": false,
      "stateMutability": "view",
      "type": "function"
    },
    {
      "constant": false,
      "inputs": [
        {
          "name": "newOwner",
          "type": "address"
        }
      ],
      "name": "transferOwnership",
      "outputs": [],
      "payable": false,
      "stateMutability": "nonpayable",
      "type": "function"
    },
    {
      "inputs": [
        {
          "name": "_cord",
          "type": "address"
        },
        {
          "name": "_contest",
          "type": "address"
        },
        {
          "name": "_startPrice",
          "type": "uint256"
        },
        {
          "name": "_upEndpoint",
          "type": "bytes32"
        },
        {
          "name": "_downEndpoint",
          "type": "bytes32"
        }
      ],
      "payable": false,
      "stateMutability": "nonpayable",
      "type": "constructor"
    },
    {
      "anonymous": false,
      "inputs": [
        {
          "indexed": true,
          "name": "previousOwner",
          "type": "address"
        },
        {
          "indexed": true,
          "name": "newOwner",
          "type": "address"
        }
      ],
      "name": "OwnershipTransferred",
      "type": "event"
    },
    {
      "constant": false,
      "inputs": [
        {
          "name": "_coincap",
          "type": "address"
        },
        {
          "name": "_endpoint",
          "type": "bytes32"
        },
        {
          "name": "_numDots",
          "type": "uint256"
        }
      ],
      "name": "bondToCoincap",
      "outputs": [
        {
          "name": "",
          "type": "bool"
        }
      ],
      "payable": false,
      "stateMutability": "nonpayable",
      "type": "function"
    },
    {
      "constant": false,
      "inputs": [
        {
          "name": "_coincap",
          "type": "address"
        },
        {
          "name": "_endpoint",
          "type": "bytes32"
        }
      ],
      "name": "queryToSettle",
      "outputs": [
        {
          "name": "",
          "type": "uint256"
        }
      ],
      "payable": false,
      "stateMutability": "nonpayable",
      "type": "function"
    },
    {
      "constant": false,
      "inputs": [
        {
          "name": "_id",
          "type": "uint256"
        },
        {
          "name": "responses",
          "type": "int256[]"
        }
      ],
      "name": "callback",
      "outputs": [],
      "payable": false,
      "stateMutability": "nonpayable",
      "type": "function"
    }
  ],
  "bytecode": "0x60806040523480156200001157600080fd5b5060405160a0806200179b833981018060405260a08110156200003357600080fd5b810190808051906020019092919080519060200190929190805190602001909291908051906020019092919080519060200190929190505050336000806101000a81548173ffffffffffffffffffffffffffffffffffffffff021916908373ffffffffffffffffffffffffffffffffffffffff16021790555033600360006101000a81548173ffffffffffffffffffffffffffffffffffffffff021916908373ffffffffffffffffffffffffffffffffffffffff16021790555083600160006101000a81548173ffffffffffffffffffffffffffffffffffffffff021916908373ffffffffffffffffffffffffffffffffffffffff1602179055508260058190555084600260006101000a81548173ffffffffffffffffffffffffffffffffffffffff021916908373ffffffffffffffffffffffffffffffffffffffff160217905550600160009054906101000a900473ffffffffffffffffffffffffffffffffffffffff1673ffffffffffffffffffffffffffffffffffffffff16638ba3dbee836040518263ffffffff1660e01b81526004018082815260200191505060206040518083038186803b158015620001ea57600080fd5b505afa158015620001ff573d6000803e3d6000fd5b505050506040513d60208110156200021657600080fd5b81019080805190602001909291905050508015620002e15750600160009054906101000a900473ffffffffffffffffffffffffffffffffffffffff1673ffffffffffffffffffffffffffffffffffffffff16638ba3dbee826040518263ffffffff1660e01b81526004018082815260200191505060206040518083038186803b158015620002a357600080fd5b505afa158015620002b8573d6000803e3d6000fd5b505050506040513d6020811015620002cf57600080fd5b81019080805190602001909291905050505b62000354576040517f08c379a00000000000000000000000000000000000000000000000000000000081526004018080602001828103825260178152602001807f456e64706f696e747320617265206e6f742076616c696400000000000000000081525060200191505060405180910390fd5b81600681905550806007819055506000600260009054906101000a900473ffffffffffffffffffffffffffffffffffffffff1673ffffffffffffffffffffffffffffffffffffffff1663358177736040518163ffffffff1660e01b81526004018080602001828103825260078152602001807f424f4e444147450000000000000000000000000000000000000000000000000081525060200191505060206040518083038186803b1580156200040957600080fd5b505afa1580156200041e573d6000803e3d6000fd5b505050506040513d60208110156200043557600080fd5b8101908080519060200190929190505050905060008190506000600260009054906101000a900473ffffffffffffffffffffffffffffffffffffffff1673ffffffffffffffffffffffffffffffffffffffff1663358177736040518163ffffffff1660e01b81526004018080602001828103825260098152602001807f5a41505f544f4b454e000000000000000000000000000000000000000000000081525060200191505060206040518083038186803b158015620004f457600080fd5b505afa15801562000509573d6000803e3d6000fd5b505050506040513d60208110156200052057600080fd5b810190808051906020019092919050505090508073ffffffffffffffffffffffffffffffffffffffff1663095ea7b3846000196040518363ffffffff1660e01b8152600401808373ffffffffffffffffffffffffffffffffffffffff1673ffffffffffffffffffffffffffffffffffffffff16815260200182815260200192505050602060405180830381600087803b158015620005bd57600080fd5b505af1158015620005d2573d6000803e3d6000fd5b505050506040513d6020811015620005e957600080fd5b810190808051906020019092919050505050505050505050505061118880620006136000396000f3fe608060405234801561001057600080fd5b50600436106100b45760003560e01c8063d29cb5c511610071578063d29cb5c5146102a8578063db3ddc34146102c6578063e3ac83da14610328578063e7cd814614610372578063f1a9af8914610390578063f2fde38b146103ae576100b4565b80630a009097146100b95780632a0962ba1461010357806374402df7146101215780637dc0d1d0146101915780638da5cb5b146101db57806399ff48af14610225575b600080fd5b6100c16103f2565b604051808273ffffffffffffffffffffffffffffffffffffffff1673ffffffffffffffffffffffffffffffffffffffff16815260200191505060405180910390f35b61010b610418565b6040518082815260200191505060405180910390f35b6101776004803603606081101561013757600080fd5b81019080803573ffffffffffffffffffffffffffffffffffffffff169060200190929190803590602001909291908035906020019092919050505061041e565b604051808215151515815260200191505060405180910390f35b6101996106c3565b604051808273ffffffffffffffffffffffffffffffffffffffff1673ffffffffffffffffffffffffffffffffffffffff16815260200191505060405180910390f35b6101e36106e9565b604051808273ffffffffffffffffffffffffffffffffffffffff1673ffffffffffffffffffffffffffffffffffffffff16815260200191505060405180910390f35b6102a66004803603604081101561023b57600080fd5b81019080803590602001909291908035906020019064010000000081111561026257600080fd5b82018360208201111561027457600080fd5b8035906020019184602083028401116401000000008311171561029657600080fd5b909192939192939050505061070e565b005b6102b0610c50565b6040518082815260200191505060405180910390f35b610312600480360360408110156102dc57600080fd5b81019080803573ffffffffffffffffffffffffffffffffffffffff16906020019092919080359060200190929190505050610c56565b6040518082815260200191505060405180910390f35b610330610f6a565b604051808273ffffffffffffffffffffffffffffffffffffffff1673ffffffffffffffffffffffffffffffffffffffff16815260200191505060405180910390f35b61037a610f90565b6040518082815260200191505060405180910390f35b610398610f96565b6040518082815260200191505060405180910390f35b6103f0600480360360208110156103c457600080fd5b81019080803573ffffffffffffffffffffffffffffffffffffffff169060200190929190505050610f9c565b005b600260009054906101000a900473ffffffffffffffffffffffffffffffffffffffff1681565b60075481565b600080600260009054906101000a900473ffffffffffffffffffffffffffffffffffffffff1673ffffffffffffffffffffffffffffffffffffffff1663358177736040518163ffffffff1660e01b81526004018080602001828103825260078152602001807f424f4e444147450000000000000000000000000000000000000000000000000081525060200191505060206040518083038186803b1580156104c557600080fd5b505afa1580156104d9573d6000803e3d6000fd5b505050506040513d60208110156104ef57600080fd5b8101908080519060200190929190505050905060008190506000600260009054906101000a900473ffffffffffffffffffffffffffffffffffffffff1673ffffffffffffffffffffffffffffffffffffffff1663358177736040518163ffffffff1660e01b81526004018080602001828103825260098152602001807f5a41505f544f4b454e000000000000000000000000000000000000000000000081525060200191505060206040518083038186803b1580156105ad57600080fd5b505afa1580156105c1573d6000803e3d6000fd5b505050506040513d60208110156105d757600080fd5b810190808051906020019092919050505090508173ffffffffffffffffffffffffffffffffffffffff166399275cc78888886040518463ffffffff1660e01b8152600401808473ffffffffffffffffffffffffffffffffffffffff1673ffffffffffffffffffffffffffffffffffffffff1681526020018381526020018281526020019350505050602060405180830381600087803b15801561067957600080fd5b505af115801561068d573d6000803e3d6000fd5b505050506040513d60208110156106a357600080fd5b810190808051906020019092919050505050600193505050509392505050565b600360009054906101000a900473ffffffffffffffffffffffffffffffffffffffff1681565b6000809054906101000a900473ffffffffffffffffffffffffffffffffffffffff1681565b6000600260009054906101000a900473ffffffffffffffffffffffffffffffffffffffff1673ffffffffffffffffffffffffffffffffffffffff1663358177736040518163ffffffff1660e01b81526004018080602001828103825260088152602001807f444953504154434800000000000000000000000000000000000000000000000081525060200191505060206040518083038186803b1580156107b457600080fd5b505afa1580156107c8573d6000803e3d6000fd5b505050506040513d60208110156107de57600080fd5b810190808051906020019092919050505090508073ffffffffffffffffffffffffffffffffffffffff163373ffffffffffffffffffffffffffffffffffffffff1614610875576040517f08c379a00000000000000000000000000000000000000000000000000000000081526004018080602001828103825260228152602001806110ee6022913960400191505060405180910390fd5b60018060009054906101000a900473ffffffffffffffffffffffffffffffffffffffff1673ffffffffffffffffffffffffffffffffffffffff16634e69d5606040518163ffffffff1660e01b815260040160206040518083038186803b1580156108de57600080fd5b505afa1580156108f2573d6000803e3d6000fd5b505050506040513d602081101561090857600080fd5b81019080805190602001909291905050501461096f576040517f08c379a00000000000000000000000000000000000000000000000000000000081526004018080602001828103825260238152602001806111106023913960400191505060405180910390fd5b60008383600081811061097e57fe5b9050602002013590506060600160009054906101000a900473ffffffffffffffffffffffffffffffffffffffff1673ffffffffffffffffffffffffffffffffffffffff16635d7c83f16040518163ffffffff1660e01b815260040160006040518083038186803b1580156109f157600080fd5b505afa158015610a05573d6000803e3d6000fd5b505050506040513d6000823e3d601f19601f820116820180604052506020811015610a2f57600080fd5b810190808051640100000000811115610a4757600080fd5b82810190506020810184811115610a5d57600080fd5b8151856020820283011164010000000082111715610a7a57600080fd5b5050929190505050905060008090505b8151811015610c4657600654828281518110610aa257fe5b6020026020010151148015610ab8575060055483115b15610b6657600160009054906101000a900473ffffffffffffffffffffffffffffffffffffffff1673ffffffffffffffffffffffffffffffffffffffff1663e4103143838381518110610b0757fe5b60200260200101516040518263ffffffff1660e01b815260040180828152602001915050600060405180830381600087803b158015610b4557600080fd5b505af1158015610b59573d6000803e3d6000fd5b5050505050505050610c4b565b600754828281518110610b7557fe5b6020026020010151148015610b8b575060055483105b15610c3957600160009054906101000a900473ffffffffffffffffffffffffffffffffffffffff1673ffffffffffffffffffffffffffffffffffffffff1663e4103143838381518110610bda57fe5b60200260200101516040518263ffffffff1660e01b815260040180828152602001915050600060405180830381600087803b158015610c1857600080fd5b505af1158015610c2c573d6000803e3d6000fd5b5050505050505050610c4b565b8080600101915050610a8a565b505050505b505050565b60065481565b6000600360009054906101000a900473ffffffffffffffffffffffffffffffffffffffff1673ffffffffffffffffffffffffffffffffffffffff163373ffffffffffffffffffffffffffffffffffffffff1614610cfe576040517f08c379a000000000000000000000000000000000000000000000000000000000815260040180806020018281038252602a815260200180611133602a913960400191505060405180910390fd5b6000600260009054906101000a900473ffffffffffffffffffffffffffffffffffffffff1673ffffffffffffffffffffffffffffffffffffffff1663358177736040518163ffffffff1660e01b81526004018080602001828103825260088152602001807f444953504154434800000000000000000000000000000000000000000000000081525060200191505060206040518083038186803b158015610da457600080fd5b505afa158015610db8573d6000803e3d6000fd5b505050506040513d6020811015610dce57600080fd5b81019080805190602001909291905050509050600081905060606000604051908082528060200260200182016040528015610e185781602001602082028038833980820191505090505b5090508173ffffffffffffffffffffffffffffffffffffffff16637de7cc668787846040518463ffffffff1660e01b8152600401808473ffffffffffffffffffffffffffffffffffffffff1673ffffffffffffffffffffffffffffffffffffffff1681526020018060200184815260200180602001838103835260038152602001807f4254430000000000000000000000000000000000000000000000000000000000815250602001838103825284818151815260200191508051906020019060200280838360005b83811015610efc578082015181840152602081019050610ee1565b5050505090500195505050505050602060405180830381600087803b158015610f2457600080fd5b505af1158015610f38573d6000803e3d6000fd5b505050506040513d6020811015610f4e57600080fd5b8101908080519060200190929190505050935050505092915050565b600160009054906101000a900473ffffffffffffffffffffffffffffffffffffffff1681565b60045481565b60055481565b6000809054906101000a900473ffffffffffffffffffffffffffffffffffffffff1673ffffffffffffffffffffffffffffffffffffffff163373ffffffffffffffffffffffffffffffffffffffff1614610ff557600080fd5b600073ffffffffffffffffffffffffffffffffffffffff168173ffffffffffffffffffffffffffffffffffffffff16141561102f57600080fd5b8073ffffffffffffffffffffffffffffffffffffffff166000809054906101000a900473ffffffffffffffffffffffffffffffffffffffff1673ffffffffffffffffffffffffffffffffffffffff167f8be0079c531659141344cd1fd0a4f28419497f9722a3daafe3b4186f6b6457e060405160405180910390a3806000806101000a81548173ffffffffffffffffffffffffffffffffffffffff021916908373ffffffffffffffffffffffffffffffffffffffff1602179055505056fe4f6e6c792061636365707420726573706f6e73652066726f6d206469737061746368436f6e74657374206973206e6f7420696e20696e697469616c697a65642073746174654f6e6c79204f7261636c65206f776e65722063616e2063616c6c20717565727920746f20736574746c65a165627a7a72305820b938327525eee59e1771a29224d5a3d2f8e2182ab8d50b19adb2ffd75eb71b5f0029",
  "source": "pragma solidity ^0.5.8;\nimport \"./SampleContest.sol\";\nimport \"../ownership/ZapCoordinatorInterface.sol\";\nimport \"../../platform/dispatch/DispatchInterface.sol\";\nimport \"../token/FactoryTokenInterface.sol\";\nimport \"../../platform/bondage/currentCost/CurrentCostInterface.sol\";\nimport \"./Client.sol\";\n\n\ncontract BTCcontest is Ownable, ClientIntArray {\n  SampleContest public contest;\n  ZapCoordinatorInterface public coordinator;\n  address public oracle;\n  uint256 public query_id;\n  uint256 public startPrice;\n  bytes32 public upEndpoint;\n  bytes32 public downEndpoint;\n\n  constructor(\n    address _cord,\n    address _contest,\n    uint256 _startPrice,\n    bytes32 _upEndpoint,\n    bytes32 _downEndpoint\n  ) public {\n    oracle = msg.sender;\n    contest = SampleContest(_contest);\n    startPrice = _startPrice;\n    coordinator = ZapCoordinatorInterface(_cord);\n    require(contest.isEndpointValid(_upEndpoint) && contest.isEndpointValid(_downEndpoint),\"Endpoints are not valid\");\n    upEndpoint = _upEndpoint;\n    downEndpoint = _downEndpoint;\n    address bondageAddress = coordinator.getContract(\"BONDAGE\");\n    BondageInterface bondage = BondageInterface(bondageAddress);\n    FactoryTokenInterface reserveToken = FactoryTokenInterface(coordinator.getContract(\"ZAP_TOKEN\"));\n    //get reserve value to send\n    reserveToken.approve(address(bondageAddress),~uint256(0));\n\n  }\n\n  function bondToCoincap(address _coincap,bytes32 _endpoint,uint256 _numDots)public returns (bool){\n    address bondageAddress = coordinator.getContract(\"BONDAGE\");\n    BondageInterface bondage = BondageInterface(bondageAddress);\n    FactoryTokenInterface reserveToken = FactoryTokenInterface(coordinator.getContract(\"ZAP_TOKEN\"));\n    //get reserve value to send\n    bondage.bond(_coincap,_endpoint,_numDots);\n    return true;\n\n  }\n  function queryToSettle(address _coincap,bytes32 _endpoint) public returns(uint256){\n    require(msg.sender == oracle, \"Only Oracle owner can call query to settle\");\n    address dispatchAddress = coordinator.getContract(\"DISPATCH\");\n    DispatchInterface dispatch = DispatchInterface(dispatchAddress);\n    bytes32[] memory params = new bytes32[](0);\n    return dispatch.query(_coincap,\"BTC\",_endpoint,params);\n  }\n\n\n\n  function callback(uint256 _id, int[] calldata responses) external {\n    address dispatchAddress = coordinator.getContract(\"DISPATCH\");\n    require(address(msg.sender)==address(dispatchAddress),\"Only accept response from dispatch\");\n    require(contest.getStatus()==1,\"Contest is not in initialized state\"); //2 is the ReadyToSettle enum value\n    uint256 price = uint256(responses[0]);\n    bytes32[] memory endpoints = contest.getEndpoints();\n    for(uint256 i=0;i<endpoints.length;i++){\n      if(endpoints[i]==upEndpoint && price > startPrice){\n        return contest.judge(endpoints[i]);\n      }\n      if(endpoints[i]==downEndpoint && price<startPrice){\n        return contest.judge(endpoints[i]);\n      }\n    }\n  }\n\n}\n",
  "sourcePath": "/Users/moinuddin/Desktop/Zap Projects/main-market-template/contracts/lib/platform/BTCcontest.sol",
  "compiler": {
    "name": "solc",
    "version": "0.5.8+commit.23d335f2.Emscripten.clang"
  },
  "schemaVersion": "3.0.11",
  "updatedAt": "2019-06-24T03:26:20.521Z",
  "devdoc": {
    "methods": {
      "transferOwnership(address)": {
        "details": "Allows the current owner to transfer control of the contract to a newOwner.",
        "params": {
          "newOwner": "The address to transfer ownership to."
        }
      }
    }
  },
  "userdoc": {
    "methods": {}
  }
}