{
  "contractName": "Client",
  "abi": [
    {
      "constant": true,
      "inputs": [],
      "name": "provider",
      "outputs": [
        {
          "name": "",
          "type": "address"
        }
      ],
      "payable": false,
      "stateMutability": "view",
      "type": "function"
    },
    {
      "constant": true,
      "inputs": [],
      "name": "endpoint",
      "outputs": [
        {
          "name": "",
          "type": "bytes32"
        }
      ],
      "payable": false,
      "stateMutability": "view",
      "type": "function"
    },
    {
      "constant": true,
      "inputs": [],
      "name": "owner",
      "outputs": [
        {
          "name": "",
          "type": "address"
        }
      ],
      "payable": false,
      "stateMutability": "view",
      "type": "function"
    },
    {
      "constant": true,
      "inputs": [],
      "name": "zapTokenAddress",
      "outputs": [
        {
          "name": "",
          "type": "address"
        }
      ],
      "payable": false,
      "stateMutability": "view",
      "type": "function"
    },
    {
      "constant": true,
      "inputs": [],
      "name": "bondageAddress",
      "outputs": [
        {
          "name": "",
          "type": "address"
        }
      ],
      "payable": false,
      "stateMutability": "view",
      "type": "function"
    },
    {
      "inputs": [
        {
          "name": "_zapCoor",
          "type": "address"
        },
        {
          "name": "_provider",
          "type": "address"
        },
        {
          "name": "_endpoint",
          "type": "bytes32"
        }
      ],
      "payable": false,
      "stateMutability": "nonpayable",
      "type": "constructor"
    },
    {
      "anonymous": false,
      "inputs": [
        {
          "indexed": false,
          "name": "response1",
          "type": "string"
        },
        {
          "indexed": false,
          "name": "response2",
          "type": "string"
        },
        {
          "indexed": false,
          "name": "response3",
          "type": "string"
        },
        {
          "indexed": false,
          "name": "response4",
          "type": "string"
        }
      ],
      "name": "Results",
      "type": "event"
    },
    {
      "constant": false,
      "inputs": [
        {
          "name": "amount",
          "type": "uint256"
        }
      ],
      "name": "allocateZap",
      "outputs": [],
      "payable": false,
      "stateMutability": "nonpayable",
      "type": "function"
    },
    {
      "constant": false,
      "inputs": [
        {
          "name": "amount",
          "type": "uint256"
        }
      ],
      "name": "approve",
      "outputs": [
        {
          "name": "",
          "type": "bool"
        }
      ],
      "payable": false,
      "stateMutability": "nonpayable",
      "type": "function"
    },
    {
      "constant": false,
      "inputs": [
        {
          "name": "dots",
          "type": "uint256"
        }
      ],
      "name": "bond",
      "outputs": [
        {
          "name": "",
          "type": "uint256"
        }
      ],
      "payable": false,
      "stateMutability": "nonpayable",
      "type": "function"
    },
    {
      "constant": false,
      "inputs": [
        {
          "name": "dots",
          "type": "uint256"
        }
      ],
      "name": "unbond",
      "outputs": [
        {
          "name": "",
          "type": "uint256"
        }
      ],
      "payable": false,
      "stateMutability": "nonpayable",
      "type": "function"
    },
    {
      "constant": false,
      "inputs": [
        {
          "name": "id",
          "type": "uint256"
        },
        {
          "name": "response1",
          "type": "string"
        }
      ],
      "name": "callback",
      "outputs": [],
      "payable": false,
      "stateMutability": "nonpayable",
      "type": "function"
    },
    {
      "constant": false,
      "inputs": [
        {
          "name": "oracleAddr",
          "type": "address"
        },
        {
          "name": "query",
          "type": "string"
        },
        {
          "name": "specifier",
          "type": "bytes32"
        },
        {
          "name": "params",
          "type": "bytes32[]"
        }
      ],
      "name": "testQuery",
      "outputs": [
        {
          "name": "",
          "type": "uint256"
        }
      ],
      "payable": false,
      "stateMutability": "nonpayable",
      "type": "function"
    },
    {
      "constant": false,
      "inputs": [
        {
          "name": "id",
          "type": "uint256"
        }
      ],
      "name": "cancelQuery",
      "outputs": [],
      "payable": false,
      "stateMutability": "nonpayable",
      "type": "function"
    }
  ],
  "bytecode": "0x608060405234801561001057600080fd5b506040516060806112138339810180604052606081101561003057600080fd5b8101908080519060200190929190805190602001909291908051906020019092919050505082600260006101000a81548173ffffffffffffffffffffffffffffffffffffffff021916908373ffffffffffffffffffffffffffffffffffffffff1602179055506000600260009054906101000a900473ffffffffffffffffffffffffffffffffffffffff1673ffffffffffffffffffffffffffffffffffffffff1663358177736040518163ffffffff1660e01b81526004018080602001828103825260088152602001807f444953504154434800000000000000000000000000000000000000000000000081525060200191505060206040518083038186803b15801561013c57600080fd5b505afa158015610150573d6000803e3d6000fd5b505050506040513d602081101561016657600080fd5b81019080805190602001909291905050509050600260009054906101000a900473ffffffffffffffffffffffffffffffffffffffff1673ffffffffffffffffffffffffffffffffffffffff1663358177736040518163ffffffff1660e01b81526004018080602001828103825260078152602001807f424f4e444147450000000000000000000000000000000000000000000000000081525060200191505060206040518083038186803b15801561021d57600080fd5b505afa158015610231573d6000803e3d6000fd5b505050506040513d602081101561024757600080fd5b8101908080519060200190929190505050600760006101000a81548173ffffffffffffffffffffffffffffffffffffffff021916908373ffffffffffffffffffffffffffffffffffffffff160217905550600260009054906101000a900473ffffffffffffffffffffffffffffffffffffffff1673ffffffffffffffffffffffffffffffffffffffff1663358177736040518163ffffffff1660e01b81526004018080602001828103825260098152602001807f5a41505f544f4b454e000000000000000000000000000000000000000000000081525060200191505060206040518083038186803b15801561033c57600080fd5b505afa158015610350573d6000803e3d6000fd5b505050506040513d602081101561036657600080fd5b8101908080519060200190929190505050600660006101000a81548173ffffffffffffffffffffffffffffffffffffffff021916908373ffffffffffffffffffffffffffffffffffffffff160217905550600760009054906101000a900473ffffffffffffffffffffffffffffffffffffffff16600160006101000a81548173ffffffffffffffffffffffffffffffffffffffff021916908373ffffffffffffffffffffffffffffffffffffffff160217905550806000806101000a81548173ffffffffffffffffffffffffffffffffffffffff021916908373ffffffffffffffffffffffffffffffffffffffff160217905550600660009054906101000a900473ffffffffffffffffffffffffffffffffffffffff16600360006101000a81548173ffffffffffffffffffffffffffffffffffffffff021916908373ffffffffffffffffffffffffffffffffffffffff16021790555033600860006101000a81548173ffffffffffffffffffffffffffffffffffffffff021916908373ffffffffffffffffffffffffffffffffffffffff1602179055508160048190555082600560006101000a81548173ffffffffffffffffffffffffffffffffffffffff021916908373ffffffffffffffffffffffffffffffffffffffff16021790555050505050610cba806105596000396000f3fe608060405234801561001057600080fd5b50600436106100b45760003560e01c80639940686e116100715780639940686e14610209578063b69a375d1461024b578063b759f954146102ce578063d075f20f14610314578063dfc0ae0f14610420578063e00dbb411461046a576100b4565b8063085d4883146100b957806327de9e32146101035780635e280f11146101455780637237dc0b14610163578063834544d6146101915780638da5cb5b146101bf575b600080fd5b6100c16104b4565b604051808273ffffffffffffffffffffffffffffffffffffffff1673ffffffffffffffffffffffffffffffffffffffff16815260200191505060405180910390f35b61012f6004803603602081101561011957600080fd5b81019080803590602001909291905050506104da565b6040518082815260200191505060405180910390f35b61014d6105f3565b6040518082815260200191505060405180910390f35b61018f6004803603602081101561017957600080fd5b81019080803590602001909291905050506105f9565b005b6101bd600480360360208110156101a757600080fd5b8101908080359060200190929190505050610688565b005b6101c761074c565b604051808273ffffffffffffffffffffffffffffffffffffffff1673ffffffffffffffffffffffffffffffffffffffff16815260200191505060405180910390f35b6102356004803603602081101561021f57600080fd5b8101908080359060200190929190505050610772565b6040518082815260200191505060405180910390f35b6102cc6004803603604081101561026157600080fd5b81019080803590602001909291908035906020019064010000000081111561028857600080fd5b82018360208201111561029a57600080fd5b803590602001918460018302840111640100000000831117156102bc57600080fd5b90919293919293905050506108bf565b005b6102fa600480360360208110156102e457600080fd5b81019080803590602001909291905050506109d2565b604051808215151515815260200191505060405180910390f35b61040a6004803603608081101561032a57600080fd5b81019080803573ffffffffffffffffffffffffffffffffffffffff1690602001909291908035906020019064010000000081111561036757600080fd5b82018360208201111561037957600080fd5b8035906020019184600183028401116401000000008311171561039b57600080fd5b909192939192939080359060200190929190803590602001906401000000008111156103c657600080fd5b8201836020820111156103d857600080fd5b803590602001918460208302840111640100000000831117156103fa57600080fd5b9091929391929390505050610ae1565b6040518082815260200191505060405180910390f35b610428610c42565b604051808273ffffffffffffffffffffffffffffffffffffffff1673ffffffffffffffffffffffffffffffffffffffff16815260200191505060405180910390f35b610472610c68565b604051808273ffffffffffffffffffffffffffffffffffffffff1673ffffffffffffffffffffffffffffffffffffffff16815260200191505060405180910390f35b600560009054906101000a900473ffffffffffffffffffffffffffffffffffffffff1681565b6000600160009054906101000a900473ffffffffffffffffffffffffffffffffffffffff1673ffffffffffffffffffffffffffffffffffffffff1663a06fe775600560009054906101000a900473ffffffffffffffffffffffffffffffffffffffff16600454856040518463ffffffff1660e01b8152600401808473ffffffffffffffffffffffffffffffffffffffff1673ffffffffffffffffffffffffffffffffffffffff1681526020018381526020018281526020019350505050602060405180830381600087803b1580156105b157600080fd5b505af11580156105c5573d6000803e3d6000fd5b505050506040513d60208110156105db57600080fd5b81019080805190602001909291905050509050919050565b60045481565b6000809054906101000a900473ffffffffffffffffffffffffffffffffffffffff1673ffffffffffffffffffffffffffffffffffffffff16637237dc0b826040518263ffffffff1660e01b815260040180828152602001915050600060405180830381600087803b15801561066d57600080fd5b505af1158015610681573d6000803e3d6000fd5b5050505050565b600360009054906101000a900473ffffffffffffffffffffffffffffffffffffffff1673ffffffffffffffffffffffffffffffffffffffff1663b78b52df30836040518363ffffffff1660e01b8152600401808373ffffffffffffffffffffffffffffffffffffffff1673ffffffffffffffffffffffffffffffffffffffff16815260200182815260200192505050600060405180830381600087803b15801561073157600080fd5b505af1158015610745573d6000803e3d6000fd5b5050505050565b600860009054906101000a900473ffffffffffffffffffffffffffffffffffffffff1681565b6000600160009054906101000a900473ffffffffffffffffffffffffffffffffffffffff1673ffffffffffffffffffffffffffffffffffffffff1663ca01fed530600560009054906101000a900473ffffffffffffffffffffffffffffffffffffffff16600454866040518563ffffffff1660e01b8152600401808573ffffffffffffffffffffffffffffffffffffffff1673ffffffffffffffffffffffffffffffffffffffff1681526020018473ffffffffffffffffffffffffffffffffffffffff1673ffffffffffffffffffffffffffffffffffffffff168152602001838152602001828152602001945050505050602060405180830381600087803b15801561087d57600080fd5b505af1158015610891573d6000803e3d6000fd5b505050506040513d60208110156108a757600080fd5b81019080805190602001909291905050509050919050565b7fb91add9777a88054a062cc1ca78ca1e20a6e208bf9f363609f35c18d493777b4828260405180806020018060200180602001806020018581038552878782818152602001925080828437600081840152601f19601f8201169050808301925050508581038452600c8152602001807f4e4f54415641494c41424c4500000000000000000000000000000000000000008152506020018581038352600c8152602001807f4e4f54415641494c41424c4500000000000000000000000000000000000000008152506020018581038252600c8152602001807f4e4f54415641494c41424c450000000000000000000000000000000000000000815250602001965050505050505060405180910390a1505050565b6000600360009054906101000a900473ffffffffffffffffffffffffffffffffffffffff1673ffffffffffffffffffffffffffffffffffffffff1663095ea7b3600760009054906101000a900473ffffffffffffffffffffffffffffffffffffffff16846040518363ffffffff1660e01b8152600401808373ffffffffffffffffffffffffffffffffffffffff1673ffffffffffffffffffffffffffffffffffffffff16815260200182815260200192505050602060405180830381600087803b158015610a9f57600080fd5b505af1158015610ab3573d6000803e3d6000fd5b505050506040513d6020811015610ac957600080fd5b81019080805190602001909291905050509050919050565b6000806000809054906101000a900473ffffffffffffffffffffffffffffffffffffffff1673ffffffffffffffffffffffffffffffffffffffff16637de7cc668989898989896040518763ffffffff1660e01b8152600401808773ffffffffffffffffffffffffffffffffffffffff1673ffffffffffffffffffffffffffffffffffffffff16815260200180602001858152602001806020018381038352888882818152602001925080828437600081840152601f19601f8201169050808301925050508381038252858582818152602001925060200280828437600081840152601f19601f82011690508083019250505098505050505050505050602060405180830381600087803b158015610bf757600080fd5b505af1158015610c0b573d6000803e3d6000fd5b505050506040513d6020811015610c2157600080fd5b81019080805190602001909291905050509050809150509695505050505050565b600660009054906101000a900473ffffffffffffffffffffffffffffffffffffffff1681565b600760009054906101000a900473ffffffffffffffffffffffffffffffffffffffff168156fea165627a7a723058205e6e75210e2dc10aa17fb879dc4bbca3dc870ae946ff812c30d06c2e2a5d452c0029",
  "source": "pragma solidity ^0.5.8;\nimport \"../token/ZapToken.sol\";\nimport \"../platform/bondage/Bondage.sol\";\nimport \"../platform/bondage/BondageInterface.sol\";\nimport \"../lib/ownership/ZapCoordinatorInterface.sol\";\nimport \"../platform/dispatch/DispatchInterface.sol\";\n\ncontract Client {\n    DispatchInterface dispatch;\n    BondageInterface bondage;\n    ZapCoordinatorInterface coordinator;\n    ZapToken zapToken;\n\n    bytes32 public endpoint;\n    address public provider;\n    address public zapTokenAddress;\n    address public bondageAddress;\n    address public owner;\n    event Results(string response1, string response2, string response3, string response4);\n\n    constructor(address _zapCoor, address _provider, bytes32 _endpoint) public {\n        coordinator = ZapCoordinatorInterface(_zapCoor);\n        address dispatchAddress = coordinator.getContract(\"DISPATCH\");\n        bondageAddress = coordinator.getContract(\"BONDAGE\");\n        zapTokenAddress = coordinator.getContract(\"ZAP_TOKEN\");\n        bondage = BondageInterface(bondageAddress);\n        dispatch = DispatchInterface(dispatchAddress);\n        zapToken = ZapToken(zapTokenAddress);\n        owner = msg.sender;\n        endpoint = _endpoint;\n        provider = _provider;\n    }\n\n    function allocateZap(uint256 amount) public {\n        zapToken.allocate(address(this), amount);\n    }\n\n    function approve(uint256 amount) public returns (bool) {\n        return zapToken.approve(bondageAddress,amount);\n    }\n\n    function bond(uint256 dots) public returns (uint256) {\n        return bondage.delegateBond(address(this), provider, endpoint, dots);\n    }\n\n    function unbond(uint256 dots) public returns (uint256) {\n        return bondage.unbond(provider,endpoint,dots);\n    }\n\n\n    function callback(uint256 id, string calldata response1) external {\n        emit Results(response1, \"NOTAVAILABLE\", \"NOTAVAILABLE\", \"NOTAVAILABLE\");\n    }\n\n    function testQuery(address oracleAddr, string calldata query, bytes32 specifier, bytes32[] calldata params) external returns (uint256) {\n        uint256 id = dispatch.query(oracleAddr, query, specifier, params);\n        return id;\n    }\n\n\n    // attempts to cancel an existing query\n    function cancelQuery(uint256 id) external {\n        dispatch.cancelQuery(id);\n    }\n}\n",
  "sourcePath": "/Users/moinuddin/Desktop/Zap Projects/main-market-template/contracts/examples/Client.sol",
  "compiler": {
    "name": "solc",
    "version": "0.5.8+commit.23d335f2.Emscripten.clang"
  },
  "schemaVersion": "3.0.11",
  "updatedAt": "2019-06-24T03:26:30.625Z",
  "devdoc": {
    "methods": {}
  },
  "userdoc": {
    "methods": {}
  }
}