{
  "contractName": "CurrentCost",
  "abi": [
    {
      "constant": false,
      "inputs": [],
      "name": "updateDependencies",
      "outputs": [],
      "payable": false,
      "stateMutability": "nonpayable",
      "type": "function"
    },
    {
      "constant": true,
      "inputs": [],
      "name": "owner",
      "outputs": [
        {
          "name": "",
          "type": "address"
        }
      ],
      "payable": false,
      "stateMutability": "view",
      "type": "function"
    },
    {
      "constant": false,
      "inputs": [],
      "name": "selfDestruct",
      "outputs": [],
      "payable": false,
      "stateMutability": "nonpayable",
      "type": "function"
    },
    {
      "constant": false,
      "inputs": [
        {
          "name": "newOwner",
          "type": "address"
        }
      ],
      "name": "transferOwnership",
      "outputs": [],
      "payable": false,
      "stateMutability": "nonpayable",
      "type": "function"
    },
    {
      "inputs": [
        {
          "name": "c",
          "type": "address"
        }
      ],
      "payable": false,
      "stateMutability": "nonpayable",
      "type": "constructor"
    },
    {
      "anonymous": false,
      "inputs": [
        {
          "indexed": true,
          "name": "previousOwner",
          "type": "address"
        },
        {
          "indexed": true,
          "name": "newOwner",
          "type": "address"
        }
      ],
      "name": "OwnershipTransferred",
      "type": "event"
    },
    {
      "constant": true,
      "inputs": [
        {
          "name": "oracleAddress",
          "type": "address"
        },
        {
          "name": "endpoint",
          "type": "bytes32"
        },
        {
          "name": "start",
          "type": "uint256"
        }
      ],
      "name": "_currentCostOfDot",
      "outputs": [
        {
          "name": "cost",
          "type": "uint256"
        }
      ],
      "payable": false,
      "stateMutability": "view",
      "type": "function"
    },
    {
      "constant": true,
      "inputs": [
        {
          "name": "oracleAddress",
          "type": "address"
        },
        {
          "name": "endpoint",
          "type": "bytes32"
        },
        {
          "name": "start",
          "type": "uint256"
        },
        {
          "name": "nDots",
          "type": "uint256"
        }
      ],
      "name": "_costOfNDots",
      "outputs": [
        {
          "name": "cost",
          "type": "uint256"
        }
      ],
      "payable": false,
      "stateMutability": "view",
      "type": "function"
    },
    {
      "constant": true,
      "inputs": [
        {
          "name": "oracleAddress",
          "type": "address"
        },
        {
          "name": "endpoint",
          "type": "bytes32"
        }
      ],
      "name": "_dotLimit",
      "outputs": [
        {
          "name": "",
          "type": "uint256"
        }
      ],
      "payable": false,
      "stateMutability": "view",
      "type": "function"
    }
  ],
  "bytecode": "0x608060405234801561001057600080fd5b506040516020806112608339810180604052602081101561003057600080fd5b810190808051906020019092919050505080336000806101000a81548173ffffffffffffffffffffffffffffffffffffffff021916908373ffffffffffffffffffffffffffffffffffffffff16021790555080600160006101000a81548173ffffffffffffffffffffffffffffffffffffffff021916908373ffffffffffffffffffffffffffffffffffffffff16021790555080600260006101000a81548173ffffffffffffffffffffffffffffffffffffffff021916908373ffffffffffffffffffffffffffffffffffffffff1602179055505061011361011960201b60201c565b5061023a565b600260009054906101000a900473ffffffffffffffffffffffffffffffffffffffff1673ffffffffffffffffffffffffffffffffffffffff1663358177736040518163ffffffff1660e01b81526004018080602001828103825260088152602001807f524547495354525900000000000000000000000000000000000000000000000081525060200191505060206040518083038186803b1580156101bd57600080fd5b505afa1580156101d1573d6000803e3d6000fd5b505050506040513d60208110156101e757600080fd5b8101908080519060200190929190505050600360006101000a81548173ffffffffffffffffffffffffffffffffffffffff021916908373ffffffffffffffffffffffffffffffffffffffff160217905550565b611017806102496000396000f3fe608060405234801561001057600080fd5b506004361061007d5760003560e01c80639cb8a26a1161005b5780639cb8a26a1461014c578063c1ca69c414610156578063ecca1fad146101b8578063f2fde38b146102245761007d565b8063197d66d5146100825780636e5ecdff146100f85780638da5cb5b14610102575b600080fd5b6100e26004803603608081101561009857600080fd5b81019080803573ffffffffffffffffffffffffffffffffffffffff169060200190929190803590602001909291908035906020019092919080359060200190929190505050610268565b6040518082815260200191505060405180910390f35b610100610534565b005b61010a610601565b604051808273ffffffffffffffffffffffffffffffffffffffff1673ffffffffffffffffffffffffffffffffffffffff16815260200191505060405180910390f35b610154610626565b005b6101a26004803603604081101561016c57600080fd5b81019080803573ffffffffffffffffffffffffffffffffffffffff169060200190929190803590602001909291905050506106b9565b6040518082815260200191505060405180910390f35b61020e600480360360608110156101ce57600080fd5b81019080803573ffffffffffffffffffffffffffffffffffffffff169060200190929190803590602001909291908035906020019092919050505061092f565b6040518082815260200191505060405180910390f35b6102666004803603602081101561023a57600080fd5b81019080803573ffffffffffffffffffffffffffffffffffffffff169060200190929190505050610947565b005b600080600360009054906101000a900473ffffffffffffffffffffffffffffffffffffffff1673ffffffffffffffffffffffffffffffffffffffff166387cd29a487876040518363ffffffff1660e01b8152600401808373ffffffffffffffffffffffffffffffffffffffff1673ffffffffffffffffffffffffffffffffffffffff1681526020018281526020019250505060206040518083038186803b15801561031257600080fd5b505afa158015610326573d6000803e3d6000fd5b505050506040513d602081101561033c57600080fd5b810190808051906020019092919050505090506060816040519080825280602002602001820160405280156103805781602001602082028038833980820191505090505b509050600360009054906101000a900473ffffffffffffffffffffffffffffffffffffffff1673ffffffffffffffffffffffffffffffffffffffff16632316a9ff88886040518363ffffffff1660e01b8152600401808373ffffffffffffffffffffffffffffffffffffffff1673ffffffffffffffffffffffffffffffffffffffff1681526020018281526020019250505060006040518083038186803b15801561042a57600080fd5b505afa15801561043e573d6000803e3d6000fd5b505050506040513d6000823e3d601f19601f82011682018060405250602081101561046857600080fd5b81019080805164010000000081111561048057600080fd5b8281019050602081018481111561049657600080fd5b81518560208202830111640100000000821117156104b357600080fd5b5050929190505050905060006104ca828787610a98565b90506000811215610526576040517f08c379a0000000000000000000000000000000000000000000000000000000008152600401808060200182810382526026815260200180610fa16026913960400191505060405180910390fd5b809350505050949350505050565b600160009054906101000a900473ffffffffffffffffffffffffffffffffffffffff1673ffffffffffffffffffffffffffffffffffffffff163373ffffffffffffffffffffffffffffffffffffffff16146105f7576040517f08c379a00000000000000000000000000000000000000000000000000000000081526004018080602001828103825260208152602001807f4572726f723a20436f6f7264696e61746f72204f6e6c792046756e6374696f6e81525060200191505060405180910390fd5b6105ff610be9565b565b6000809054906101000a900473ffffffffffffffffffffffffffffffffffffffff1681565b6000809054906101000a900473ffffffffffffffffffffffffffffffffffffffff1673ffffffffffffffffffffffffffffffffffffffff163373ffffffffffffffffffffffffffffffffffffffff161461067f57600080fd5b6000809054906101000a900473ffffffffffffffffffffffffffffffffffffffff1673ffffffffffffffffffffffffffffffffffffffff16ff5b600080600360009054906101000a900473ffffffffffffffffffffffffffffffffffffffff1673ffffffffffffffffffffffffffffffffffffffff166387cd29a485856040518363ffffffff1660e01b8152600401808373ffffffffffffffffffffffffffffffffffffffff1673ffffffffffffffffffffffffffffffffffffffff1681526020018281526020019250505060206040518083038186803b15801561076357600080fd5b505afa158015610777573d6000803e3d6000fd5b505050506040513d602081101561078d57600080fd5b810190808051906020019092919050505090506060816040519080825280602002602001820160405280156107d15781602001602082028038833980820191505090505b509050600360009054906101000a900473ffffffffffffffffffffffffffffffffffffffff1673ffffffffffffffffffffffffffffffffffffffff16632316a9ff86866040518363ffffffff1660e01b8152600401808373ffffffffffffffffffffffffffffffffffffffff1673ffffffffffffffffffffffffffffffffffffffff1681526020018281526020019250505060006040518083038186803b15801561087b57600080fd5b505afa15801561088f573d6000803e3d6000fd5b505050506040513d6000823e3d601f19601f8201168201806040525060208110156108b957600080fd5b8101908080516401000000008111156108d157600080fd5b828101905060208101848111156108e757600080fd5b815185602082028301116401000000008211171561090457600080fd5b5050929190505050905080600183038151811061091d57fe5b60200260200101519250505092915050565b600061093e8484846000610268565b90509392505050565b6000809054906101000a900473ffffffffffffffffffffffffffffffffffffffff1673ffffffffffffffffffffffffffffffffffffffff163373ffffffffffffffffffffffffffffffffffffffff16146109a057600080fd5b600073ffffffffffffffffffffffffffffffffffffffff168173ffffffffffffffffffffffffffffffffffffffff1614156109da57600080fd5b8073ffffffffffffffffffffffffffffffffffffffff166000809054906101000a900473ffffffffffffffffffffffffffffffffffffffff1673ffffffffffffffffffffffffffffffffffffffff167f8be0079c531659141344cd1fd0a4f28419497f9722a3daafe3b4186f6b6457e060405160405180910390a3806000806101000a81548173ffffffffffffffffffffffffffffffffffffffff021916908373ffffffffffffffffffffffffffffffffffffffff16021790555050565b60008060009050600080905085600187510381518110610ab457fe5b60200260200101518486011115610b33576040517f08c379a00000000000000000000000000000000000000000000000000000000081526004018080602001828103825260208152602001807f4572726f723a2046756e6374696f6e206e6f7420696e20646f74206c696d697481525060200191505060405180910390fd5b5b8551821015610bdf576000868381518110610b4b57fe5b6020026020010151905060008760018386010181518110610b6857fe5b602002602001015190506000600283860101905081881115610b8f57809450505050610b34565b610bad89868a858b8d0111610ba4578a610ba8565b8b86035b610d0a565b840193508187890111610bc7578395505050505050610be2565b60018883030187039650819750809450505050610b34565b50505b9392505050565b600260009054906101000a900473ffffffffffffffffffffffffffffffffffffffff1673ffffffffffffffffffffffffffffffffffffffff1663358177736040518163ffffffff1660e01b81526004018080602001828103825260088152602001807f524547495354525900000000000000000000000000000000000000000000000081525060200191505060206040518083038186803b158015610c8d57600080fd5b505afa158015610ca1573d6000803e3d6000fd5b505050506040513d6020811015610cb757600080fd5b8101908080519060200190929190505050600360006101000a81548173ffffffffffffffffffffffffffffffffffffffff021916908373ffffffffffffffffffffffffffffffffffffffff160217905550565b600080600090506000868681518110610d1f57fe5b6020026020010151905060006001870190506000828201905060008290505b81811015610d8a57610d5560018903848303610df4565b610d63888a01858403610df4565b038a8281518110610d7057fe5b602002602001015102850194508080600101915050610d3e565b506000841215610de5576040517f08c379a0000000000000000000000000000000000000000000000000000000008152600401808060200182810382526025815260200180610fc76025913960400191505060405180910390fd5b83945050505050949350505050565b600060068211158015610e08575060008210155b610e7a576040517f08c379a000000000000000000000000000000000000000000000000000000000815260040180806020018281038252601e8152602001807f4572726f723a20496e76616c696420506965636577697365204c6f676963000081525060200191505060405180910390fd5b6000821415610e8b57829050610f9a565b6001821415610eab57600260018401840281610ea357fe5b049050610f9a565b6002821415610ed3576006600184600202016001850185020281610ecb57fe5b049050610f9a565b6003821415610ef55760028060018501850281610eec57fe5b040a9050610f9a565b6004821415610f2c57601e600184600302858660030202010360018560020201600186018602020281610f2457fe5b049050610f9a565b6005821415610f55576001836002026002850a600202010360026001850185020a029050610f9a565b6006821415610f9557602a6001846003026003860a6006026004870a60030201030160018560020201600186018602020281610f8d57fe5b049050610f9a565b600090505b9291505056fe4572726f723a20436f7374206f6620646f74732063616e6e6f74206265206e656761746976654572726f723a20436f7374206d7573742062652067726561746572207468616e207a65726fa165627a7a723058205f42def5144d9ddf722d20cc236a8c502a3003341dbd8fdcf63caef33b6199b80029",
  "source": "pragma solidity ^0.5.8;\n\nimport \"../../../lib/lifecycle/Destructible.sol\";\nimport \"../../../lib/ownership/Upgradable.sol\";\nimport \"../../../lib/platform/PiecewiseLogic.sol\";\nimport \"../../registry/RegistryInterface.sol\";\nimport \"./CurrentCostInterface.sol\";\n\n\ncontract CurrentCost is Destructible, CurrentCostInterface, Upgradable {\n\n    RegistryInterface registry;\n\n    constructor(address c) Upgradable(c) public {\n        _updateDependencies();\n    }\n\n    function _updateDependencies() internal {\n        registry = RegistryInterface(coordinator.getContract(\"REGISTRY\"));\n    }\n\n    /// @dev calculates current cost of dot\n    /// @param oracleAddress oracle address\n    /// @param endpoint oracle endpoint\n    /// @param start nth dot to calculate price of\n    /// @return cost of next dot\n    function _currentCostOfDot(\n        address oracleAddress,\n        bytes32 endpoint,\n        uint256 start\n    )\n        public\n        view\n        returns (uint256 cost)\n    {\n        return _costOfNDots(oracleAddress, endpoint, start, 0);\n    }\n\n    /// @dev calculates cost of n dots\n    /// @param oracleAddress oracle address\n    /// @param endpoint oracle endpoint\n    /// @param start nth dot to start calculating price at\n    /// @param nDots to bond\n    /// @return cost of next dot\n    function _costOfNDots(\n        address oracleAddress,\n        bytes32 endpoint,\n        uint256 start,\n        uint256 nDots\n    )\n        public\n        view\n        returns (uint256 cost)\n    {\n        uint256 length = registry.getProviderCurveLength(oracleAddress,endpoint);\n        int[] memory curve = new int[](length);\n        curve = registry.getProviderCurve(oracleAddress, endpoint);\n\n        int res = PiecewiseLogic.evaluateFunction(curve, start, nDots);\n        require(res >= 0, \"Error: Cost of dots cannot be negative\");\n        return uint256(res);\n    }\n\n   function _dotLimit(\n        address oracleAddress,\n        bytes32 endpoint\n    )\n        public\n        view\n        returns (uint256)\n    {\n        uint256 length = registry.getProviderCurveLength(oracleAddress,endpoint);\n        int[] memory curve = new int[](length);\n        curve = registry.getProviderCurve(oracleAddress, endpoint);\n\n        return uint(curve[length-1]);\n    }\n}\n",
  "sourcePath": "/Users/moinuddin/Desktop/Zap Projects/main-market-template/contracts/platform/bondage/currentCost/CurrentCost.sol",
  "compiler": {
    "name": "solc",
    "version": "0.5.8+commit.23d335f2.Emscripten.clang"
  },
  "schemaVersion": "3.0.11",
  "updatedAt": "2019-06-24T03:26:27.669Z",
  "devdoc": {
    "methods": {
      "_costOfNDots(address,bytes32,uint256,uint256)": {
        "details": "calculates cost of n dots",
        "params": {
          "endpoint": "oracle endpoint",
          "nDots": "to bond",
          "oracleAddress": "oracle address",
          "start": "nth dot to start calculating price at"
        },
        "return": "cost of next dot"
      },
      "_currentCostOfDot(address,bytes32,uint256)": {
        "details": "calculates current cost of dot",
        "params": {
          "endpoint": "oracle endpoint",
          "oracleAddress": "oracle address",
          "start": "nth dot to calculate price of"
        },
        "return": "cost of next dot"
      },
      "transferOwnership(address)": {
        "details": "Allows the current owner to transfer control of the contract to a newOwner.",
        "params": {
          "newOwner": "The address to transfer ownership to."
        }
      }
    }
  },
  "userdoc": {
    "methods": {}
  }
}