{
  "contractName": "EthAdapter",
  "abi": [
    {
      "constant": true,
      "inputs": [],
      "name": "adapterRate",
      "outputs": [
        {
          "name": "",
          "type": "uint256"
        }
      ],
      "payable": false,
      "stateMutability": "view",
      "type": "function"
    },
    {
      "constant": true,
      "inputs": [],
      "name": "currentCost",
      "outputs": [
        {
          "name": "",
          "type": "address"
        }
      ],
      "payable": false,
      "stateMutability": "view",
      "type": "function"
    },
    {
      "constant": false,
      "inputs": [
        {
          "name": "name",
          "type": "string"
        },
        {
          "name": "symbol",
          "type": "string"
        }
      ],
      "name": "newToken",
      "outputs": [
        {
          "name": "tokenAddress",
          "type": "address"
        }
      ],
      "payable": false,
      "stateMutability": "nonpayable",
      "type": "function"
    },
    {
      "constant": true,
      "inputs": [
        {
          "name": "",
          "type": "bytes32"
        }
      ],
      "name": "curves",
      "outputs": [
        {
          "name": "",
          "type": "address"
        }
      ],
      "payable": false,
      "stateMutability": "view",
      "type": "function"
    },
    {
      "constant": true,
      "inputs": [],
      "name": "registry",
      "outputs": [
        {
          "name": "",
          "type": "address"
        }
      ],
      "payable": false,
      "stateMutability": "view",
      "type": "function"
    },
    {
      "constant": true,
      "inputs": [],
      "name": "owner",
      "outputs": [
        {
          "name": "",
          "type": "address"
        }
      ],
      "payable": false,
      "stateMutability": "view",
      "type": "function"
    },
    {
      "constant": true,
      "inputs": [],
      "name": "bondage",
      "outputs": [
        {
          "name": "",
          "type": "address"
        }
      ],
      "payable": false,
      "stateMutability": "view",
      "type": "function"
    },
    {
      "constant": true,
      "inputs": [
        {
          "name": "x",
          "type": "bytes32"
        }
      ],
      "name": "bytes32ToString",
      "outputs": [
        {
          "name": "",
          "type": "string"
        }
      ],
      "payable": false,
      "stateMutability": "pure",
      "type": "function"
    },
    {
      "constant": true,
      "inputs": [],
      "name": "coord",
      "outputs": [
        {
          "name": "",
          "type": "address"
        }
      ],
      "payable": false,
      "stateMutability": "view",
      "type": "function"
    },
    {
      "constant": false,
      "inputs": [
        {
          "name": "providerPubKey",
          "type": "uint256"
        },
        {
          "name": "providerTitle",
          "type": "bytes32"
        },
        {
          "name": "specifier",
          "type": "bytes32"
        },
        {
          "name": "symbol",
          "type": "bytes32"
        },
        {
          "name": "curve",
          "type": "int256[]"
        }
      ],
      "name": "initializeCurve",
      "outputs": [
        {
          "name": "",
          "type": "address"
        }
      ],
      "payable": false,
      "stateMutability": "nonpayable",
      "type": "function"
    },
    {
      "constant": true,
      "inputs": [],
      "name": "tokenFactory",
      "outputs": [
        {
          "name": "",
          "type": "address"
        }
      ],
      "payable": false,
      "stateMutability": "view",
      "type": "function"
    },
    {
      "constant": false,
      "inputs": [
        {
          "name": "newOwner",
          "type": "address"
        }
      ],
      "name": "transferOwnership",
      "outputs": [],
      "payable": false,
      "stateMutability": "nonpayable",
      "type": "function"
    },
    {
      "constant": true,
      "inputs": [],
      "name": "reserveToken",
      "outputs": [
        {
          "name": "",
          "type": "address"
        }
      ],
      "payable": false,
      "stateMutability": "view",
      "type": "function"
    },
    {
      "inputs": [
        {
          "name": "coordinator",
          "type": "address"
        },
        {
          "name": "tokenFactory",
          "type": "address"
        },
        {
          "name": "rate",
          "type": "uint256"
        }
      ],
      "payable": false,
      "stateMutability": "nonpayable",
      "type": "constructor"
    },
    {
      "anonymous": false,
      "inputs": [
        {
          "indexed": false,
          "name": "_sender",
          "type": "address"
        }
      ],
      "name": "MsgSender",
      "type": "event"
    },
    {
      "anonymous": false,
      "inputs": [
        {
          "indexed": false,
          "name": "tokenAddress",
          "type": "address"
        }
      ],
      "name": "DotTokenCreated",
      "type": "event"
    },
    {
      "anonymous": false,
      "inputs": [
        {
          "indexed": false,
          "name": "_address1",
          "type": "address"
        },
        {
          "indexed": false,
          "name": "address2",
          "type": "address"
        },
        {
          "indexed": false,
          "name": "_quant1",
          "type": "uint256"
        },
        {
          "indexed": false,
          "name": "_quant2",
          "type": "uint256"
        }
      ],
      "name": "Testing",
      "type": "event"
    },
    {
      "anonymous": false,
      "inputs": [
        {
          "indexed": false,
          "name": "q",
          "type": "uint256"
        }
      ],
      "name": "TestInt",
      "type": "event"
    },
    {
      "anonymous": false,
      "inputs": [
        {
          "indexed": true,
          "name": "previousOwner",
          "type": "address"
        },
        {
          "indexed": true,
          "name": "newOwner",
          "type": "address"
        }
      ],
      "name": "OwnershipTransferred",
      "type": "event"
    },
    {
      "constant": false,
      "inputs": [
        {
          "name": "wallet",
          "type": "address"
        },
        {
          "name": "specifier",
          "type": "bytes32"
        },
        {
          "name": "numDots",
          "type": "uint256"
        }
      ],
      "name": "ownerBond",
      "outputs": [],
      "payable": true,
      "stateMutability": "payable",
      "type": "function"
    },
    {
      "constant": false,
      "inputs": [
        {
          "name": "wallet",
          "type": "address"
        },
        {
          "name": "specifier",
          "type": "bytes32"
        },
        {
          "name": "quantity",
          "type": "uint256"
        }
      ],
      "name": "ownerUnbond",
      "outputs": [],
      "payable": false,
      "stateMutability": "nonpayable",
      "type": "function"
    },
    {
      "constant": false,
      "inputs": [
        {
          "name": "specifier",
          "type": "bytes32"
        },
        {
          "name": "quantity",
          "type": "uint256"
        }
      ],
      "name": "getAdapterPrice",
      "outputs": [
        {
          "name": "",
          "type": "uint256"
        }
      ],
      "payable": false,
      "stateMutability": "nonpayable",
      "type": "function"
    }
  ],
  "bytecode": "0x60806040523480156200001157600080fd5b50604051606080620027ee833981018060405260608110156200003357600080fd5b810190808051906020019092919080519060200190929190805190602001909291905050508282336000806101000a81548173ffffffffffffffffffffffffffffffffffffffff021916908373ffffffffffffffffffffffffffffffffffffffff16021790555081600260006101000a81548173ffffffffffffffffffffffffffffffffffffffff021916908373ffffffffffffffffffffffffffffffffffffffff160217905550600260009054906101000a900473ffffffffffffffffffffffffffffffffffffffff1673ffffffffffffffffffffffffffffffffffffffff1663358177736040518163ffffffff1660e01b81526004018080602001828103825260098152602001807f5a41505f544f4b454e000000000000000000000000000000000000000000000081525060200191505060206040518083038186803b1580156200018057600080fd5b505afa15801562000195573d6000803e3d6000fd5b505050506040513d6020811015620001ac57600080fd5b8101908080519060200190929190505050600160006101000a81548173ffffffffffffffffffffffffffffffffffffffff021916908373ffffffffffffffffffffffffffffffffffffffff160217905550600160009054906101000a900473ffffffffffffffffffffffffffffffffffffffff1673ffffffffffffffffffffffffffffffffffffffff1663095ea7b3600260009054906101000a900473ffffffffffffffffffffffffffffffffffffffff1673ffffffffffffffffffffffffffffffffffffffff1663358177736040518163ffffffff1660e01b81526004018080602001828103825260078152602001807f424f4e444147450000000000000000000000000000000000000000000000000081525060200191505060206040518083038186803b158015620002e057600080fd5b505afa158015620002f5573d6000803e3d6000fd5b505050506040513d60208110156200030c57600080fd5b81019080805190602001909291905050506000196040518363ffffffff1660e01b8152600401808373ffffffffffffffffffffffffffffffffffffffff1673ffffffffffffffffffffffffffffffffffffffff16815260200182815260200192505050602060405180830381600087803b1580156200038a57600080fd5b505af11580156200039f573d6000803e3d6000fd5b505050506040513d6020811015620003b657600080fd5b81019080805190602001909291905050505080600360006101000a81548173ffffffffffffffffffffffffffffffffffffffff021916908373ffffffffffffffffffffffffffffffffffffffff1602179055505050806008819055505050506123c980620004256000396000f3fe6080604052600436106100f35760003560e01c80638ed200211161008a578063e77772fe11610059578063e77772fe1461078e578063f1d6fd60146107e5578063f2fde38b1461083e578063f4325d671461088f576100f3565b80638ed20021146104ff5780639201de55146105565780639495c25a1461060a578063afcd23f014610661576100f3565b806366903e80116100c657806366903e80146103715780636fbe28d1146103ec5780637b103999146104515780638da5cb5b146104a8576100f3565b80631d209335146100f8578063346ee74114610123578063368dde4b1461017b5780634629ffea146101d2575b600080fd5b34801561010457600080fd5b5061010d6108e6565b6040518082815260200191505060405180910390f35b6101796004803603606081101561013957600080fd5b81019080803573ffffffffffffffffffffffffffffffffffffffff16906020019092919080359060200190929190803590602001909291905050506108ec565b005b34801561018757600080fd5b506101906109b8565b604051808273ffffffffffffffffffffffffffffffffffffffff1673ffffffffffffffffffffffffffffffffffffffff16815260200191505060405180910390f35b3480156101de57600080fd5b5061032f600480360360408110156101f557600080fd5b810190808035906020019064010000000081111561021257600080fd5b82018360208201111561022457600080fd5b8035906020019184600183028401116401000000008311171561024657600080fd5b91908080601f016020809104026020016040519081016040528093929190818152602001838380828437600081840152601f19601f820116905080830192505050505050509192919290803590602001906401000000008111156102a957600080fd5b8201836020820111156102bb57600080fd5b803590602001918460018302840111640100000000831117156102dd57600080fd5b91908080601f016020809104026020016040519081016040528093929190818152602001838380828437600081840152601f19601f8201169050808301925050505050505091929192905050506109de565b604051808273ffffffffffffffffffffffffffffffffffffffff1673ffffffffffffffffffffffffffffffffffffffff16815260200191505060405180910390f35b34801561037d57600080fd5b506103aa6004803603602081101561039457600080fd5b8101908080359060200190929190505050610b72565b604051808273ffffffffffffffffffffffffffffffffffffffff1673ffffffffffffffffffffffffffffffffffffffff16815260200191505060405180910390f35b3480156103f857600080fd5b5061044f6004803603606081101561040f57600080fd5b81019080803573ffffffffffffffffffffffffffffffffffffffff1690602001909291908035906020019092919080359060200190929190505050610ba5565b005b34801561045d57600080fd5b50610466610c0e565b604051808273ffffffffffffffffffffffffffffffffffffffff1673ffffffffffffffffffffffffffffffffffffffff16815260200191505060405180910390f35b3480156104b457600080fd5b506104bd610c34565b604051808273ffffffffffffffffffffffffffffffffffffffff1673ffffffffffffffffffffffffffffffffffffffff16815260200191505060405180910390f35b34801561050b57600080fd5b50610514610c59565b604051808273ffffffffffffffffffffffffffffffffffffffff1673ffffffffffffffffffffffffffffffffffffffff16815260200191505060405180910390f35b34801561056257600080fd5b5061058f6004803603602081101561057957600080fd5b8101908080359060200190929190505050610c7f565b6040518080602001828103825283818151815260200191508051906020019080838360005b838110156105cf5780820151818401526020810190506105b4565b50505050905090810190601f1680156105fc5780820380516001836020036101000a031916815260200191505b509250505060405180910390f35b34801561061657600080fd5b5061061f610ce4565b604051808273ffffffffffffffffffffffffffffffffffffffff1673ffffffffffffffffffffffffffffffffffffffff16815260200191505060405180910390f35b34801561066d57600080fd5b5061074c600480360360a081101561068457600080fd5b8101908080359060200190929190803590602001909291908035906020019092919080359060200190929190803590602001906401000000008111156106c957600080fd5b8201836020820111156106db57600080fd5b803590602001918460208302840111640100000000831117156106fd57600080fd5b919080806020026020016040519081016040528093929190818152602001838360200280828437600081840152601f19601f820116905080830192505050505050509192919290505050610d0a565b604051808273ffffffffffffffffffffffffffffffffffffffff1673ffffffffffffffffffffffffffffffffffffffff16815260200191505060405180910390f35b34801561079a57600080fd5b506107a3611264565b604051808273ffffffffffffffffffffffffffffffffffffffff1673ffffffffffffffffffffffffffffffffffffffff16815260200191505060405180910390f35b3480156107f157600080fd5b506108286004803603604081101561080857600080fd5b81019080803590602001909291908035906020019092919050505061128a565b6040518082815260200191505060405180910390f35b34801561084a57600080fd5b5061088d6004803603602081101561086157600080fd5b81019080803573ffffffffffffffffffffffffffffffffffffffff1690602001909291905050506114a7565b005b34801561089b57600080fd5b506108a46115f8565b604051808273ffffffffffffffffffffffffffffffffffffffff1673ffffffffffffffffffffffffffffffffffffffff16815260200191505060405180910390f35b60085481565b6000809054906101000a900473ffffffffffffffffffffffffffffffffffffffff1673ffffffffffffffffffffffffffffffffffffffff163373ffffffffffffffffffffffffffffffffffffffff161461094557600080fd5b7f7bf2655c5b27bca5462f1f973c316c9537b2da6083e494b623f3313ad847ec0833604051808273ffffffffffffffffffffffffffffffffffffffff1673ffffffffffffffffffffffffffffffffffffffff16815260200191505060405180910390a16109b383838361161e565b505050565b600560009054906101000a900473ffffffffffffffffffffffffffffffffffffffff1681565b600080600360009054906101000a900473ffffffffffffffffffffffffffffffffffffffff1673ffffffffffffffffffffffffffffffffffffffff1663198e2b8a85856040518363ffffffff1660e01b8152600401808060200180602001838103835285818151815260200191508051906020019080838360005b83811015610a74578082015181840152602081019050610a59565b50505050905090810190601f168015610aa15780820380516001836020036101000a031916815260200191505b50838103825284818151815260200191508051906020019080838360005b83811015610ada578082015181840152602081019050610abf565b50505050905090810190601f168015610b075780820380516001836020036101000a031916815260200191505b50945050505050602060405180830381600087803b158015610b2857600080fd5b505af1158015610b3c573d6000803e3d6000fd5b505050506040513d6020811015610b5257600080fd5b810190808051906020019092919050505090508091508191505092915050565b60046020528060005260406000206000915054906101000a900473ffffffffffffffffffffffffffffffffffffffff1681565b6000809054906101000a900473ffffffffffffffffffffffffffffffffffffffff1673ffffffffffffffffffffffffffffffffffffffff163373ffffffffffffffffffffffffffffffffffffffff1614610bfe57600080fd5b610c09838383611d34565b505050565b600660009054906101000a900473ffffffffffffffffffffffffffffffffffffffff1681565b6000809054906101000a900473ffffffffffffffffffffffffffffffffffffffff1681565b600760009054906101000a900473ffffffffffffffffffffffffffffffffffffffff1681565b60608060206040519080825280601f01601f191660200182016040528015610cb65781602001600182028038833980820191505090505b5090508260405160200180828152602001915050604051602081830303815290604052905080915050919050565b600260009054906101000a900473ffffffffffffffffffffffffffffffffffffffff1681565b60008073ffffffffffffffffffffffffffffffffffffffff166004600086815260200190815260200160002060009054906101000a900473ffffffffffffffffffffffffffffffffffffffff1673ffffffffffffffffffffffffffffffffffffffff1614610de0576040517f08c379a000000000000000000000000000000000000000000000000000000000815260040180806020018281038252601e8152602001807f43757276652073706563696669657220616c726561647920657869737473000081525060200191505060405180910390fd5b6000600260009054906101000a900473ffffffffffffffffffffffffffffffffffffffff1673ffffffffffffffffffffffffffffffffffffffff1663358177736040518163ffffffff1660e01b81526004018080602001828103825260088152602001807f524547495354525900000000000000000000000000000000000000000000000081525060200191505060206040518083038186803b158015610e8657600080fd5b505afa158015610e9a573d6000803e3d6000fd5b505050506040513d6020811015610eb057600080fd5b810190808051906020019092919050505090508073ffffffffffffffffffffffffffffffffffffffff1663186b79c9306040518263ffffffff1660e01b8152600401808273ffffffffffffffffffffffffffffffffffffffff1673ffffffffffffffffffffffffffffffffffffffff16815260200191505060206040518083038186803b158015610f4057600080fd5b505afa158015610f54573d6000803e3d6000fd5b505050506040513d6020811015610f6a57600080fd5b8101908080519060200190929190505050611017578073ffffffffffffffffffffffffffffffffffffffff1663af87c83388886040518363ffffffff1660e01b81526004018083815260200182815260200192505050602060405180830381600087803b158015610fda57600080fd5b505af1158015610fee573d6000803e3d6000fd5b505050506040513d602081101561100457600080fd5b8101908080519060200190929190505050505b8073ffffffffffffffffffffffffffffffffffffffff1663238b3aed8685306040518463ffffffff1660e01b815260040180848152602001806020018373ffffffffffffffffffffffffffffffffffffffff1673ffffffffffffffffffffffffffffffffffffffff168152602001828103825284818151815260200191508051906020019060200280838360005b838110156110c05780820151818401526020810190506110a5565b50505050905001945050505050602060405180830381600087803b1580156110e757600080fd5b505af11580156110fb573d6000803e3d6000fd5b505050506040513d602081101561111157600080fd5b81019080805190602001909291905050505061113d61112f86610c7f565b61113886610c7f565b6109de565b6004600087815260200190815260200160002060006101000a81548173ffffffffffffffffffffffffffffffffffffffff021916908373ffffffffffffffffffffffffffffffffffffffff1602179055507f6c98c7e1fb155d4c2c1f008682fd94fb74d1c9667207aaaa9ab65cee2b38ea7a6004600087815260200190815260200160002060009054906101000a900473ffffffffffffffffffffffffffffffffffffffff16604051808273ffffffffffffffffffffffffffffffffffffffff1673ffffffffffffffffffffffffffffffffffffffff16815260200191505060405180910390a16004600086815260200190815260200160002060009054906101000a900473ffffffffffffffffffffffffffffffffffffffff1691505095945050505050565b600360009054906101000a900473ffffffffffffffffffffffffffffffffffffffff1681565b6000600260009054906101000a900473ffffffffffffffffffffffffffffffffffffffff1673ffffffffffffffffffffffffffffffffffffffff1663358177736040518163ffffffff1660e01b81526004018080602001828103825260078152602001807f424f4e444147450000000000000000000000000000000000000000000000000081525060200191505060206040518083038186803b15801561133057600080fd5b505afa158015611344573d6000803e3d6000fd5b505050506040513d602081101561135a57600080fd5b8101908080519060200190929190505050600760006101000a81548173ffffffffffffffffffffffffffffffffffffffff021916908373ffffffffffffffffffffffffffffffffffffffff1602179055506000600760009054906101000a900473ffffffffffffffffffffffffffffffffffffffff1673ffffffffffffffffffffffffffffffffffffffff1663b6105f153086866040518463ffffffff1660e01b8152600401808473ffffffffffffffffffffffffffffffffffffffff1673ffffffffffffffffffffffffffffffffffffffff168152602001838152602001828152602001935050505060206040518083038186803b15801561145c57600080fd5b505afa158015611470573d6000803e3d6000fd5b505050506040513d602081101561148657600080fd5b81019080805190602001909291905050509050600854810291505092915050565b6000809054906101000a900473ffffffffffffffffffffffffffffffffffffffff1673ffffffffffffffffffffffffffffffffffffffff163373ffffffffffffffffffffffffffffffffffffffff161461150057600080fd5b600073ffffffffffffffffffffffffffffffffffffffff168173ffffffffffffffffffffffffffffffffffffffff16141561153a57600080fd5b8073ffffffffffffffffffffffffffffffffffffffff166000809054906101000a900473ffffffffffffffffffffffffffffffffffffffff1673ffffffffffffffffffffffffffffffffffffffff167f8be0079c531659141344cd1fd0a4f28419497f9722a3daafe3b4186f6b6457e060405160405180910390a3806000806101000a81548173ffffffffffffffffffffffffffffffffffffffff021916908373ffffffffffffffffffffffffffffffffffffffff16021790555050565b600160009054906101000a900473ffffffffffffffffffffffffffffffffffffffff1681565b600260009054906101000a900473ffffffffffffffffffffffffffffffffffffffff1673ffffffffffffffffffffffffffffffffffffffff1663358177736040518163ffffffff1660e01b81526004018080602001828103825260078152602001807f424f4e444147450000000000000000000000000000000000000000000000000081525060200191505060206040518083038186803b1580156116c257600080fd5b505afa1580156116d6573d6000803e3d6000fd5b505050506040513d60208110156116ec57600080fd5b8101908080519060200190929190505050600760006101000a81548173ffffffffffffffffffffffffffffffffffffffff021916908373ffffffffffffffffffffffffffffffffffffffff1602179055506000600760009054906101000a900473ffffffffffffffffffffffffffffffffffffffff1673ffffffffffffffffffffffffffffffffffffffff16631d7b5e2230856040518363ffffffff1660e01b8152600401808373ffffffffffffffffffffffffffffffffffffffff1673ffffffffffffffffffffffffffffffffffffffff1681526020018281526020019250505060206040518083038186803b1580156117e657600080fd5b505afa1580156117fa573d6000803e3d6000fd5b505050506040513d602081101561181057600080fd5b810190808051906020019092919050505090506000600260009054906101000a900473ffffffffffffffffffffffffffffffffffffffff1673ffffffffffffffffffffffffffffffffffffffff1663358177736040518163ffffffff1660e01b815260040180806020018281038252600c8152602001807f43555252454e545f434f5354000000000000000000000000000000000000000081525060200191505060206040518083038186803b1580156118c957600080fd5b505afa1580156118dd573d6000803e3d6000fd5b505050506040513d60208110156118f357600080fd5b8101908080519060200190929190505050905060008173ffffffffffffffffffffffffffffffffffffffff1663197d66d5308760018701600189036040518563ffffffff1660e01b8152600401808573ffffffffffffffffffffffffffffffffffffffff1673ffffffffffffffffffffffffffffffffffffffff16815260200184815260200183815260200182815260200194505050505060206040518083038186803b1580156119a357600080fd5b505afa1580156119b7573d6000803e3d6000fd5b505050506040513d60208110156119cd57600080fd5b810190808051906020019092919050505090506119ea858561128a565b341015611a42576040517f08c379a000000000000000000000000000000000000000000000000000000000815260040180806020018281038252603081526020018061236e6030913960400191505060405180910390fd5b600160009054906101000a900473ffffffffffffffffffffffffffffffffffffffff1673ffffffffffffffffffffffffffffffffffffffff1663095ea7b3600760009054906101000a900473ffffffffffffffffffffffffffffffffffffffff16836040518363ffffffff1660e01b8152600401808373ffffffffffffffffffffffffffffffffffffffff1673ffffffffffffffffffffffffffffffffffffffff16815260200182815260200192505050602060405180830381600087803b158015611b0d57600080fd5b505af1158015611b21573d6000803e3d6000fd5b505050506040513d6020811015611b3757600080fd5b810190808051906020019092919050505050600760009054906101000a900473ffffffffffffffffffffffffffffffffffffffff1673ffffffffffffffffffffffffffffffffffffffff166399275cc73087876040518463ffffffff1660e01b8152600401808473ffffffffffffffffffffffffffffffffffffffff1673ffffffffffffffffffffffffffffffffffffffff1681526020018381526020018281526020019350505050602060405180830381600087803b158015611bfa57600080fd5b505af1158015611c0e573d6000803e3d6000fd5b505050506040513d6020811015611c2457600080fd5b8101908080519060200190929190505050506004600086815260200190815260200160002060009054906101000a900473ffffffffffffffffffffffffffffffffffffffff1673ffffffffffffffffffffffffffffffffffffffff166340c10f1987866040518363ffffffff1660e01b8152600401808373ffffffffffffffffffffffffffffffffffffffff1673ffffffffffffffffffffffffffffffffffffffff16815260200182815260200192505050602060405180830381600087803b158015611cf057600080fd5b505af1158015611d04573d6000803e3d6000fd5b505050506040513d6020811015611d1a57600080fd5b810190808051906020019092919050505050505050505050565b600260009054906101000a900473ffffffffffffffffffffffffffffffffffffffff1673ffffffffffffffffffffffffffffffffffffffff1663358177736040518163ffffffff1660e01b81526004018080602001828103825260078152602001807f424f4e444147450000000000000000000000000000000000000000000000000081525060200191505060206040518083038186803b158015611dd857600080fd5b505afa158015611dec573d6000803e3d6000fd5b505050506040513d6020811015611e0257600080fd5b8101908080519060200190929190505050600760006101000a81548173ffffffffffffffffffffffffffffffffffffffff021916908373ffffffffffffffffffffffffffffffffffffffff1602179055506000600760009054906101000a900473ffffffffffffffffffffffffffffffffffffffff1673ffffffffffffffffffffffffffffffffffffffff16631d7b5e2230856040518363ffffffff1660e01b8152600401808373ffffffffffffffffffffffffffffffffffffffff1673ffffffffffffffffffffffffffffffffffffffff1681526020018281526020019250505060206040518083038186803b158015611efc57600080fd5b505afa158015611f10573d6000803e3d6000fd5b505050506040513d6020811015611f2657600080fd5b81019080805190602001909291905050509050600260009054906101000a900473ffffffffffffffffffffffffffffffffffffffff1673ffffffffffffffffffffffffffffffffffffffff1663358177736040518163ffffffff1660e01b815260040180806020018281038252600c8152602001807f43555252454e545f434f5354000000000000000000000000000000000000000081525060200191505060206040518083038186803b158015611fdd57600080fd5b505afa158015611ff1573d6000803e3d6000fd5b505050506040513d602081101561200757600080fd5b8101908080519060200190929190505050600560006101000a81548173ffffffffffffffffffffffffffffffffffffffff021916908373ffffffffffffffffffffffffffffffffffffffff1602179055506000600560009054906101000a900473ffffffffffffffffffffffffffffffffffffffff1673ffffffffffffffffffffffffffffffffffffffff1663197d66d53086866001870103600188036040518563ffffffff1660e01b8152600401808573ffffffffffffffffffffffffffffffffffffffff1673ffffffffffffffffffffffffffffffffffffffff16815260200184815260200183815260200182815260200194505050505060206040518083038186803b15801561211957600080fd5b505afa15801561212d573d6000803e3d6000fd5b505050506040513d602081101561214357600080fd5b8101908080519060200190929190505050905060006004600086815260200190815260200160002060009054906101000a900473ffffffffffffffffffffffffffffffffffffffff169050600760009054906101000a900473ffffffffffffffffffffffffffffffffffffffff1673ffffffffffffffffffffffffffffffffffffffff1663a06fe7753087876040518463ffffffff1660e01b8152600401808473ffffffffffffffffffffffffffffffffffffffff1673ffffffffffffffffffffffffffffffffffffffff1681526020018381526020018281526020019350505050602060405180830381600087803b15801561223f57600080fd5b505af1158015612253573d6000803e3d6000fd5b505050506040513d602081101561226957600080fd5b8101908080519060200190929190505050508073ffffffffffffffffffffffffffffffffffffffff166379cc679087866040518363ffffffff1660e01b8152600401808373ffffffffffffffffffffffffffffffffffffffff1673ffffffffffffffffffffffffffffffffffffffff16815260200182815260200192505050600060405180830381600087803b15801561230257600080fd5b505af1158015612316573d6000803e3d6000fd5b505050508573ffffffffffffffffffffffffffffffffffffffff166108fc60085484029081150290604051600060405180830381858888f19350505050158015612364573d6000803e3d6000fd5b5050505050505056fe4e6f7420656e6f756768206574682073656e7420666f7220726571756573746564206e756d626572206f6620646f7473a165627a7a72305820aa5d29138114113326919f5b5d539fecbc5107152db445c6da9b0f24b4dfd97e0029",
  "source": "pragma solidity ^0.5.8;\n\nimport \"../../platform/bondage/currentCost/CurrentCostInterface.sol\";\nimport \"./ERCDotFactory.sol\";\n\ncontract EthAdapter is ERCDotFactory {\n\n    CurrentCostInterface public currentCost;\n    RegistryInterface public registry;\n    BondageInterface public bondage;\n\n    uint public adapterRate;\n\n    event MsgSender(address _sender);\n\n    constructor(address coordinator, address tokenFactory, uint256 rate)\n    ERCDotFactory(coordinator, tokenFactory) public {\n        adapterRate = rate;\n    }\n\n    function setAdapterRate(uint rate) internal {\n        //children must set this\n        adapterRate = rate;\n    }\n\n    function ownerBond(address wallet, bytes32 specifier, uint numDots) public payable onlyOwner {\n        emit MsgSender(msg.sender);\n        bond(wallet, specifier, numDots);\n    }\n\n    function ownerUnbond(address payable wallet, bytes32 specifier, uint quantity) public onlyOwner {\n        unbond(wallet, specifier, quantity);\n    }\n\n    //Override\n    function bond(address wallet, bytes32 specifier, uint quantity) internal {\n\n        bondage = BondageInterface(coord.getContract(\"BONDAGE\"));\n        uint256 issued = bondage.getDotsIssued(address(this), specifier);\n\n        CurrentCostInterface cost = CurrentCostInterface(coord.getContract(\"CURRENT_COST\"));\n        uint256 numReserve = cost._costOfNDots(address(this), specifier, issued + 1, quantity - 1);\n\n        if(msg.value < getAdapterPrice(specifier, quantity)){\n            revert(\"Not enough eth sent for requested number of dots\");\n        }\n\n        reserveToken.approve(address(bondage), numReserve);\n        bondage.bond(address(this), specifier, quantity);\n\n        FactoryTokenInterface(curves[specifier]).mint(wallet, quantity);\n    }\n\n    //Override\n    function unbond(address payable wallet, bytes32 specifier, uint quantity) internal {\n\n        bondage = BondageInterface(coord.getContract(\"BONDAGE\"));\n        uint issued = bondage.getDotsIssued(address(this), specifier);\n\n        currentCost = CurrentCostInterface(coord.getContract(\"CURRENT_COST\"));\n        uint reserveCost = currentCost._costOfNDots(address(this), specifier, issued + 1 - quantity, quantity - 1);\n        FactoryTokenInterface tok = FactoryTokenInterface(curves[specifier]);\n\n        //unbond dots\n        bondage.unbond(address(this), specifier, quantity);\n        //burn dot backed token\n        tok.burnFrom(wallet, quantity);\n        //send wallet eth\n        wallet.transfer(reserveCost * adapterRate);\n    }\n\n    function getAdapterPrice(bytes32 specifier, uint quantity) public returns(uint){\n        bondage = BondageInterface(coord.getContract(\"BONDAGE\"));\n        uint reserveAmount = bondage.calcZapForDots(address(this), specifier, quantity);\n        return reserveAmount * adapterRate;\n    }\n}\n",
  "sourcePath": "/Users/moinuddin/Desktop/Zap Projects/main-market-template/contracts/lib/platform/EthAdapter.sol",
  "compiler": {
    "name": "solc",
    "version": "0.5.8+commit.23d335f2.Emscripten.clang"
  },
  "schemaVersion": "3.0.11",
  "updatedAt": "2019-06-24T03:26:20.533Z",
  "devdoc": {
    "methods": {
      "transferOwnership(address)": {
        "details": "Allows the current owner to transfer control of the contract to a newOwner.",
        "params": {
          "newOwner": "The address to transfer ownership to."
        }
      }
    }
  },
  "userdoc": {
    "methods": {}
  }
}