{
  "contractName": "Faucet",
  "abi": [
    {
      "constant": true,
      "inputs": [],
      "name": "rate",
      "outputs": [
        {
          "name": "",
          "type": "uint256"
        }
      ],
      "payable": false,
      "stateMutability": "view",
      "type": "function"
    },
    {
      "constant": true,
      "inputs": [],
      "name": "owner",
      "outputs": [
        {
          "name": "",
          "type": "address"
        }
      ],
      "payable": false,
      "stateMutability": "view",
      "type": "function"
    },
    {
      "inputs": [
        {
          "name": "_token",
          "type": "address"
        }
      ],
      "payable": false,
      "stateMutability": "nonpayable",
      "type": "constructor"
    },
    {
      "anonymous": false,
      "inputs": [
        {
          "indexed": true,
          "name": "_buyer",
          "type": "address"
        },
        {
          "indexed": true,
          "name": "_amount",
          "type": "uint256"
        },
        {
          "indexed": true,
          "name": "_rate",
          "type": "uint256"
        }
      ],
      "name": "BUYZAP",
      "type": "event"
    },
    {
      "anonymous": false,
      "inputs": [
        {
          "indexed": false,
          "name": "n1",
          "type": "uint256"
        },
        {
          "indexed": false,
          "name": "n2",
          "type": "uint256"
        }
      ],
      "name": "Log",
      "type": "event"
    },
    {
      "constant": false,
      "inputs": [],
      "name": "buyZap",
      "outputs": [],
      "payable": true,
      "stateMutability": "payable",
      "type": "function"
    },
    {
      "constant": false,
      "inputs": [],
      "name": "withdrawTok",
      "outputs": [],
      "payable": false,
      "stateMutability": "nonpayable",
      "type": "function"
    },
    {
      "constant": false,
      "inputs": [],
      "name": "withdrawEther",
      "outputs": [],
      "payable": false,
      "stateMutability": "nonpayable",
      "type": "function"
    }
  ],
  "bytecode": "0x60806040526103e860025534801561001657600080fd5b506040516020806107788339810180604052602081101561003657600080fd5b810190808051906020019092919050505033600160006101000a81548173ffffffffffffffffffffffffffffffffffffffff021916908373ffffffffffffffffffffffffffffffffffffffff160217905550806000806101000a81548173ffffffffffffffffffffffffffffffffffffffff021916908373ffffffffffffffffffffffffffffffffffffffff160217905550506106a0806100d86000396000f3fe60806040526004361061004a5760003560e01c80630f33a2a91461004f5780632c4e722e146100665780637362377b1461009157806385a33e75146100a85780638da5cb5b146100b2575b600080fd5b34801561005b57600080fd5b50610064610109565b005b34801561007257600080fd5b5061007b610343565b6040518082815260200191505060405180910390f35b34801561009d57600080fd5b506100a6610349565b005b6100b0610425565b005b3480156100be57600080fd5b506100c761064e565b604051808273ffffffffffffffffffffffffffffffffffffffff1673ffffffffffffffffffffffffffffffffffffffff16815260200191505060405180910390f35b600160009054906101000a900473ffffffffffffffffffffffffffffffffffffffff1673ffffffffffffffffffffffffffffffffffffffff163373ffffffffffffffffffffffffffffffffffffffff161461016357600080fd5b6000809054906101000a900473ffffffffffffffffffffffffffffffffffffffff1673ffffffffffffffffffffffffffffffffffffffff1663a9059cbb600160009054906101000a900473ffffffffffffffffffffffffffffffffffffffff166000809054906101000a900473ffffffffffffffffffffffffffffffffffffffff1673ffffffffffffffffffffffffffffffffffffffff166370a08231306040518263ffffffff1660e01b8152600401808273ffffffffffffffffffffffffffffffffffffffff1673ffffffffffffffffffffffffffffffffffffffff16815260200191505060206040518083038186803b15801561026157600080fd5b505afa158015610275573d6000803e3d6000fd5b505050506040513d602081101561028b57600080fd5b81019080805190602001909291905050506040518363ffffffff1660e01b8152600401808373ffffffffffffffffffffffffffffffffffffffff1673ffffffffffffffffffffffffffffffffffffffff16815260200182815260200192505050602060405180830381600087803b15801561030557600080fd5b505af1158015610319573d6000803e3d6000fd5b505050506040513d602081101561032f57600080fd5b810190808051906020019092919050505050565b60025481565b600160009054906101000a900473ffffffffffffffffffffffffffffffffffffffff1673ffffffffffffffffffffffffffffffffffffffff163373ffffffffffffffffffffffffffffffffffffffff16146103a357600080fd5b600160009054906101000a900473ffffffffffffffffffffffffffffffffffffffff1673ffffffffffffffffffffffffffffffffffffffff166108fc3073ffffffffffffffffffffffffffffffffffffffff16319081150290604051600060405180830381858888f19350505050158015610422573d6000803e3d6000fd5b50565b6000341161043257600080fd5b6000600254340290506000809054906101000a900473ffffffffffffffffffffffffffffffffffffffff1673ffffffffffffffffffffffffffffffffffffffff166370a08231306040518263ffffffff1660e01b8152600401808273ffffffffffffffffffffffffffffffffffffffff1673ffffffffffffffffffffffffffffffffffffffff16815260200191505060206040518083038186803b1580156104d957600080fd5b505afa1580156104ed573d6000803e3d6000fd5b505050506040513d602081101561050357600080fd5b810190808051906020019092919050505081111561052057600080fd5b6000809054906101000a900473ffffffffffffffffffffffffffffffffffffffff1673ffffffffffffffffffffffffffffffffffffffff1663a9059cbb33836040518363ffffffff1660e01b8152600401808373ffffffffffffffffffffffffffffffffffffffff1673ffffffffffffffffffffffffffffffffffffffff16815260200182815260200192505050602060405180830381600087803b1580156105c857600080fd5b505af11580156105dc573d6000803e3d6000fd5b505050506040513d60208110156105f257600080fd5b810190808051906020019092919050505050600254813373ffffffffffffffffffffffffffffffffffffffff167f46a678f82b3e0eafe7564f8c981cd0f62c33d33d29ecac048008ca14ecd0997a60405160405180910390a450565b600160009054906101000a900473ffffffffffffffffffffffffffffffffffffffff168156fea165627a7a72305820a6c6c7c5543c9a6da172b2eb0b3aad11e25ec8c9ee94c5a5591d8452023f24470029",
  "source": "pragma solidity ^0.5.8;\n\ncontract Token {\n    function transfer(address to, uint256 amount) public returns (bool);\n    function balanceOf(address addr) public view returns (uint256);\n}\n\ncontract Faucet {\n    Token token;\n    address payable public owner;\n    uint256 public rate = 1000; // 1 ETH = 1000 ZAP\n    event BUYZAP(address indexed _buyer, uint256 indexed _amount, uint indexed _rate);\n\n    // 1: 1000 ratio\n\n    modifier ownerOnly {\n        require(msg.sender == owner);\n        _;\n    }\n\n    constructor(address _token) public {\n        owner = msg.sender;\n        token = Token(_token);\n    }\n\n    event Log(uint256 n1, uint256 n2);\n\n    function buyZap() public payable {\n        require(msg.value > 0);\n        uint256 amt = msg.value * rate;\n        require(amt <= token.balanceOf(address(this)));\n        token.transfer(msg.sender, amt);\n        emit BUYZAP(msg.sender,amt,rate);\n    }\n\n\n    function withdrawTok() public ownerOnly {\n        token.transfer(owner, token.balanceOf(address(this)));\n    }\n    function withdrawEther() public ownerOnly {\n        owner.transfer(address(this).balance);\n    }\n}\n",
  "sourcePath": "/Users/moinuddin/Desktop/Zap Projects/main-market-template/contracts/token/Faucet.sol",
  "compiler": {
    "name": "solc",
    "version": "0.5.8+commit.23d335f2.Emscripten.clang"
  },
  "schemaVersion": "3.0.11",
  "updatedAt": "2019-06-24T03:26:27.721Z",
  "devdoc": {
    "methods": {}
  },
  "userdoc": {
    "methods": {}
  }
}