{
  "contractName": "Oracle",
  "abi": [
    {
      "constant": true,
      "inputs": [],
      "name": "coordinator",
      "outputs": [
        {
          "name": "",
          "type": "address"
        }
      ],
      "payable": false,
      "stateMutability": "view",
      "type": "function"
    },
    {
      "constant": true,
      "inputs": [],
      "name": "spec1",
      "outputs": [
        {
          "name": "",
          "type": "bytes32"
        }
      ],
      "payable": false,
      "stateMutability": "view",
      "type": "function"
    },
    {
      "constant": true,
      "inputs": [],
      "name": "registry",
      "outputs": [
        {
          "name": "",
          "type": "address"
        }
      ],
      "payable": false,
      "stateMutability": "view",
      "type": "function"
    },
    {
      "constant": true,
      "inputs": [],
      "name": "dispatch",
      "outputs": [
        {
          "name": "",
          "type": "address"
        }
      ],
      "payable": false,
      "stateMutability": "view",
      "type": "function"
    },
    {
      "constant": true,
      "inputs": [],
      "name": "registryAddress",
      "outputs": [
        {
          "name": "",
          "type": "address"
        }
      ],
      "payable": false,
      "stateMutability": "view",
      "type": "function"
    },
    {
      "constant": true,
      "inputs": [],
      "name": "dispatchAddress",
      "outputs": [
        {
          "name": "",
          "type": "address"
        }
      ],
      "payable": false,
      "stateMutability": "view",
      "type": "function"
    },
    {
      "inputs": [
        {
          "name": "_zapCoor",
          "type": "address"
        }
      ],
      "payable": false,
      "stateMutability": "nonpayable",
      "type": "constructor"
    },
    {
      "anonymous": false,
      "inputs": [
        {
          "indexed": false,
          "name": "query",
          "type": "string"
        },
        {
          "indexed": false,
          "name": "endpoint",
          "type": "bytes32"
        },
        {
          "indexed": false,
          "name": "params",
          "type": "bytes32[]"
        }
      ],
      "name": "RecievedQuery",
      "type": "event"
    },
    {
      "constant": false,
      "inputs": [
        {
          "name": "id",
          "type": "uint256"
        },
        {
          "name": "userQuery",
          "type": "string"
        },
        {
          "name": "endpoint",
          "type": "bytes32"
        },
        {
          "name": "endpointParams",
          "type": "bytes32[]"
        },
        {
          "name": "onchainSubscriber",
          "type": "bool"
        }
      ],
      "name": "receive",
      "outputs": [],
      "payable": false,
      "stateMutability": "nonpayable",
      "type": "function"
    },
    {
      "constant": false,
      "inputs": [
        {
          "name": "id",
          "type": "uint256"
        }
      ],
      "name": "endpoint1",
      "outputs": [],
      "payable": false,
      "stateMutability": "nonpayable",
      "type": "function"
    }
  ],
  "bytecode": "0x60806040527f4f6e436861696e456e64706f696e744d6f696e000000000000000000000000006005556040518060600160405280600161ffff168152602001600161ffff1681526020016103e861ffff1681525060069060036100639291906105fb565b5034801561007057600080fd5b50604051602080610c4a8339810180604052602081101561009057600080fd5b810190808051906020019092919050505080600460006101000a81548173ffffffffffffffffffffffffffffffffffffffff021916908373ffffffffffffffffffffffffffffffffffffffff160217905550600460009054906101000a900473ffffffffffffffffffffffffffffffffffffffff1673ffffffffffffffffffffffffffffffffffffffff1663358177736040518163ffffffff1660e01b81526004018080602001828103825260088152602001807f444953504154434800000000000000000000000000000000000000000000000081525060200191505060206040518083038186803b15801561018657600080fd5b505afa15801561019a573d6000803e3d6000fd5b505050506040513d60208110156101b057600080fd5b8101908080519060200190929190505050600260006101000a81548173ffffffffffffffffffffffffffffffffffffffff021916908373ffffffffffffffffffffffffffffffffffffffff160217905550600460009054906101000a900473ffffffffffffffffffffffffffffffffffffffff1673ffffffffffffffffffffffffffffffffffffffff1663358177736040518163ffffffff1660e01b81526004018080602001828103825260088152602001807f524547495354525900000000000000000000000000000000000000000000000081525060200191505060206040518083038186803b1580156102a557600080fd5b505afa1580156102b9573d6000803e3d6000fd5b505050506040513d60208110156102cf57600080fd5b8101908080519060200190929190505050600360006101000a81548173ffffffffffffffffffffffffffffffffffffffff021916908373ffffffffffffffffffffffffffffffffffffffff160217905550600260009054906101000a900473ffffffffffffffffffffffffffffffffffffffff166000806101000a81548173ffffffffffffffffffffffffffffffffffffffff021916908373ffffffffffffffffffffffffffffffffffffffff160217905550600360009054906101000a900473ffffffffffffffffffffffffffffffffffffffff16600160006101000a81548173ffffffffffffffffffffffffffffffffffffffff021916908373ffffffffffffffffffffffffffffffffffffffff16021790555060007f4d6f696e4f7261636c65000000000000000000000000000000000000000000009050600160009054906101000a900473ffffffffffffffffffffffffffffffffffffffff1673ffffffffffffffffffffffffffffffffffffffff1663af87c833613039836040518363ffffffff1660e01b81526004018083815260200182815260200192505050602060405180830381600087803b15801561048957600080fd5b505af115801561049d573d6000803e3d6000fd5b505050506040513d60208110156104b357600080fd5b810190808051906020019092919050505050600160009054906101000a900473ffffffffffffffffffffffffffffffffffffffff1673ffffffffffffffffffffffffffffffffffffffff1663238b3aed600554600660006040518463ffffffff1660e01b815260040180848152602001806020018373ffffffffffffffffffffffffffffffffffffffff1673ffffffffffffffffffffffffffffffffffffffff168152602001828103825284818154815260200191508054801561059657602002820191906000526020600020905b815481526020019060010190808311610582575b5050945050505050602060405180830381600087803b1580156105b857600080fd5b505af11580156105cc573d6000803e3d6000fd5b505050506040513d60208110156105e257600080fd5b8101908080519060200190929190505050505050610673565b82805482825590600052602060002090810192821561063d579160200282015b8281111561063c578251829061ffff1690559160200191906001019061061b565b5b50905061064a919061064e565b5090565b61067091905b8082111561066c576000816000905550600101610654565b5090565b90565b6105c8806106826000396000f3fe608060405234801561001057600080fd5b50600436106100885760003560e01c8063e9c4a3ac1161005b578063e9c4a3ac1461022d578063ed9aab5114610277578063f3a85c82146102c1578063f528c949146102ef57610088565b80630a0090971461008d57806348cf129a146100d75780637b103999146100f5578063de2615831461013f575b600080fd5b610095610339565b604051808273ffffffffffffffffffffffffffffffffffffffff1673ffffffffffffffffffffffffffffffffffffffff16815260200191505060405180910390f35b6100df61035f565b6040518082815260200191505060405180910390f35b6100fd610365565b604051808273ffffffffffffffffffffffffffffffffffffffff1673ffffffffffffffffffffffffffffffffffffffff16815260200191505060405180910390f35b61022b600480360360a081101561015557600080fd5b81019080803590602001909291908035906020019064010000000081111561017c57600080fd5b82018360208201111561018e57600080fd5b803590602001918460018302840111640100000000831117156101b057600080fd5b909192939192939080359060200190929190803590602001906401000000008111156101db57600080fd5b8201836020820111156101ed57600080fd5b8035906020019184602083028401116401000000008311171561020f57600080fd5b909192939192939080351515906020019092919050505061038b565b005b61023561043f565b604051808273ffffffffffffffffffffffffffffffffffffffff1673ffffffffffffffffffffffffffffffffffffffff16815260200191505060405180910390f35b61027f610464565b604051808273ffffffffffffffffffffffffffffffffffffffff1673ffffffffffffffffffffffffffffffffffffffff16815260200191505060405180910390f35b6102ed600480360360208110156102d757600080fd5b810190808035906020019092919050505061048a565b005b6102f7610576565b604051808273ffffffffffffffffffffffffffffffffffffffff1673ffffffffffffffffffffffffffffffffffffffff16815260200191505060405180910390f35b600460009054906101000a900473ffffffffffffffffffffffffffffffffffffffff1681565b60055481565b600160009054906101000a900473ffffffffffffffffffffffffffffffffffffffff1681565b7fb1d30540f0019c1e94a292da7a6f164844c5d2e3dee75e0b3a6a66e4e9a4e15386868686866040518080602001858152602001806020018381038352888882818152602001925080828437600081840152601f19601f8201169050808301925050508381038252858582818152602001925060200280828437600081840152601f19601f82011690508083019250505097505050505050505060405180910390a16104368761048a565b50505050505050565b6000809054906101000a900473ffffffffffffffffffffffffffffffffffffffff1681565b600360009054906101000a900473ffffffffffffffffffffffffffffffffffffffff1681565b6000809054906101000a900473ffffffffffffffffffffffffffffffffffffffff1673ffffffffffffffffffffffffffffffffffffffff16636843581c826040518263ffffffff1660e01b81526004018082815260200180602001828103825260138152602001807f4f6e636861696e20416e73776572204d6f696e0000000000000000000000000081525060200192505050602060405180830381600087803b15801561053757600080fd5b505af115801561054b573d6000803e3d6000fd5b505050506040513d602081101561056157600080fd5b81019080805190602001909291905050505050565b600260009054906101000a900473ffffffffffffffffffffffffffffffffffffffff168156fea165627a7a72305820c5bff1c4ecc33991dcd0d7f1716bd1609bf1e3fa9067cad748a8f8646bc5c4e80029",
  "source": "pragma solidity ^0.5.8;\nimport \"../platform/dispatch/DispatchInterface.sol\";\nimport \"../platform/registry/RegistryInterface.sol\";\nimport \"../lib/ownership/ZapCoordinatorInterface.sol\";\n\ncontract Oracle {\n    event RecievedQuery(string query, bytes32 endpoint, bytes32[] params);\n\n\n    DispatchInterface public dispatch;\n    RegistryInterface public registry;\n\n    address public dispatchAddress;\n    address public registryAddress;\n    ZapCoordinatorInterface public coordinator;\n\n    bytes32 public spec1 = \"OnChainEndpointMoin\";\n    int256[] curve1 = [1,1,1000];\n\n    constructor(address _zapCoor) public {\n        coordinator = ZapCoordinatorInterface(_zapCoor);\n        dispatchAddress = coordinator.getContract(\"DISPATCH\");\n        registryAddress = coordinator.getContract(\"REGISTRY\");\n        dispatch = DispatchInterface(dispatchAddress);\n        registry = RegistryInterface(registryAddress);\n        // initialize in registry\n        bytes32 title = \"MoinOracle\";\n\n        registry.initiateProvider(12345, title);\n        registry.initiateProviderCurve(spec1, curve1, address(0));\n    }\n\n    // middleware function for handling queries\n    function receive(uint256 id, string calldata userQuery, bytes32 endpoint, bytes32[] calldata endpointParams, bool onchainSubscriber) external {\n        emit RecievedQuery(userQuery, endpoint, endpointParams);\n        endpoint1(id);\n    }\n\n    function endpoint1(uint256 id) public {\n        dispatch.respond1(id, \"Onchain Answer Moin\");\n        // dispatch.respond2(id, \"String1\",\"String2\");\n        // dispatch.respond3(id, \"String1\",\"String2\",\"String3\");\n        // dispatch.respond4(id, \"String1\",\"String2\",\"String3\",\"String4\");\n\n    }\n\n\n\n}",
  "sourcePath": "/Users/moinuddin/Desktop/Zap Projects/main-market-template/contracts/examples/Oracle.sol",
  "compiler": {
    "name": "solc",
    "version": "0.5.8+commit.23d335f2.Emscripten.clang"
  },
  "schemaVersion": "3.0.11",
  "updatedAt": "2019-06-24T03:26:30.619Z",
  "devdoc": {
    "methods": {}
  },
  "userdoc": {
    "methods": {}
  }
}