{
  "contractName": "Registry",
  "abi": [
    {
      "constant": true,
      "inputs": [],
      "name": "db",
      "outputs": [
        {
          "name": "",
          "type": "address"
        }
      ],
      "payable": false,
      "stateMutability": "view",
      "type": "function"
    },
    {
      "constant": false,
      "inputs": [],
      "name": "updateDependencies",
      "outputs": [],
      "payable": false,
      "stateMutability": "nonpayable",
      "type": "function"
    },
    {
      "constant": true,
      "inputs": [],
      "name": "owner",
      "outputs": [
        {
          "name": "",
          "type": "address"
        }
      ],
      "payable": false,
      "stateMutability": "view",
      "type": "function"
    },
    {
      "constant": false,
      "inputs": [],
      "name": "selfDestruct",
      "outputs": [],
      "payable": false,
      "stateMutability": "nonpayable",
      "type": "function"
    },
    {
      "constant": false,
      "inputs": [
        {
          "name": "newOwner",
          "type": "address"
        }
      ],
      "name": "transferOwnership",
      "outputs": [],
      "payable": false,
      "stateMutability": "nonpayable",
      "type": "function"
    },
    {
      "inputs": [
        {
          "name": "c",
          "type": "address"
        }
      ],
      "payable": false,
      "stateMutability": "nonpayable",
      "type": "constructor"
    },
    {
      "anonymous": false,
      "inputs": [
        {
          "indexed": true,
          "name": "provider",
          "type": "address"
        },
        {
          "indexed": true,
          "name": "title",
          "type": "bytes32"
        }
      ],
      "name": "NewProvider",
      "type": "event"
    },
    {
      "anonymous": false,
      "inputs": [
        {
          "indexed": true,
          "name": "provider",
          "type": "address"
        },
        {
          "indexed": true,
          "name": "endpoint",
          "type": "bytes32"
        },
        {
          "indexed": false,
          "name": "curve",
          "type": "int256[]"
        },
        {
          "indexed": true,
          "name": "broker",
          "type": "address"
        }
      ],
      "name": "NewCurve",
      "type": "event"
    },
    {
      "anonymous": false,
      "inputs": [
        {
          "indexed": true,
          "name": "previousOwner",
          "type": "address"
        },
        {
          "indexed": true,
          "name": "newOwner",
          "type": "address"
        }
      ],
      "name": "OwnershipTransferred",
      "type": "event"
    },
    {
      "constant": false,
      "inputs": [
        {
          "name": "publicKey",
          "type": "uint256"
        },
        {
          "name": "title",
          "type": "bytes32"
        }
      ],
      "name": "initiateProvider",
      "outputs": [
        {
          "name": "",
          "type": "bool"
        }
      ],
      "payable": false,
      "stateMutability": "nonpayable",
      "type": "function"
    },
    {
      "constant": false,
      "inputs": [
        {
          "name": "endpoint",
          "type": "bytes32"
        },
        {
          "name": "curve",
          "type": "int256[]"
        },
        {
          "name": "broker",
          "type": "address"
        }
      ],
      "name": "initiateProviderCurve",
      "outputs": [
        {
          "name": "",
          "type": "bool"
        }
      ],
      "payable": false,
      "stateMutability": "nonpayable",
      "type": "function"
    },
    {
      "constant": false,
      "inputs": [
        {
          "name": "key",
          "type": "bytes32"
        },
        {
          "name": "value",
          "type": "bytes"
        }
      ],
      "name": "setProviderParameter",
      "outputs": [],
      "payable": false,
      "stateMutability": "nonpayable",
      "type": "function"
    },
    {
      "constant": true,
      "inputs": [
        {
          "name": "provider",
          "type": "address"
        },
        {
          "name": "key",
          "type": "bytes32"
        }
      ],
      "name": "getProviderParameter",
      "outputs": [
        {
          "name": "",
          "type": "bytes"
        }
      ],
      "payable": false,
      "stateMutability": "view",
      "type": "function"
    },
    {
      "constant": true,
      "inputs": [
        {
          "name": "provider",
          "type": "address"
        }
      ],
      "name": "getAllProviderParams",
      "outputs": [
        {
          "name": "",
          "type": "bytes32[]"
        }
      ],
      "payable": false,
      "stateMutability": "view",
      "type": "function"
    },
    {
      "constant": false,
      "inputs": [
        {
          "name": "endpoint",
          "type": "bytes32"
        },
        {
          "name": "endpointParams",
          "type": "bytes32[]"
        }
      ],
      "name": "setEndpointParams",
      "outputs": [],
      "payable": false,
      "stateMutability": "nonpayable",
      "type": "function"
    },
    {
      "constant": false,
      "inputs": [
        {
          "name": "title",
          "type": "bytes32"
        }
      ],
      "name": "setProviderTitle",
      "outputs": [],
      "payable": false,
      "stateMutability": "nonpayable",
      "type": "function"
    },
    {
      "constant": false,
      "inputs": [
        {
          "name": "endpoint",
          "type": "bytes32"
        }
      ],
      "name": "clearEndpoint",
      "outputs": [],
      "payable": false,
      "stateMutability": "nonpayable",
      "type": "function"
    },
    {
      "constant": true,
      "inputs": [
        {
          "name": "provider",
          "type": "address"
        }
      ],
      "name": "getProviderPublicKey",
      "outputs": [
        {
          "name": "",
          "type": "uint256"
        }
      ],
      "payable": false,
      "stateMutability": "view",
      "type": "function"
    },
    {
      "constant": true,
      "inputs": [
        {
          "name": "provider",
          "type": "address"
        }
      ],
      "name": "getProviderTitle",
      "outputs": [
        {
          "name": "",
          "type": "bytes32"
        }
      ],
      "payable": false,
      "stateMutability": "view",
      "type": "function"
    },
    {
      "constant": true,
      "inputs": [
        {
          "name": "provider",
          "type": "address"
        },
        {
          "name": "endpoint",
          "type": "bytes32"
        }
      ],
      "name": "getProviderCurve",
      "outputs": [
        {
          "name": "",
          "type": "int256[]"
        }
      ],
      "payable": false,
      "stateMutability": "view",
      "type": "function"
    },
    {
      "constant": true,
      "inputs": [
        {
          "name": "provider",
          "type": "address"
        },
        {
          "name": "endpoint",
          "type": "bytes32"
        }
      ],
      "name": "getProviderCurveLength",
      "outputs": [
        {
          "name": "",
          "type": "uint256"
        }
      ],
      "payable": false,
      "stateMutability": "view",
      "type": "function"
    },
    {
      "constant": true,
      "inputs": [
        {
          "name": "oracleAddress",
          "type": "address"
        }
      ],
      "name": "isProviderInitiated",
      "outputs": [
        {
          "name": "",
          "type": "bool"
        }
      ],
      "payable": false,
      "stateMutability": "view",
      "type": "function"
    },
    {
      "constant": true,
      "inputs": [
        {
          "name": "provider",
          "type": "address"
        }
      ],
      "name": "getPublicKey",
      "outputs": [
        {
          "name": "",
          "type": "uint256"
        }
      ],
      "payable": false,
      "stateMutability": "view",
      "type": "function"
    },
    {
      "constant": true,
      "inputs": [
        {
          "name": "provider",
          "type": "address"
        }
      ],
      "name": "getTitle",
      "outputs": [
        {
          "name": "",
          "type": "bytes32"
        }
      ],
      "payable": false,
      "stateMutability": "view",
      "type": "function"
    },
    {
      "constant": true,
      "inputs": [
        {
          "name": "provider",
          "type": "address"
        }
      ],
      "name": "getProviderEndpoints",
      "outputs": [
        {
          "name": "",
          "type": "bytes32[]"
        }
      ],
      "payable": false,
      "stateMutability": "view",
      "type": "function"
    },
    {
      "constant": true,
      "inputs": [
        {
          "name": "provider",
          "type": "address"
        },
        {
          "name": "endpoint",
          "type": "bytes32"
        }
      ],
      "name": "getEndpointParams",
      "outputs": [
        {
          "name": "",
          "type": "bytes32[]"
        }
      ],
      "payable": false,
      "stateMutability": "view",
      "type": "function"
    },
    {
      "constant": true,
      "inputs": [
        {
          "name": "oracleAddress",
          "type": "address"
        },
        {
          "name": "endpoint",
          "type": "bytes32"
        }
      ],
      "name": "getEndpointBroker",
      "outputs": [
        {
          "name": "",
          "type": "address"
        }
      ],
      "payable": false,
      "stateMutability": "view",
      "type": "function"
    },
    {
      "constant": true,
      "inputs": [
        {
          "name": "provider",
          "type": "address"
        },
        {
          "name": "endpoint",
          "type": "bytes32"
        }
      ],
      "name": "getCurveUnset",
      "outputs": [
        {
          "name": "",
          "type": "bool"
        }
      ],
      "payable": false,
      "stateMutability": "view",
      "type": "function"
    },
    {
      "constant": true,
      "inputs": [
        {
          "name": "index",
          "type": "uint256"
        }
      ],
      "name": "getOracleAddress",
      "outputs": [
        {
          "name": "",
          "type": "address"
        }
      ],
      "payable": false,
      "stateMutability": "view",
      "type": "function"
    },
    {
      "constant": true,
      "inputs": [],
      "name": "getAllOracles",
      "outputs": [
        {
          "name": "",
          "type": "address[]"
        }
      ],
      "payable": false,
      "stateMutability": "view",
      "type": "function"
    }
  ],
  "bytecode": "0x60806040523480156200001157600080fd5b5060405160208062004899833981018060405260208110156200003357600080fd5b810190808051906020019092919050505080336000806101000a81548173ffffffffffffffffffffffffffffffffffffffff021916908373ffffffffffffffffffffffffffffffffffffffff16021790555080600160006101000a81548173ffffffffffffffffffffffffffffffffffffffff021916908373ffffffffffffffffffffffffffffffffffffffff16021790555080600260006101000a81548173ffffffffffffffffffffffffffffffffffffffff021916908373ffffffffffffffffffffffffffffffffffffffff16021790555050620001186200011f60201b60201c565b5062000249565b6000600260009054906101000a900473ffffffffffffffffffffffffffffffffffffffff1673ffffffffffffffffffffffffffffffffffffffff1663358177736040518163ffffffff1660e01b81526004018080602001828103825260088152602001807f444154414241534500000000000000000000000000000000000000000000000081525060200191505060206040518083038186803b158015620001c657600080fd5b505afa158015620001db573d6000803e3d6000fd5b505050506040513d6020811015620001f257600080fd5b8101908080519060200190929190505050905080600360006101000a81548173ffffffffffffffffffffffffffffffffffffffff021916908373ffffffffffffffffffffffffffffffffffffffff16021790555050565b61464080620002596000396000f3fe608060405234801561001057600080fd5b506004361061018e5760003560e01c806387cd29a4116100de578063a72460d111610097578063f2fde38b11610071578063f2fde38b14610b3e578063f51d7d5f14610b82578063f5d1d29914610bda578063fcf0c24814610c085761018e565b8063a72460d1146109b2578063af87c83314610a4b578063e95d618214610a9b5761018e565b806387cd29a4146107d25780638da5cb5b146108345780638dc8d32b1461087e5780639217c438146108ac5780639c39c8ea1461091a5780639cb8a26a146109a85761018e565b80634ff6e86e1161014b5780635750644a116101255780635750644a1461064c57806365a6bb29146107115780636e5ecdff14610770578063857cdbb81461077a5761018e565b80634ff6e86e146105365780635481f43e1461058e57806354a365df146105e65761018e565b8063186b79c9146101935780632316a9ff146101ef578063238b3aed14610292578063275601f61461038c5780634d655aff146104255780634d9bcac41461046f575b600080fd5b6101d5600480360360208110156101a957600080fd5b81019080803573ffffffffffffffffffffffffffffffffffffffff169060200190929190505050610cca565b604051808215151515815260200191505060405180910390f35b61023b6004803603604081101561020557600080fd5b81019080803573ffffffffffffffffffffffffffffffffffffffff16906020019092919080359060200190929190505050610ce2565b6040518080602001828103825283818151815260200191508051906020019060200280838360005b8381101561027e578082015181840152602081019050610263565b505050509050019250505060405180910390f35b610372600480360360608110156102a857600080fd5b8101908080359060200190929190803590602001906401000000008111156102cf57600080fd5b8201836020820111156102e157600080fd5b8035906020019184602083028401116401000000008311171561030357600080fd5b919080806020026020016040519081016040528093929190818152602001838360200280828437600081840152601f19601f820116905080830192505050505050509192919290803573ffffffffffffffffffffffffffffffffffffffff169060200190929190505050610f1a565b604051808215151515815260200191505060405180910390f35b6103ce600480360360208110156103a257600080fd5b81019080803573ffffffffffffffffffffffffffffffffffffffff1690602001909291905050506113a8565b6040518080602001828103825283818151815260200191508051906020019060200280838360005b838110156104115780820151818401526020810190506103f6565b505050509050019250505060405180910390f35b61042d6115b8565b604051808273ffffffffffffffffffffffffffffffffffffffff1673ffffffffffffffffffffffffffffffffffffffff16815260200191505060405180910390f35b6104bb6004803603604081101561048557600080fd5b81019080803573ffffffffffffffffffffffffffffffffffffffff169060200190929190803590602001909291905050506115de565b6040518080602001828103825283818151815260200191508051906020019080838360005b838110156104fb5780820151818401526020810190506104e0565b50505050905090810190601f1680156105285780820380516001836020036101000a031916815260200191505b509250505060405180910390f35b6105786004803603602081101561054c57600080fd5b81019080803573ffffffffffffffffffffffffffffffffffffffff169060200190929190505050611856565b6040518082815260200191505060405180910390f35b6105d0600480360360208110156105a457600080fd5b81019080803573ffffffffffffffffffffffffffffffffffffffff169060200190929190505050611868565b6040518082815260200191505060405180910390f35b610632600480360360408110156105fc57600080fd5b81019080803573ffffffffffffffffffffffffffffffffffffffff1690602001909291908035906020019092919050505061187a565b604051808215151515815260200191505060405180910390f35b61070f6004803603604081101561066257600080fd5b81019080803590602001909291908035906020019064010000000081111561068957600080fd5b82018360208201111561069b57600080fd5b803590602001918460018302840111640100000000831117156106bd57600080fd5b91908080601f016020809104026020016040519081016040528093929190818152602001838380828437600081840152601f19601f8201169050808301925050505050505091929192905050506119e1565b005b610719611e76565b6040518080602001828103825283818151815260200191508051906020019060200280838360005b8381101561075c578082015181840152602081019050610741565b505050509050019250505060405180910390f35b610778611fc7565b005b6107bc6004803603602081101561079057600080fd5b81019080803573ffffffffffffffffffffffffffffffffffffffff169060200190929190505050612094565b6040518082815260200191505060405180910390f35b61081e600480360360408110156107e857600080fd5b81019080803573ffffffffffffffffffffffffffffffffffffffff169060200190929190803590602001909291905050506121f0565b6040518082815260200191505060405180910390f35b61083c612429565b604051808273ffffffffffffffffffffffffffffffffffffffff1673ffffffffffffffffffffffffffffffffffffffff16815260200191505060405180910390f35b6108aa6004803603602081101561089457600080fd5b810190808035906020019092919050505061244e565b005b6108d8600480360360208110156108c257600080fd5b8101908080359060200190929190505050612dc8565b604051808273ffffffffffffffffffffffffffffffffffffffff1673ffffffffffffffffffffffffffffffffffffffff16815260200191505060405180910390f35b6109666004803603604081101561093057600080fd5b81019080803573ffffffffffffffffffffffffffffffffffffffff16906020019092919080359060200190929190505050612ecd565b604051808273ffffffffffffffffffffffffffffffffffffffff1673ffffffffffffffffffffffffffffffffffffffff16815260200191505060405180910390f35b6109b0613035565b005b6109f4600480360360208110156109c857600080fd5b81019080803573ffffffffffffffffffffffffffffffffffffffff1690602001909291905050506130c8565b6040518080602001828103825283818151815260200191508051906020019060200280838360005b83811015610a37578082015181840152602081019050610a1c565b505050509050019250505060405180910390f35b610a8160048036036040811015610a6157600080fd5b81019080803590602001909291908035906020019092919050505061327a565b604051808215151515815260200191505060405180910390f35b610ae760048036036040811015610ab157600080fd5b81019080803573ffffffffffffffffffffffffffffffffffffffff1690602001909291908035906020019092919050505061333d565b6040518080602001828103825283818151815260200191508051906020019060200280838360005b83811015610b2a578082015181840152602081019050610b0f565b505050509050019250505060405180910390f35b610b8060048036036020811015610b5457600080fd5b81019080803573ffffffffffffffffffffffffffffffffffffffff1690602001909291905050506134f8565b005b610bc460048036036020811015610b9857600080fd5b81019080803573ffffffffffffffffffffffffffffffffffffffff169060200190929190505050613649565b6040518082815260200191505060405180910390f35b610c0660048036036020811015610bf057600080fd5b81019080803590602001909291905050506137a5565b005b610cc860048036036040811015610c1e57600080fd5b810190808035906020019092919080359060200190640100000000811115610c4557600080fd5b820183602082011115610c5757600080fd5b80359060200191846020830284011164010000000083111715610c7957600080fd5b919080806020026020016040519081016040528093929190818152602001838360200280828437600081840152601f19601f82011690508083019250505050505050919291929050505061395d565b005b60008060001b610cd983611868565b14159050919050565b6060610cee838361187a565b15610d61576040517f08c379a000000000000000000000000000000000000000000000000000000000815260040180806020018281038252601b8152602001807f4572726f723a204375727665206973206e6f742079657420736574000000000081525060200191505060405180910390fd5b600360009054906101000a900473ffffffffffffffffffffffffffffffffffffffff1673ffffffffffffffffffffffffffffffffffffffff16632d2899b6848460405160200180807f6f7261636c6573000000000000000000000000000000000000000000000000008152506007018373ffffffffffffffffffffffffffffffffffffffff1673ffffffffffffffffffffffffffffffffffffffff1660601b8152601401807f637572766573000000000000000000000000000000000000000000000000000081525060060182815260200192505050604051602081830303815290604052805190602001206040518263ffffffff1660e01b81526004018082815260200191505060006040518083038186803b158015610e8157600080fd5b505afa158015610e95573d6000803e3d6000fd5b505050506040513d6000823e3d601f19601f820116820180604052506020811015610ebf57600080fd5b810190808051640100000000811115610ed757600080fd5b82810190506020810184811115610eed57600080fd5b8151856020820283011164010000000082111715610f0a57600080fd5b5050929190505050905092915050565b6000610f2533610cca565b610f7a576040517f08c379a00000000000000000000000000000000000000000000000000000000081526004018080602001828103825260248152602001806145626024913960400191505060405180910390fd5b610f84338561187a565b610ff6576040517f08c379a000000000000000000000000000000000000000000000000000000000815260040180806020018281038252601b8152602001807f4572726f723a20437572766520697320616c726561647920736574000000000081525060200191505060405180910390fd5b6000801b841415611052576040517f08c379a00000000000000000000000000000000000000000000000000000000081526004018080602001828103825260238152602001806145f26023913960400191505060405180910390fd5b61105d338585613bbf565b600360009054906101000a900473ffffffffffffffffffffffffffffffffffffffff1673ffffffffffffffffffffffffffffffffffffffff16638d152d783360405160200180807f6f7261636c6573000000000000000000000000000000000000000000000000008152506007018273ffffffffffffffffffffffffffffffffffffffff1673ffffffffffffffffffffffffffffffffffffffff1660601b8152601401807f656e64706f696e7473000000000000000000000000000000000000000000000081525060090191505060405160208183030381529060405280519060200120866040518363ffffffff1660e01b81526004018083815260200182815260200192505050600060405180830381600087803b15801561117f57600080fd5b505af1158015611193573d6000803e3d6000fd5b50505050600360009054906101000a900473ffffffffffffffffffffffffffffffffffffffff1673ffffffffffffffffffffffffffffffffffffffff16634e91db08338660405160200180807f6f7261636c6573000000000000000000000000000000000000000000000000008152506007018373ffffffffffffffffffffffffffffffffffffffff1673ffffffffffffffffffffffffffffffffffffffff1660601b8152601401828152602001807f62726f6b65720000000000000000000000000000000000000000000000000000815250600601925050506040516020818303038152906040528051906020012060608573ffffffffffffffffffffffffffffffffffffffff16901b60001b6040518363ffffffff1660e01b81526004018083815260200182815260200192505050600060405180830381600087803b1580156112de57600080fd5b505af11580156112f2573d6000803e3d6000fd5b505050508173ffffffffffffffffffffffffffffffffffffffff16843373ffffffffffffffffffffffffffffffffffffffff167fadd7c8d34ea3b815721e4441e9d375f523912507ae885dfabba0d2e892ca350c866040518080602001828103825283818151815260200191508051906020019060200280838360005b8381101561138a57808201518184015260208101905061136f565b505050509050019250505060405180910390a4600190509392505050565b60606113b382610cca565b611408576040517f08c379a00000000000000000000000000000000000000000000000000000000081526004018080602001828103825260248152602001806145626024913960400191505060405180910390fd5b600360009054906101000a900473ffffffffffffffffffffffffffffffffffffffff1673ffffffffffffffffffffffffffffffffffffffff16638db0e83b8360405160200180807f6f7261636c6573000000000000000000000000000000000000000000000000008152506007018273ffffffffffffffffffffffffffffffffffffffff1673ffffffffffffffffffffffffffffffffffffffff1660601b8152601401807f70726f7669646572506172616d73000000000000000000000000000000000000815250600e01915050604051602081830303815290604052805190602001206040518263ffffffff1660e01b81526004018082815260200191505060006040518083038186803b15801561152057600080fd5b505afa158015611534573d6000803e3d6000fd5b505050506040513d6000823e3d601f19601f82011682018060405250602081101561155e57600080fd5b81019080805164010000000081111561157657600080fd5b8281019050602081018481111561158c57600080fd5b81518560208202830111640100000000821117156115a957600080fd5b50509291905050509050919050565b600360009054906101000a900473ffffffffffffffffffffffffffffffffffffffff1681565b60606115e983610cca565b61163e576040517f08c379a00000000000000000000000000000000000000000000000000000000081526004018080602001828103825260248152602001806145626024913960400191505060405180910390fd5b6116488383613f0c565b61169d576040517f08c379a00000000000000000000000000000000000000000000000000000000081526004018080602001828103825260308152602001806145326030913960400191505060405180910390fd5b600360009054906101000a900473ffffffffffffffffffffffffffffffffffffffff1673ffffffffffffffffffffffffffffffffffffffff1663c031a180848460405160200180807f6f7261636c6573000000000000000000000000000000000000000000000000008152506007018373ffffffffffffffffffffffffffffffffffffffff1673ffffffffffffffffffffffffffffffffffffffff1660601b8152601401807f70726f7669646572506172616d73000000000000000000000000000000000000815250600e0182815260200192505050604051602081830303815290604052805190602001206040518263ffffffff1660e01b81526004018082815260200191505060006040518083038186803b1580156117bd57600080fd5b505afa1580156117d1573d6000803e3d6000fd5b505050506040513d6000823e3d601f19601f8201168201806040525060208110156117fb57600080fd5b81019080805164010000000081111561181357600080fd5b8281019050602081018481111561182957600080fd5b815185600182028301116401000000008211171561184657600080fd5b5050929190505050905092915050565b600061186182612094565b9050919050565b600061187382613649565b9050919050565b600080600360009054906101000a900473ffffffffffffffffffffffffffffffffffffffff1673ffffffffffffffffffffffffffffffffffffffff1663a21a65ae858560405160200180807f6f7261636c6573000000000000000000000000000000000000000000000000008152506007018373ffffffffffffffffffffffffffffffffffffffff1673ffffffffffffffffffffffffffffffffffffffff1660601b8152601401807f637572766573000000000000000000000000000000000000000000000000000081525060060182815260200192505050604051602081830303815290604052805190602001206040518263ffffffff1660e01b81526004018082815260200191505060206040518083038186803b15801561199d57600080fd5b505afa1580156119b1573d6000803e3d6000fd5b505050506040513d60208110156119c757600080fd5b810190808051906020019092919050505014905092915050565b6119ea33610cca565b611a3f576040517f08c379a00000000000000000000000000000000000000000000000000000000081526004018080602001828103825260248152602001806145626024913960400191505060405180910390fd5b611a493383613f0c565b611ccb57600360009054906101000a900473ffffffffffffffffffffffffffffffffffffffff1673ffffffffffffffffffffffffffffffffffffffff166354c552db338460405160200180807f6f7261636c6573000000000000000000000000000000000000000000000000008152506007018373ffffffffffffffffffffffffffffffffffffffff1673ffffffffffffffffffffffffffffffffffffffff1660601b8152601401807f69735f706172616d5f7365740000000000000000000000000000000000000000815250600c01828152602001925050506040516020818303038152906040528051906020012060016040518363ffffffff1660e01b81526004018083815260200182815260200192505050600060405180830381600087803b158015611b7857600080fd5b505af1158015611b8c573d6000803e3d6000fd5b50505050600360009054906101000a900473ffffffffffffffffffffffffffffffffffffffff1673ffffffffffffffffffffffffffffffffffffffff16638d152d783360405160200180807f6f7261636c6573000000000000000000000000000000000000000000000000008152506007018273ffffffffffffffffffffffffffffffffffffffff1673ffffffffffffffffffffffffffffffffffffffff1660601b8152601401807f70726f7669646572506172616d73000000000000000000000000000000000000815250600e0191505060405160208183030381529060405280519060200120846040518363ffffffff1660e01b81526004018083815260200182815260200192505050600060405180830381600087803b158015611cb257600080fd5b505af1158015611cc6573d6000803e3d6000fd5b505050505b600360009054906101000a900473ffffffffffffffffffffffffffffffffffffffff1673ffffffffffffffffffffffffffffffffffffffff16632e28d084338460405160200180807f6f7261636c6573000000000000000000000000000000000000000000000000008152506007018373ffffffffffffffffffffffffffffffffffffffff1673ffffffffffffffffffffffffffffffffffffffff1660601b8152601401807f70726f7669646572506172616d73000000000000000000000000000000000000815250600e018281526020019250505060405160208183030381529060405280519060200120836040518363ffffffff1660e01b81526004018083815260200180602001828103825283818151815260200191508051906020019080838360005b83811015611e0d578082015181840152602081019050611df2565b50505050905090810190601f168015611e3a5780820380516001836020036101000a031916815260200191505b509350505050600060405180830381600087803b158015611e5a57600080fd5b505af1158015611e6e573d6000803e3d6000fd5b505050505050565b6060600360009054906101000a900473ffffffffffffffffffffffffffffffffffffffff1673ffffffffffffffffffffffffffffffffffffffff16635948f73360405160200180807f6f7261636c65496e646578000000000000000000000000000000000000000000815250600b019050604051602081830303815290604052805190602001206040518263ffffffff1660e01b81526004018082815260200191505060006040518083038186803b158015611f3157600080fd5b505afa158015611f45573d6000803e3d6000fd5b505050506040513d6000823e3d601f19601f820116820180604052506020811015611f6f57600080fd5b810190808051640100000000811115611f8757600080fd5b82810190506020810184811115611f9d57600080fd5b8151856020820283011164010000000082111715611fba57600080fd5b5050929190505050905090565b600160009054906101000a900473ffffffffffffffffffffffffffffffffffffffff1673ffffffffffffffffffffffffffffffffffffffff163373ffffffffffffffffffffffffffffffffffffffff161461208a576040517f08c379a00000000000000000000000000000000000000000000000000000000081526004018080602001828103825260208152602001807f4572726f723a20436f6f7264696e61746f72204f6e6c792046756e6374696f6e81525060200191505060405180910390fd5b612092614087565b565b6000600360009054906101000a900473ffffffffffffffffffffffffffffffffffffffff1673ffffffffffffffffffffffffffffffffffffffff16632ecb0d648360405160200180807f6f7261636c6573000000000000000000000000000000000000000000000000008152506007018273ffffffffffffffffffffffffffffffffffffffff1673ffffffffffffffffffffffffffffffffffffffff1660601b8152601401807f7075626c69634b65790000000000000000000000000000000000000000000000815250600901915050604051602081830303815290604052805190602001206040518263ffffffff1660e01b81526004018082815260200191505060206040518083038186803b1580156121ae57600080fd5b505afa1580156121c2573d6000803e3d6000fd5b505050506040513d60208110156121d857600080fd5b81019080805190602001909291905050509050919050565b60006121fc838361187a565b1561226f576040517f08c379a000000000000000000000000000000000000000000000000000000000815260040180806020018281038252601b8152602001807f4572726f723a204375727665206973206e6f742079657420736574000000000081525060200191505060405180910390fd5b600360009054906101000a900473ffffffffffffffffffffffffffffffffffffffff1673ffffffffffffffffffffffffffffffffffffffff16632d2899b6848460405160200180807f6f7261636c6573000000000000000000000000000000000000000000000000008152506007018373ffffffffffffffffffffffffffffffffffffffff1673ffffffffffffffffffffffffffffffffffffffff1660601b8152601401807f637572766573000000000000000000000000000000000000000000000000000081525060060182815260200192505050604051602081830303815290604052805190602001206040518263ffffffff1660e01b81526004018082815260200191505060006040518083038186803b15801561238f57600080fd5b505afa1580156123a3573d6000803e3d6000fd5b505050506040513d6000823e3d601f19601f8201168201806040525060208110156123cd57600080fd5b8101908080516401000000008111156123e557600080fd5b828101905060208101848111156123fb57600080fd5b815185602082028301116401000000008211171561241857600080fd5b505092919050505051905092915050565b6000809054906101000a900473ffffffffffffffffffffffffffffffffffffffff1681565b61245733610cca565b6124c9576040517f08c379a00000000000000000000000000000000000000000000000000000000081526004018080602001828103825260208152602001807f4572726f723a2050726f7669646572206973206e6f7420696e6974696174656481525060200191505060405180910390fd5b6000600360009054906101000a900473ffffffffffffffffffffffffffffffffffffffff1673ffffffffffffffffffffffffffffffffffffffff16632ecb0d64338460405160200180807f746f74616c426f756e6400000000000000000000000000000000000000000000815250600a018373ffffffffffffffffffffffffffffffffffffffff1673ffffffffffffffffffffffffffffffffffffffff1660601b815260140182815260200192505050604051602081830303815290604052805190602001206040518263ffffffff1660e01b81526004018082815260200191505060206040518083038186803b1580156125c357600080fd5b505afa1580156125d7573d6000803e3d6000fd5b505050506040513d60208110156125ed57600080fd5b8101908080519060200190929190505050905060008114612659576040517f08c379a00000000000000000000000000000000000000000000000000000000081526004018080602001828103825260228152602001806145d06022913960400191505060405180910390fd5b6060600060405190808252806020026020018201604052801561268b5781602001602082028038833980820191505090505b5090506060600360009054906101000a900473ffffffffffffffffffffffffffffffffffffffff1673ffffffffffffffffffffffffffffffffffffffff16638db0e83b3360405160200180807f6f7261636c6573000000000000000000000000000000000000000000000000008152506007018273ffffffffffffffffffffffffffffffffffffffff1673ffffffffffffffffffffffffffffffffffffffff1660601b8152601401807f656e64706f696e74730000000000000000000000000000000000000000000000815250600901915050604051602081830303815290604052805190602001206040518263ffffffff1660e01b81526004018082815260200191505060006040518083038186803b1580156127a857600080fd5b505afa1580156127bc573d6000803e3d6000fd5b505050506040513d6000823e3d601f19601f8201168201806040525060208110156127e657600080fd5b8101908080516401000000008111156127fe57600080fd5b8281019050602081018481111561281457600080fd5b815185602082028301116401000000008211171561283157600080fd5b5050929190505050905060008090505b81518110156129bc578482828151811061285757fe5b602002602001015114156129af57600360009054906101000a900473ffffffffffffffffffffffffffffffffffffffff1673ffffffffffffffffffffffffffffffffffffffff1663a4f63ec83360405160200180807f6f7261636c6573000000000000000000000000000000000000000000000000008152506007018273ffffffffffffffffffffffffffffffffffffffff1673ffffffffffffffffffffffffffffffffffffffff1660601b8152601401807f656e64706f696e7473000000000000000000000000000000000000000000000081525060090191505060405160208183030381529060405280519060200120836000801b6040518463ffffffff1660e01b8152600401808481526020018381526020018281526020019350505050600060405180830381600087803b15801561299257600080fd5b505af11580156129a6573d6000803e3d6000fd5b505050506129bc565b8080600101915050612841565b50600360009054906101000a900473ffffffffffffffffffffffffffffffffffffffff1673ffffffffffffffffffffffffffffffffffffffff16638d152d783360405160200180807f6f7261636c6573000000000000000000000000000000000000000000000000008152506007018273ffffffffffffffffffffffffffffffffffffffff1673ffffffffffffffffffffffffffffffffffffffff1660601b8152601401807f656e64706f696e74730000000000000000000000000000000000000000000000815250600901915050604051602081830303815290604052805190602001206000801b6040518363ffffffff1660e01b81526004018083815260200182815260200192505050600060405180830381600087803b158015612ae257600080fd5b505af1158015612af6573d6000803e3d6000fd5b50505050600360009054906101000a900473ffffffffffffffffffffffffffffffffffffffff1673ffffffffffffffffffffffffffffffffffffffff16634e91db08338660405160200180807f6f7261636c6573000000000000000000000000000000000000000000000000008152506007018373ffffffffffffffffffffffffffffffffffffffff1673ffffffffffffffffffffffffffffffffffffffff1660601b8152601401828152602001807f62726f6b6572000000000000000000000000000000000000000000000000000081525060060192505050604051602081830303815290604052805190602001206000801b6040518363ffffffff1660e01b81526004018083815260200182815260200192505050600060405180830381600087803b158015612c2757600080fd5b505af1158015612c3b573d6000803e3d6000fd5b50505050600360009054906101000a900473ffffffffffffffffffffffffffffffffffffffff1673ffffffffffffffffffffffffffffffffffffffff1663a9fcf76b338660405160200180807f6f7261636c6573000000000000000000000000000000000000000000000000008152506007018373ffffffffffffffffffffffffffffffffffffffff1673ffffffffffffffffffffffffffffffffffffffff1660601b8152601401807f63757276657300000000000000000000000000000000000000000000000000008152506006018281526020019250505060405160208183030381529060405280519060200120846040518363ffffffff1660e01b81526004018083815260200180602001828103825283818151815260200191508051906020019060200280838360005b83811015612d84578082015181840152602081019050612d69565b505050509050019350505050600060405180830381600087803b158015612daa57600080fd5b505af1158015612dbe573d6000803e3d6000fd5b5050505050505050565b6000600360009054906101000a900473ffffffffffffffffffffffffffffffffffffffff1673ffffffffffffffffffffffffffffffffffffffff1663e16e934060405160200180807f6f7261636c65496e646578000000000000000000000000000000000000000000815250600b01905060405160208183030381529060405280519060200120846040518363ffffffff1660e01b8152600401808381526020018281526020019250505060206040518083038186803b158015612e8b57600080fd5b505afa158015612e9f573d6000803e3d6000fd5b505050506040513d6020811015612eb557600080fd5b81019080805190602001909291905050509050919050565b6000600360009054906101000a900473ffffffffffffffffffffffffffffffffffffffff1673ffffffffffffffffffffffffffffffffffffffff1663a6ed563e848460405160200180807f6f7261636c6573000000000000000000000000000000000000000000000000008152506007018373ffffffffffffffffffffffffffffffffffffffff1673ffffffffffffffffffffffffffffffffffffffff1660601b8152601401828152602001807f62726f6b6572000000000000000000000000000000000000000000000000000081525060060192505050604051602081830303815290604052805190602001206040518263ffffffff1660e01b81526004018082815260200191505060206040518083038186803b158015612fef57600080fd5b505afa158015613003573d6000803e3d6000fd5b505050506040513d602081101561301957600080fd5b810190808051906020019092919050505060001c905092915050565b6000809054906101000a900473ffffffffffffffffffffffffffffffffffffffff1673ffffffffffffffffffffffffffffffffffffffff163373ffffffffffffffffffffffffffffffffffffffff161461308e57600080fd5b6000809054906101000a900473ffffffffffffffffffffffffffffffffffffffff1673ffffffffffffffffffffffffffffffffffffffff16ff5b6060600360009054906101000a900473ffffffffffffffffffffffffffffffffffffffff1673ffffffffffffffffffffffffffffffffffffffff16638db0e83b8360405160200180807f6f7261636c6573000000000000000000000000000000000000000000000000008152506007018273ffffffffffffffffffffffffffffffffffffffff1673ffffffffffffffffffffffffffffffffffffffff1660601b8152601401807f656e64706f696e74730000000000000000000000000000000000000000000000815250600901915050604051602081830303815290604052805190602001206040518263ffffffff1660e01b81526004018082815260200191505060006040518083038186803b1580156131e257600080fd5b505afa1580156131f6573d6000803e3d6000fd5b505050506040513d6000823e3d601f19601f82011682018060405250602081101561322057600080fd5b81019080805164010000000081111561323857600080fd5b8281019050602081018481111561324e57600080fd5b815185602082028301116401000000008211171561326b57600080fd5b50509291905050509050919050565b600061328533610cca565b156132db576040517f08c379a00000000000000000000000000000000000000000000000000000000081526004018080602001828103825260248152602001806145ac6024913960400191505060405180910390fd5b6132e63384846141ae565b6132ef33614427565b813373ffffffffffffffffffffffffffffffffffffffff167f96c4fc31a3e383225857c821101daf68248108597da8ddde0ac2b431eb9a16be60405160405180910390a36001905092915050565b6060600360009054906101000a900473ffffffffffffffffffffffffffffffffffffffff1673ffffffffffffffffffffffffffffffffffffffff16638db0e83b848460405160200180807f6f7261636c6573000000000000000000000000000000000000000000000000008152506007018373ffffffffffffffffffffffffffffffffffffffff1673ffffffffffffffffffffffffffffffffffffffff1660601b8152601401807f656e64706f696e74506172616d73000000000000000000000000000000000000815250600e0182815260200192505050604051602081830303815290604052805190602001206040518263ffffffff1660e01b81526004018082815260200191505060006040518083038186803b15801561345f57600080fd5b505afa158015613473573d6000803e3d6000fd5b505050506040513d6000823e3d601f19601f82011682018060405250602081101561349d57600080fd5b8101908080516401000000008111156134b557600080fd5b828101905060208101848111156134cb57600080fd5b81518560208202830111640100000000821117156134e857600080fd5b5050929190505050905092915050565b6000809054906101000a900473ffffffffffffffffffffffffffffffffffffffff1673ffffffffffffffffffffffffffffffffffffffff163373ffffffffffffffffffffffffffffffffffffffff161461355157600080fd5b600073ffffffffffffffffffffffffffffffffffffffff168173ffffffffffffffffffffffffffffffffffffffff16141561358b57600080fd5b8073ffffffffffffffffffffffffffffffffffffffff166000809054906101000a900473ffffffffffffffffffffffffffffffffffffffff1673ffffffffffffffffffffffffffffffffffffffff167f8be0079c531659141344cd1fd0a4f28419497f9722a3daafe3b4186f6b6457e060405160405180910390a3806000806101000a81548173ffffffffffffffffffffffffffffffffffffffff021916908373ffffffffffffffffffffffffffffffffffffffff16021790555050565b6000600360009054906101000a900473ffffffffffffffffffffffffffffffffffffffff1673ffffffffffffffffffffffffffffffffffffffff1663a6ed563e8360405160200180807f6f7261636c6573000000000000000000000000000000000000000000000000008152506007018273ffffffffffffffffffffffffffffffffffffffff1673ffffffffffffffffffffffffffffffffffffffff1660601b8152601401807f7469746c65000000000000000000000000000000000000000000000000000000815250600501915050604051602081830303815290604052805190602001206040518263ffffffff1660e01b81526004018082815260200191505060206040518083038186803b15801561376357600080fd5b505afa158015613777573d6000803e3d6000fd5b505050506040513d602081101561378d57600080fd5b81019080805190602001909291905050509050919050565b6137ae33610cca565b613820576040517f08c379a00000000000000000000000000000000000000000000000000000000081526004018080602001828103825260208152602001807f4572726f723a2050726f7669646572206973206e6f7420696e6974696174656481525060200191505060405180910390fd5b600360009054906101000a900473ffffffffffffffffffffffffffffffffffffffff1673ffffffffffffffffffffffffffffffffffffffff16634e91db083360405160200180807f6f7261636c6573000000000000000000000000000000000000000000000000008152506007018273ffffffffffffffffffffffffffffffffffffffff1673ffffffffffffffffffffffffffffffffffffffff1660601b8152601401807f7469746c6500000000000000000000000000000000000000000000000000000081525060050191505060405160208183030381529060405280519060200120836040518363ffffffff1660e01b81526004018083815260200182815260200192505050600060405180830381600087803b15801561394257600080fd5b505af1158015613956573d6000803e3d6000fd5b5050505050565b61396633610cca565b6139bb576040517f08c379a00000000000000000000000000000000000000000000000000000000081526004018080602001828103825260268152602001806145866026913960400191505060405180910390fd5b6139c5338361187a565b15613a38576040517f08c379a000000000000000000000000000000000000000000000000000000000815260040180806020018281038252601b8152602001807f4572726f723a204375727665206973206e6f742079657420736574000000000081525060200191505060405180910390fd5b600360009054906101000a900473ffffffffffffffffffffffffffffffffffffffff1673ffffffffffffffffffffffffffffffffffffffff166356e5cf2e338460405160200180807f6f7261636c6573000000000000000000000000000000000000000000000000008152506007018373ffffffffffffffffffffffffffffffffffffffff1673ffffffffffffffffffffffffffffffffffffffff1660601b8152601401807f656e64706f696e74506172616d73000000000000000000000000000000000000815250600e018281526020019250505060405160208183030381529060405280519060200120836040518363ffffffff1660e01b81526004018083815260200180602001828103825283818151815260200191508051906020019060200280838360005b83811015613b7d578082015181840152602081019050613b62565b505050509050019350505050600060405180830381600087803b158015613ba357600080fd5b505af1158015613bb7573d6000803e3d6000fd5b505050505050565b60006001905060008090505b8251811015613d82576000838281518110613be257fe5b6020026020010151905060008113613c62576040517f08c379a00000000000000000000000000000000000000000000000000000000081526004018080602001828103825260148152602001807f4572726f723a20496e76616c696420437572766500000000000000000000000081525060200191505060405180910390fd5b6000600182840101905084518110613ce2576040517f08c379a00000000000000000000000000000000000000000000000000000000081526004018080602001828103825260148152602001807f4572726f723a20496e76616c696420437572766500000000000000000000000081525060200191505060405180910390fd5b6000858281518110613cf057fe5b60200260200101519050848111613d6f576040517f08c379a00000000000000000000000000000000000000000000000000000000081526004018080602001828103825260148152602001807f4572726f723a20496e76616c696420437572766500000000000000000000000081525060200191505060405180910390fd5b8094506002830184019350505050613bcb565b600360009054906101000a900473ffffffffffffffffffffffffffffffffffffffff1673ffffffffffffffffffffffffffffffffffffffff1663a9fcf76b868660405160200180807f6f7261636c6573000000000000000000000000000000000000000000000000008152506007018373ffffffffffffffffffffffffffffffffffffffff1673ffffffffffffffffffffffffffffffffffffffff1660601b8152601401807f63757276657300000000000000000000000000000000000000000000000000008152506006018281526020019250505060405160208183030381529060405280519060200120856040518363ffffffff1660e01b81526004018083815260200180602001828103825283818151815260200191508051906020019060200280838360005b83811015613ec7578082015181840152602081019050613eac565b505050509050019350505050600060405180830381600087803b158015613eed57600080fd5b505af1158015613f01573d6000803e3d6000fd5b505050505050505050565b600080600360009054906101000a900473ffffffffffffffffffffffffffffffffffffffff1673ffffffffffffffffffffffffffffffffffffffff16632ecb0d64858560405160200180807f6f7261636c6573000000000000000000000000000000000000000000000000008152506007018373ffffffffffffffffffffffffffffffffffffffff1673ffffffffffffffffffffffffffffffffffffffff1660601b8152601401807f69735f706172616d5f7365740000000000000000000000000000000000000000815250600c0182815260200192505050604051602081830303815290604052805190602001206040518263ffffffff1660e01b81526004018082815260200191505060206040518083038186803b15801561402f57600080fd5b505afa158015614043573d6000803e3d6000fd5b505050506040513d602081101561405957600080fd5b810190808051906020019092919050505090506001811461407b57600061407e565b60015b91505092915050565b6000600260009054906101000a900473ffffffffffffffffffffffffffffffffffffffff1673ffffffffffffffffffffffffffffffffffffffff1663358177736040518163ffffffff1660e01b81526004018080602001828103825260088152602001807f444154414241534500000000000000000000000000000000000000000000000081525060200191505060206040518083038186803b15801561412d57600080fd5b505afa158015614141573d6000803e3d6000fd5b505050506040513d602081101561415757600080fd5b8101908080519060200190929190505050905080600360006101000a81548173ffffffffffffffffffffffffffffffffffffffff021916908373ffffffffffffffffffffffffffffffffffffffff16021790555050565b600360009054906101000a900473ffffffffffffffffffffffffffffffffffffffff1673ffffffffffffffffffffffffffffffffffffffff166354c552db8460405160200180807f6f7261636c6573000000000000000000000000000000000000000000000000008152506007018273ffffffffffffffffffffffffffffffffffffffff1673ffffffffffffffffffffffffffffffffffffffff1660601b8152601401807f7075626c69634b6579000000000000000000000000000000000000000000000081525060090191505060405160208183030381529060405280519060200120846040518363ffffffff1660e01b81526004018083815260200182815260200192505050600060405180830381600087803b1580156142d057600080fd5b505af11580156142e4573d6000803e3d6000fd5b50505050600360009054906101000a900473ffffffffffffffffffffffffffffffffffffffff1673ffffffffffffffffffffffffffffffffffffffff16634e91db088460405160200180807f6f7261636c6573000000000000000000000000000000000000000000000000008152506007018273ffffffffffffffffffffffffffffffffffffffff1673ffffffffffffffffffffffffffffffffffffffff1660601b8152601401807f7469746c6500000000000000000000000000000000000000000000000000000081525060050191505060405160208183030381529060405280519060200120836040518363ffffffff1660e01b81526004018083815260200182815260200192505050600060405180830381600087803b15801561440a57600080fd5b505af115801561441e573d6000803e3d6000fd5b50505050505050565b600360009054906101000a900473ffffffffffffffffffffffffffffffffffffffff1673ffffffffffffffffffffffffffffffffffffffff1663dd151d1e60405160200180807f6f7261636c65496e646578000000000000000000000000000000000000000000815250600b01905060405160208183030381529060405280519060200120836040518363ffffffff1660e01b8152600401808381526020018273ffffffffffffffffffffffffffffffffffffffff1673ffffffffffffffffffffffffffffffffffffffff16815260200192505050600060405180830381600087803b15801561451657600080fd5b505af115801561452a573d6000803e3d6000fd5b505050505056fe4572726f723a2050726f766964657220506172616d65746572206973206e6f742079657420696e697469616c697a65644572726f723a2050726f7669646572206973206e6f742079657420696e697469617465644572726f723a2050726f7669646572206973206e6f742079657420696e697469616c697a65644572726f723a2050726f766964657220697320616c726561647920696e697469617465644572726f723a20456e64706f696e74206d7573742068617665206e6f20626f6e64734572726f723a2043616e277420696e697469617465206e756c6c20656e64706f696e74a165627a7a7230582090d659902e3216e372dbb44896e3afc0d66d2260acd6515901ff915f5df930ba0029",
  "source": "pragma solidity ^0.5.8;\n// v1.0\n\nimport \"../../lib/lifecycle/Destructible.sol\";\nimport \"../../lib/ownership/Upgradable.sol\";\nimport \"../database/DatabaseInterface.sol\";\nimport \"./RegistryInterface.sol\";\n\ncontract Registry is Destructible, RegistryInterface, Upgradable {\n\n    event NewProvider(\n        address indexed provider,\n        bytes32 indexed title\n    );\n\n    event NewCurve(\n        address indexed provider,\n        bytes32 indexed endpoint,\n        int[] curve,\n        address indexed broker\n    );\n\n    DatabaseInterface public db;\n\n    constructor(address c) Upgradable(c) public {\n        _updateDependencies();\n    }\n\n    function _updateDependencies() internal {\n        address databaseAddress = coordinator.getContract(\"DATABASE\");\n        db = DatabaseInterface(databaseAddress);\n    }\n\n    /// @dev initiates a provider.\n    /// If no address->Oracle mapping exists, Oracle object is created\n    /// @param publicKey unique id for provider. used for encyrpted key swap for subscription endpoints\n    /// @param title name\n    function initiateProvider(\n        uint256 publicKey,\n        bytes32 title\n    )\n        public\n        returns (bool)\n    {\n        require(!isProviderInitiated(msg.sender), \"Error: Provider is already initiated\");\n        createOracle(msg.sender, publicKey, title);\n        addOracle(msg.sender);\n        emit NewProvider(msg.sender, title);\n        return true;\n    }\n\n    /// @dev initiates an endpoint specific provider curve\n    /// If oracle[specfifier] is uninitialized, Curve is mapped to endpoint\n    /// @param endpoint specifier of endpoint. currently \"smart_contract\" or \"socket_subscription\"\n    /// @param curve flattened array of all segments, coefficients across all polynomial terms, [e0,l0,c0,c1,c2,...]\n    /// @param broker address for endpoint. if non-zero address, only this address will be able to bond/unbond\n    function initiateProviderCurve(\n        bytes32 endpoint,\n        int256[] memory curve,\n        address broker\n    )\n        public\n        returns (bool)\n    {\n        // Provider must be initiated\n        require(isProviderInitiated(msg.sender), \"Error: Provider is not yet initiated\");\n        // Can't reset their curve\n        require(getCurveUnset(msg.sender, endpoint), \"Error: Curve is already set\");\n        // Can't initiate null endpoint\n        require(endpoint != bytes32(0), \"Error: Can't initiate null endpoint\");\n\n        setCurve(msg.sender, endpoint, curve);\n        db.pushBytesArray(keccak256(abi.encodePacked('oracles', msg.sender, 'endpoints')), endpoint);\n        db.setBytes32(keccak256(abi.encodePacked('oracles', msg.sender, endpoint, 'broker')), bytes32(uint256(broker) << 96));\n\n        emit NewCurve(msg.sender, endpoint, curve, broker);\n\n        return true;\n    }\n\n    // Sets provider data\n    function setProviderParameter(bytes32 key, bytes memory value) public {\n        // Provider must be initiated\n        require(isProviderInitiated(msg.sender), \"Error: Provider is not yet initiated\");\n\n        if (!isProviderParamInitialized(msg.sender, key)) {\n            // initialize this provider param\n            db.setNumber(keccak256(abi.encodePacked('oracles', msg.sender, 'is_param_set', key)), 1);\n            db.pushBytesArray(keccak256(abi.encodePacked('oracles', msg.sender, 'providerParams')), key);\n        }\n        db.setBytes(keccak256(abi.encodePacked('oracles', msg.sender, 'providerParams', key)), value);\n    }\n\n    // Gets provider data\n    function getProviderParameter(address provider, bytes32 key) public view returns (bytes memory){\n        // Provider must be initiated\n        require(isProviderInitiated(provider), \"Error: Provider is not yet initiated\");\n        require(isProviderParamInitialized(provider, key), \"Error: Provider Parameter is not yet initialized\");\n        return db.getBytes(keccak256(abi.encodePacked('oracles', provider, 'providerParams', key)));\n    }\n\n    // Gets keys of all provider params\n    function getAllProviderParams(address provider) public view returns (bytes32[] memory){\n        // Provider must be initiated\n        require(isProviderInitiated(provider), \"Error: Provider is not yet initiated\");\n        return db.getBytesArray(keccak256(abi.encodePacked('oracles', provider, 'providerParams')));\n    }\n\n    // Set endpoint specific parameters for a given endpoint\n    function setEndpointParams(bytes32 endpoint, bytes32[] memory endpointParams) public {\n        // Provider must be initiated\n        require(isProviderInitiated(msg.sender), \"Error: Provider is not yet initialized\");\n        // Can't set endpoint params on an unset provider\n        require(!getCurveUnset(msg.sender, endpoint), \"Error: Curve is not yet set\");\n\n        db.setBytesArray(keccak256(abi.encodePacked('oracles', msg.sender, 'endpointParams', endpoint)), endpointParams);\n    }\n\n    //Set title for registered provider account\n    function setProviderTitle(bytes32 title) public {\n        require(isProviderInitiated(msg.sender), \"Error: Provider is not initiated\");\n        db.setBytes32(keccak256(abi.encodePacked('oracles', msg.sender, \"title\")), title);\n    }\n\n    //Clear an endpoint with no bonds\n    function clearEndpoint(bytes32 endpoint) public {\n        require(isProviderInitiated(msg.sender), \"Error: Provider is not initiated\");\n\n        uint256 bound = db.getNumber(keccak256(abi.encodePacked('totalBound', msg.sender, endpoint)));\n        require(bound == 0, \"Error: Endpoint must have no bonds\");\n\n        int256[] memory nullArray = new int256[](0);\n        bytes32[] memory endpoints =  db.getBytesArray(keccak256(abi.encodePacked(\"oracles\", msg.sender, \"endpoints\")));\n        for(uint256 i = 0; i < endpoints.length; i++) {\n            if(endpoints[i] == endpoint) {\n               db.setBytesArrayIndex(keccak256(abi.encodePacked(\"oracles\", msg.sender, \"endpoints\")), i, bytes32(0));\n               break;\n            }\n        }\n        db.pushBytesArray(keccak256(abi.encodePacked('oracles', msg.sender, 'endpoints')), bytes32(0));\n        db.setBytes32(keccak256(abi.encodePacked('oracles', msg.sender, endpoint, 'broker')), bytes32(0));\n        db.setIntArray(keccak256(abi.encodePacked('oracles', msg.sender, 'curves', endpoint)), nullArray);\n    }\n\n    /// @return public key\n    function getProviderPublicKey(address provider) public view returns (uint256) {\n        return getPublicKey(provider);\n    }\n\n    /// @return oracle name\n    function getProviderTitle(address provider) public view returns (bytes32) {\n        return getTitle(provider);\n    }\n\n\n    /// @dev get curve paramaters from oracle\n    function getProviderCurve(\n        address provider,\n        bytes32 endpoint\n    )\n        public\n        view\n        returns (int[] memory)\n    {\n        require(!getCurveUnset(provider, endpoint), \"Error: Curve is not yet set\");\n        return db.getIntArray(keccak256(abi.encodePacked('oracles', provider, 'curves', endpoint)));\n    }\n\n    function getProviderCurveLength(address provider, bytes32 endpoint) public view returns (uint256){\n        require(!getCurveUnset(provider, endpoint), \"Error: Curve is not yet set\");\n        return db.getIntArray(keccak256(abi.encodePacked('oracles', provider, 'curves', endpoint))).length;\n    }\n\n    /// @dev is provider initiated\n    /// @param oracleAddress the provider address\n    /// @return Whether or not the provider has initiated in the Registry.\n    function isProviderInitiated(address oracleAddress) public view returns (bool) {\n        return getProviderTitle(oracleAddress) != 0;\n    }\n\n    /*** STORAGE FUNCTIONS ***/\n    /// @dev get public key of provider\n    function getPublicKey(address provider) public view returns (uint256) {\n        return db.getNumber(keccak256(abi.encodePacked(\"oracles\", provider, \"publicKey\")));\n    }\n\n    /// @dev get title of provider\n    function getTitle(address provider) public view returns (bytes32) {\n        return db.getBytes32(keccak256(abi.encodePacked(\"oracles\", provider, \"title\")));\n    }\n\n    /// @dev get the endpoints of a provider\n    function getProviderEndpoints(address provider) public view returns (bytes32[] memory) {\n        return db.getBytesArray(keccak256(abi.encodePacked(\"oracles\", provider, \"endpoints\")));\n    }\n\n    /// @dev get all endpoint params\n    function getEndpointParams(address provider, bytes32 endpoint) public view returns (bytes32[] memory) {\n        return db.getBytesArray(keccak256(abi.encodePacked('oracles', provider, 'endpointParams', endpoint)));\n    }\n\n    /// @dev get broker address for endpoint\n    function getEndpointBroker(address oracleAddress, bytes32 endpoint) public view returns (address) {\n        return address(uint160(uint256(db.getBytes32(keccak256(abi.encodePacked('oracles', oracleAddress, endpoint, 'broker'))))));\n    }\n\n    function getCurveUnset(address provider, bytes32 endpoint) public view returns (bool) {\n        return db.getIntArrayLength(keccak256(abi.encodePacked('oracles', provider, 'curves', endpoint))) == 0;\n    }\n\n    /// @dev get provider address by index\n    function getOracleAddress(uint256 index) public view returns (address) {\n        return db.getAddressArrayIndex(keccak256(abi.encodePacked('oracleIndex')), index);\n    }\n\n    /// @dev get all oracle addresses\n    function getAllOracles() external view returns (address[] memory) {\n        return db.getAddressArray(keccak256(abi.encodePacked('oracleIndex')));\n    }\n\n    ///  @dev add new provider to mapping\n    function createOracle(address provider, uint256 publicKey, bytes32 title) private {\n        db.setNumber(keccak256(abi.encodePacked('oracles', provider, \"publicKey\")), uint256(publicKey));\n        db.setBytes32(keccak256(abi.encodePacked('oracles', provider, \"title\")), title);\n    }\n\n    /// @dev add new provider address to oracles array\n    function addOracle(address provider) private {\n        db.pushAddressArray(keccak256(abi.encodePacked('oracleIndex')), provider);\n    }\n\n    /// @dev initialize new curve for provider\n    /// @param provider address of provider\n    /// @param endpoint endpoint specifier\n    /// @param curve flattened array of all segments, coefficients across all polynomial terms, [l0,c0,c1,c2,..., ck, e0, ...]\n    function setCurve(\n        address provider,\n        bytes32 endpoint,\n        int[] memory curve\n    )\n        private\n    {\n        uint prevEnd = 1;\n        uint index = 0;\n\n        // Validate the curve\n        while (index < curve.length) {\n            // Validate the length of the piece\n            int len = curve[index];\n            require(len > 0, \"Error: Invalid Curve\");\n\n            // Validate the end index of the piece\n            uint endIndex = index + uint(len) + 1;\n            require(endIndex < curve.length, \"Error: Invalid Curve\");\n\n            // Validate that the end is continuous\n            int end = curve[endIndex];\n            require(uint(end) > prevEnd, \"Error: Invalid Curve\");\n\n            prevEnd = uint(end);\n            index += uint(len) + 2;\n        }\n\n        db.setIntArray(keccak256(abi.encodePacked('oracles', provider, 'curves', endpoint)), curve);\n    }\n\n    // Determines whether this parameter has been initialized\n    function isProviderParamInitialized(address provider, bytes32 key) private view returns (bool){\n        uint256 val = db.getNumber(keccak256(abi.encodePacked('oracles', provider, 'is_param_set', key)));\n        return (val == 1) ? true : false;\n    }\n\n    /*************************************** STORAGE ****************************************\n    * 'oracles', provider, 'endpoints' => {bytes32[]} array of endpoints for this oracle\n    * 'oracles', provider, 'endpointParams', endpoint => {bytes32[]} array of params for this endpoint\n    * 'oracles', provider, 'curves', endpoint => {uint[]} curve array for this endpoint\n    * 'oracles', provider, 'broker', endpoint => {bytes32} broker address for this endpoint\n    * 'oracles', provider, 'is_param_set', key => {uint} Is this provider parameter set (0/1)\n    * 'oracles', provider, \"publicKey\" => {uint} public key for this oracle\n    * 'oracles', provider, \"title\" => {bytes32} title of this oracle\n    ****************************************************************************************/\n}\n",
  "sourcePath": "/Users/moinuddin/Desktop/Zap Projects/main-market-template/contracts/platform/registry/Registry.sol",
  "compiler": {
    "name": "solc",
    "version": "0.5.8+commit.23d335f2.Emscripten.clang"
  },
  "schemaVersion": "3.0.11",
  "updatedAt": "2019-06-24T03:26:27.708Z",
  "devdoc": {
    "methods": {
      "getAllOracles()": {
        "details": "get all oracle addresses"
      },
      "getEndpointBroker(address,bytes32)": {
        "details": "get broker address for endpoint"
      },
      "getEndpointParams(address,bytes32)": {
        "details": "get all endpoint params"
      },
      "getOracleAddress(uint256)": {
        "details": "get provider address by index"
      },
      "getProviderCurve(address,bytes32)": {
        "details": "get curve paramaters from oracle"
      },
      "getProviderEndpoints(address)": {
        "details": "get the endpoints of a provider"
      },
      "getProviderPublicKey(address)": {
        "return": "public key"
      },
      "getProviderTitle(address)": {
        "return": "oracle name"
      },
      "getPublicKey(address)": {
        "details": "get public key of provider"
      },
      "getTitle(address)": {
        "details": "get title of provider"
      },
      "initiateProvider(uint256,bytes32)": {
        "details": "initiates a provider. If no address->Oracle mapping exists, Oracle object is created",
        "params": {
          "publicKey": "unique id for provider. used for encyrpted key swap for subscription endpoints",
          "title": "name"
        }
      },
      "initiateProviderCurve(bytes32,int256[],address)": {
        "details": "initiates an endpoint specific provider curve If oracle[specfifier] is uninitialized, Curve is mapped to endpoint",
        "params": {
          "broker": "address for endpoint. if non-zero address, only this address will be able to bond/unbond",
          "curve": "flattened array of all segments, coefficients across all polynomial terms, [e0,l0,c0,c1,c2,...]",
          "endpoint": "specifier of endpoint. currently \"smart_contract\" or \"socket_subscription\""
        }
      },
      "isProviderInitiated(address)": {
        "details": "is provider initiated",
        "params": {
          "oracleAddress": "the provider address"
        },
        "return": "Whether or not the provider has initiated in the Registry."
      },
      "transferOwnership(address)": {
        "details": "Allows the current owner to transfer control of the contract to a newOwner.",
        "params": {
          "newOwner": "The address to transfer ownership to."
        }
      }
    }
  },
  "userdoc": {
    "methods": {}
  }
}