{
  "contractName": "SampleContest",
  "abi": [
    {
      "constant": true,
      "inputs": [],
      "name": "status",
      "outputs": [
        {
          "name": "",
          "type": "uint8"
        }
      ],
      "payable": false,
      "stateMutability": "view",
      "type": "function"
    },
    {
      "constant": true,
      "inputs": [],
      "name": "ttl",
      "outputs": [
        {
          "name": "",
          "type": "uint256"
        }
      ],
      "payable": false,
      "stateMutability": "view",
      "type": "function"
    },
    {
      "constant": true,
      "inputs": [
        {
          "name": "",
          "type": "bytes32"
        }
      ],
      "name": "curves",
      "outputs": [
        {
          "name": "",
          "type": "address"
        }
      ],
      "payable": false,
      "stateMutability": "view",
      "type": "function"
    },
    {
      "constant": true,
      "inputs": [],
      "name": "oracle",
      "outputs": [
        {
          "name": "",
          "type": "address"
        }
      ],
      "payable": false,
      "stateMutability": "view",
      "type": "function"
    },
    {
      "constant": true,
      "inputs": [],
      "name": "owner",
      "outputs": [
        {
          "name": "",
          "type": "address"
        }
      ],
      "payable": false,
      "stateMutability": "view",
      "type": "function"
    },
    {
      "constant": true,
      "inputs": [],
      "name": "coord",
      "outputs": [
        {
          "name": "",
          "type": "address"
        }
      ],
      "payable": false,
      "stateMutability": "view",
      "type": "function"
    },
    {
      "constant": true,
      "inputs": [
        {
          "name": "",
          "type": "address"
        }
      ],
      "name": "redeemed",
      "outputs": [
        {
          "name": "",
          "type": "uint8"
        }
      ],
      "payable": false,
      "stateMutability": "view",
      "type": "function"
    },
    {
      "constant": true,
      "inputs": [],
      "name": "winValue",
      "outputs": [
        {
          "name": "",
          "type": "uint256"
        }
      ],
      "payable": false,
      "stateMutability": "view",
      "type": "function"
    },
    {
      "constant": true,
      "inputs": [],
      "name": "winner",
      "outputs": [
        {
          "name": "",
          "type": "bytes32"
        }
      ],
      "payable": false,
      "stateMutability": "view",
      "type": "function"
    },
    {
      "constant": true,
      "inputs": [],
      "name": "tokenFactory",
      "outputs": [
        {
          "name": "",
          "type": "address"
        }
      ],
      "payable": false,
      "stateMutability": "view",
      "type": "function"
    },
    {
      "constant": false,
      "inputs": [
        {
          "name": "newOwner",
          "type": "address"
        }
      ],
      "name": "transferOwnership",
      "outputs": [],
      "payable": false,
      "stateMutability": "nonpayable",
      "type": "function"
    },
    {
      "constant": true,
      "inputs": [
        {
          "name": "",
          "type": "uint256"
        }
      ],
      "name": "curves_list",
      "outputs": [
        {
          "name": "",
          "type": "bytes32"
        }
      ],
      "payable": false,
      "stateMutability": "view",
      "type": "function"
    },
    {
      "constant": true,
      "inputs": [],
      "name": "reserveToken",
      "outputs": [
        {
          "name": "",
          "type": "address"
        }
      ],
      "payable": false,
      "stateMutability": "view",
      "type": "function"
    },
    {
      "constant": true,
      "inputs": [
        {
          "name": "",
          "type": "uint256"
        }
      ],
      "name": "redeemed_list",
      "outputs": [
        {
          "name": "",
          "type": "address"
        }
      ],
      "payable": false,
      "stateMutability": "view",
      "type": "function"
    },
    {
      "inputs": [
        {
          "name": "coordinator",
          "type": "address"
        },
        {
          "name": "factory",
          "type": "address"
        },
        {
          "name": "providerPubKey",
          "type": "uint256"
        },
        {
          "name": "providerTitle",
          "type": "bytes32"
        }
      ],
      "payable": false,
      "stateMutability": "nonpayable",
      "type": "constructor"
    },
    {
      "anonymous": false,
      "inputs": [
        {
          "indexed": false,
          "name": "tokenAddress",
          "type": "address"
        }
      ],
      "name": "DotTokenCreated",
      "type": "event"
    },
    {
      "anonymous": false,
      "inputs": [
        {
          "indexed": true,
          "name": "endpoint",
          "type": "bytes32"
        },
        {
          "indexed": true,
          "name": "numDots",
          "type": "uint256"
        },
        {
          "indexed": true,
          "name": "sender",
          "type": "address"
        }
      ],
      "name": "Bonded",
      "type": "event"
    },
    {
      "anonymous": false,
      "inputs": [
        {
          "indexed": true,
          "name": "endpoint",
          "type": "bytes32"
        },
        {
          "indexed": true,
          "name": "amount",
          "type": "uint256"
        },
        {
          "indexed": true,
          "name": "sender",
          "type": "address"
        }
      ],
      "name": "Unbonded",
      "type": "event"
    },
    {
      "anonymous": false,
      "inputs": [
        {
          "indexed": true,
          "name": "oracle",
          "type": "address"
        }
      ],
      "name": "Initialized",
      "type": "event"
    },
    {
      "anonymous": false,
      "inputs": [],
      "name": "Closed",
      "type": "event"
    },
    {
      "anonymous": false,
      "inputs": [
        {
          "indexed": false,
          "name": "winner",
          "type": "bytes32"
        }
      ],
      "name": "Judged",
      "type": "event"
    },
    {
      "anonymous": false,
      "inputs": [
        {
          "indexed": false,
          "name": "winValue",
          "type": "uint256"
        },
        {
          "indexed": false,
          "name": "winTokens",
          "type": "uint256"
        }
      ],
      "name": "Settled",
      "type": "event"
    },
    {
      "anonymous": false,
      "inputs": [],
      "name": "Reset",
      "type": "event"
    },
    {
      "anonymous": false,
      "inputs": [
        {
          "indexed": true,
          "name": "previousOwner",
          "type": "address"
        },
        {
          "indexed": true,
          "name": "newOwner",
          "type": "address"
        }
      ],
      "name": "OwnershipTransferred",
      "type": "event"
    },
    {
      "constant": false,
      "inputs": [
        {
          "name": "oracleAddress",
          "type": "address"
        },
        {
          "name": "_ttl",
          "type": "uint256"
        }
      ],
      "name": "initializeContest",
      "outputs": [],
      "payable": false,
      "stateMutability": "nonpayable",
      "type": "function"
    },
    {
      "constant": false,
      "inputs": [
        {
          "name": "endpoint",
          "type": "bytes32"
        }
      ],
      "name": "judge",
      "outputs": [],
      "payable": false,
      "stateMutability": "nonpayable",
      "type": "function"
    },
    {
      "constant": false,
      "inputs": [],
      "name": "settle",
      "outputs": [],
      "payable": false,
      "stateMutability": "nonpayable",
      "type": "function"
    },
    {
      "constant": false,
      "inputs": [],
      "name": "reset",
      "outputs": [],
      "payable": false,
      "stateMutability": "nonpayable",
      "type": "function"
    },
    {
      "constant": false,
      "inputs": [
        {
          "name": "endpoint",
          "type": "bytes32"
        },
        {
          "name": "symbol",
          "type": "bytes32"
        },
        {
          "name": "curve",
          "type": "int256[]"
        }
      ],
      "name": "initializeCurve",
      "outputs": [
        {
          "name": "",
          "type": "address"
        }
      ],
      "payable": false,
      "stateMutability": "nonpayable",
      "type": "function"
    },
    {
      "constant": false,
      "inputs": [
        {
          "name": "endpoint",
          "type": "bytes32"
        },
        {
          "name": "numDots",
          "type": "uint256"
        }
      ],
      "name": "bond",
      "outputs": [],
      "payable": false,
      "stateMutability": "nonpayable",
      "type": "function"
    },
    {
      "constant": false,
      "inputs": [
        {
          "name": "endpoint",
          "type": "bytes32"
        },
        {
          "name": "numDots",
          "type": "uint256"
        }
      ],
      "name": "unbond",
      "outputs": [
        {
          "name": "",
          "type": "uint256"
        }
      ],
      "payable": false,
      "stateMutability": "nonpayable",
      "type": "function"
    },
    {
      "constant": true,
      "inputs": [
        {
          "name": "endpoint",
          "type": "bytes32"
        }
      ],
      "name": "getTokenAddress",
      "outputs": [
        {
          "name": "",
          "type": "address"
        }
      ],
      "payable": false,
      "stateMutability": "view",
      "type": "function"
    },
    {
      "constant": true,
      "inputs": [],
      "name": "getEndpoints",
      "outputs": [
        {
          "name": "",
          "type": "bytes32[]"
        }
      ],
      "payable": false,
      "stateMutability": "view",
      "type": "function"
    },
    {
      "constant": true,
      "inputs": [],
      "name": "getStatus",
      "outputs": [
        {
          "name": "",
          "type": "uint256"
        }
      ],
      "payable": false,
      "stateMutability": "view",
      "type": "function"
    },
    {
      "constant": true,
      "inputs": [
        {
          "name": "_endpoint",
          "type": "bytes32"
        }
      ],
      "name": "isEndpointValid",
      "outputs": [
        {
          "name": "",
          "type": "bool"
        }
      ],
      "payable": false,
      "stateMutability": "view",
      "type": "function"
    },
    {
      "constant": true,
      "inputs": [
        {
          "name": "x",
          "type": "address"
        }
      ],
      "name": "toBytes",
      "outputs": [
        {
          "name": "b",
          "type": "bytes"
        }
      ],
      "payable": false,
      "stateMutability": "pure",
      "type": "function"
    },
    {
      "constant": true,
      "inputs": [
        {
          "name": "x",
          "type": "bytes32"
        }
      ],
      "name": "bytes32ToString",
      "outputs": [
        {
          "name": "",
          "type": "string"
        }
      ],
      "payable": false,
      "stateMutability": "pure",
      "type": "function"
    },
    {
      "constant": true,
      "inputs": [
        {
          "name": "b",
          "type": "bytes"
        }
      ],
      "name": "bytesToAddr",
      "outputs": [
        {
          "name": "",
          "type": "address"
        }
      ],
      "payable": false,
      "stateMutability": "pure",
      "type": "function"
    }
  ],
  "bytecode": "0x60806040523480156200001157600080fd5b5060405160808062004401833981018060405260808110156200003357600080fd5b8101908080519060200190929190805190602001909291908051906020019092919080519060200190929190505050336000806101000a81548173ffffffffffffffffffffffffffffffffffffffff021916908373ffffffffffffffffffffffffffffffffffffffff16021790555083600360006101000a81548173ffffffffffffffffffffffffffffffffffffffff021916908373ffffffffffffffffffffffffffffffffffffffff160217905550600360009054906101000a900473ffffffffffffffffffffffffffffffffffffffff1673ffffffffffffffffffffffffffffffffffffffff1663358177736040518163ffffffff1660e01b81526004018080602001828103825260098152602001807f5a41505f544f4b454e000000000000000000000000000000000000000000000081525060200191505060206040518083038186803b1580156200018857600080fd5b505afa1580156200019d573d6000803e3d6000fd5b505050506040513d6020811015620001b457600080fd5b8101908080519060200190929190505050600260006101000a81548173ffffffffffffffffffffffffffffffffffffffff021916908373ffffffffffffffffffffffffffffffffffffffff160217905550600260009054906101000a900473ffffffffffffffffffffffffffffffffffffffff1673ffffffffffffffffffffffffffffffffffffffff1663095ea7b3600360009054906101000a900473ffffffffffffffffffffffffffffffffffffffff1673ffffffffffffffffffffffffffffffffffffffff1663358177736040518163ffffffff1660e01b81526004018080602001828103825260078152602001807f424f4e444147450000000000000000000000000000000000000000000000000081525060200191505060206040518083038186803b158015620002e857600080fd5b505afa158015620002fd573d6000803e3d6000fd5b505050506040513d60208110156200031457600080fd5b81019080805190602001909291905050506000196040518363ffffffff1660e01b8152600401808373ffffffffffffffffffffffffffffffffffffffff1673ffffffffffffffffffffffffffffffffffffffff16815260200182815260200192505050602060405180830381600087803b1580156200039257600080fd5b505af1158015620003a7573d6000803e3d6000fd5b505050506040513d6020811015620003be57600080fd5b81019080805190602001909291905050505082600460006101000a81548173ffffffffffffffffffffffffffffffffffffffff021916908373ffffffffffffffffffffffffffffffffffffffff1602179055506000600360009054906101000a900473ffffffffffffffffffffffffffffffffffffffff1673ffffffffffffffffffffffffffffffffffffffff1663358177736040518163ffffffff1660e01b81526004018080602001828103825260088152602001807f524547495354525900000000000000000000000000000000000000000000000081525060200191505060206040518083038186803b158015620004b857600080fd5b505afa158015620004cd573d6000803e3d6000fd5b505050506040513d6020811015620004e457600080fd5b810190808051906020019092919050505090508073ffffffffffffffffffffffffffffffffffffffff1663af87c83384846040518363ffffffff1660e01b81526004018083815260200182815260200192505050602060405180830381600087803b1580156200055357600080fd5b505af115801562000568573d6000803e3d6000fd5b505050506040513d60208110156200057f57600080fd5b8101908080519060200190929190505050506000600a60006101000a81548160ff02191690836004811115620005b157fe5b02179055505050505050613e3680620005cb6000396000f3fe608060405234801561001057600080fd5b50600436106101c45760003560e01c80639201de55116100f9578063dfbf53ae11610097578063f2fde38b11610071578063f2fde38b146109f3578063f3457c0114610a37578063f4325d6714610a79578063fe97d6b314610ac3576101c4565b8063dfbf53ae1461095d578063e41031431461097b578063e77772fe146109a9576101c4565b8063b12e4410116100d3578063b12e441014610879578063b6323138146108e7578063bdb60f4514610905578063d826f88f14610953576101c4565b80639201de551461072a5780639495c25a146107d15780639f4568ef1461081b576101c4565b8063593b79fe1161016657806366903e801161014057806366903e80146105e25780637dc0d1d0146106505780638ba3dbee1461069a5780638da5cb5b146106e0576101c4565b8063593b79fe146103cb5780635d7c83f1146104885780635ef6228c146104e7576101c4565b80634d8de4fc116101a25780634d8de4fc1461030b5780634e69d560146103575780634e8b1dd51461037557806351f9321514610393576101c4565b806306af0650146101c957806311da60b4146102d5578063200d2ed2146102df575b600080fd5b610293600480360360608110156101df57600080fd5b8101908080359060200190929190803590602001909291908035906020019064010000000081111561021057600080fd5b82018360208201111561022257600080fd5b8035906020019184602083028401116401000000008311171561024457600080fd5b919080806020026020016040519081016040528093929190818152602001838360200280828437600081840152601f19601f820116905080830192505050505050509192919290505050610b31565b604051808273ffffffffffffffffffffffffffffffffffffffff1673ffffffffffffffffffffffffffffffffffffffff16815260200191505060405180910390f35b6102dd611057565b005b6102e7611698565b604051808260048111156102f757fe5b60ff16815260200191505060405180910390f35b6103416004803603604081101561032157600080fd5b8101908080359060200190929190803590602001909291905050506116ab565b6040518082815260200191505060405180910390f35b61035f61243f565b6040518082815260200191505060405180910390f35b61037d612461565b6040518082815260200191505060405180910390f35b6103c9600480360360408110156103a957600080fd5b810190808035906020019092919080359060200190929190505050612467565b005b61040d600480360360208110156103e157600080fd5b81019080803573ffffffffffffffffffffffffffffffffffffffff169060200190929190505050612d67565b6040518080602001828103825283818151815260200191508051906020019080838360005b8381101561044d578082015181840152602081019050610432565b50505050905090810190601f16801561047a5780820380516001836020036101000a031916815260200191505b509250505060405180910390f35b610490612e29565b6040518080602001828103825283818151815260200191508051906020019060200280838360005b838110156104d35780820151818401526020810190506104b8565b505050509050019250505060405180910390f35b6105a0600480360360208110156104fd57600080fd5b810190808035906020019064010000000081111561051a57600080fd5b82018360208201111561052c57600080fd5b8035906020019184600183028401116401000000008311171561054e57600080fd5b91908080601f016020809104026020016040519081016040528093929190818152602001838380828437600081840152601f19601f820116905080830192505050505050509192919290505050612e81565b604051808273ffffffffffffffffffffffffffffffffffffffff1673ffffffffffffffffffffffffffffffffffffffff16815260200191505060405180910390f35b61060e600480360360208110156105f857600080fd5b8101908080359060200190929190505050612e95565b604051808273ffffffffffffffffffffffffffffffffffffffff1673ffffffffffffffffffffffffffffffffffffffff16815260200191505060405180910390f35b610658612ec8565b604051808273ffffffffffffffffffffffffffffffffffffffff1673ffffffffffffffffffffffffffffffffffffffff16815260200191505060405180910390f35b6106c6600480360360208110156106b057600080fd5b8101908080359060200190929190505050612eee565b604051808215151515815260200191505060405180910390f35b6106e8612f44565b604051808273ffffffffffffffffffffffffffffffffffffffff1673ffffffffffffffffffffffffffffffffffffffff16815260200191505060405180910390f35b6107566004803603602081101561074057600080fd5b8101908080359060200190929190505050612f69565b6040518080602001828103825283818151815260200191508051906020019080838360005b8381101561079657808201518184015260208101905061077b565b50505050905090810190601f1680156107c35780820380516001836020036101000a031916815260200191505b509250505060405180910390f35b6107d9612fce565b604051808273ffffffffffffffffffffffffffffffffffffffff1673ffffffffffffffffffffffffffffffffffffffff16815260200191505060405180910390f35b61085d6004803603602081101561083157600080fd5b81019080803573ffffffffffffffffffffffffffffffffffffffff169060200190929190505050612ff4565b604051808260ff1660ff16815260200191505060405180910390f35b6108a56004803603602081101561088f57600080fd5b8101908080359060200190929190505050613014565b604051808273ffffffffffffffffffffffffffffffffffffffff1673ffffffffffffffffffffffffffffffffffffffff16815260200191505060405180910390f35b6108ef61321e565b6040518082815260200191505060405180910390f35b6109516004803603604081101561091b57600080fd5b81019080803573ffffffffffffffffffffffffffffffffffffffff16906020019092919080359060200190929190505050613224565b005b61095b6133ef565b005b6109656136fe565b6040518082815260200191505060405180910390f35b6109a76004803603602081101561099157600080fd5b8101908080359060200190929190505050613704565b005b6109b1613923565b604051808273ffffffffffffffffffffffffffffffffffffffff1673ffffffffffffffffffffffffffffffffffffffff16815260200191505060405180910390f35b610a3560048036036020811015610a0957600080fd5b81019080803573ffffffffffffffffffffffffffffffffffffffff169060200190929190505050613949565b005b610a6360048036036020811015610a4d57600080fd5b8101908080359060200190929190505050613a9a565b6040518082815260200191505060405180910390f35b610a81613abb565b604051808273ffffffffffffffffffffffffffffffffffffffff1673ffffffffffffffffffffffffffffffffffffffff16815260200191505060405180910390f35b610aef60048036036020811015610ad957600080fd5b8101908080359060200190929190505050613ae1565b604051808273ffffffffffffffffffffffffffffffffffffffff1673ffffffffffffffffffffffffffffffffffffffff16815260200191505060405180910390f35b60008073ffffffffffffffffffffffffffffffffffffffff16600b600086815260200190815260200160002060009054906101000a900473ffffffffffffffffffffffffffffffffffffffff1673ffffffffffffffffffffffffffffffffffffffff1614610bea576040517f08c379a000000000000000000000000000000000000000000000000000000000815260040180806020018281038252604f815260200180613d3e604f913960600191505060405180910390fd5b6000600360009054906101000a900473ffffffffffffffffffffffffffffffffffffffff1673ffffffffffffffffffffffffffffffffffffffff1663358177736040518163ffffffff1660e01b81526004018080602001828103825260088152602001807f524547495354525900000000000000000000000000000000000000000000000081525060200191505060206040518083038186803b158015610c9057600080fd5b505afa158015610ca4573d6000803e3d6000fd5b505050506040513d6020811015610cba57600080fd5b810190808051906020019092919050505090508073ffffffffffffffffffffffffffffffffffffffff1663238b3aed8685306040518463ffffffff1660e01b815260040180848152602001806020018373ffffffffffffffffffffffffffffffffffffffff1673ffffffffffffffffffffffffffffffffffffffff168152602001828103825284818151815260200191508051906020019060200280838360005b83811015610d76578082015181840152602081019050610d5b565b50505050905001945050505050602060405180830381600087803b158015610d9d57600080fd5b505af1158015610db1573d6000803e3d6000fd5b505050506040513d6020811015610dc757600080fd5b810190808051906020019092919050505050610df3610de586612f69565b610dee86612f69565b613b1d565b600b600087815260200190815260200160002060006101000a81548173ffffffffffffffffffffffffffffffffffffffff021916908373ffffffffffffffffffffffffffffffffffffffff160217905550600c8590806001815401808255809150509060018203906000526020600020016000909192909190915055508073ffffffffffffffffffffffffffffffffffffffff16635750644a86610ec9600b60008a815260200190815260200160002060009054906101000a900473ffffffffffffffffffffffffffffffffffffffff16612d67565b6040518363ffffffff1660e01b81526004018083815260200180602001828103825283818151815260200191508051906020019080838360005b83811015610f1e578082015181840152602081019050610f03565b50505050905090810190601f168015610f4b5780820380516001836020036101000a031916815260200191505b509350505050600060405180830381600087803b158015610f6b57600080fd5b505af1158015610f7f573d6000803e3d6000fd5b505050507f6c98c7e1fb155d4c2c1f008682fd94fb74d1c9667207aaaa9ab65cee2b38ea7a600b600087815260200190815260200160002060009054906101000a900473ffffffffffffffffffffffffffffffffffffffff16604051808273ffffffffffffffffffffffffffffffffffffffff1673ffffffffffffffffffffffffffffffffffffffff16815260200191505060405180910390a1600b600086815260200190815260200160002060009054906101000a900473ffffffffffffffffffffffffffffffffffffffff169150509392505050565b6002600481111561106457fe5b600a60009054906101000a900460ff16600481111561107f57fe5b146110f2576040517f08c379a00000000000000000000000000000000000000000000000000000000081526004018080602001828103825260158152602001807f77696e6e6572206e6f742064657465726d696e6564000000000000000000000081525060200191505060405180910390fd5b600360009054906101000a900473ffffffffffffffffffffffffffffffffffffffff1673ffffffffffffffffffffffffffffffffffffffff1663358177736040518163ffffffff1660e01b81526004018080602001828103825260078152602001807f424f4e444147450000000000000000000000000000000000000000000000000081525060200191505060206040518083038186803b15801561119657600080fd5b505afa1580156111aa573d6000803e3d6000fd5b505050506040513d60208110156111c057600080fd5b8101908080519060200190929190505050600560006101000a81548173ffffffffffffffffffffffffffffffffffffffff021916908373ffffffffffffffffffffffffffffffffffffffff1602179055506000600560009054906101000a900473ffffffffffffffffffffffffffffffffffffffff1673ffffffffffffffffffffffffffffffffffffffff16631d7b5e22306008546040518363ffffffff1660e01b8152600401808373ffffffffffffffffffffffffffffffffffffffff1673ffffffffffffffffffffffffffffffffffffffff1681526020018281526020019250505060206040518083038186803b1580156112bc57600080fd5b505afa1580156112d0573d6000803e3d6000fd5b505050506040513d60208110156112e657600080fd5b81019080805190602001909291905050509050600080600090505b600c8054905081101561154557600854600c828154811061131e57fe5b90600052602060002001541461153857600560009054906101000a900473ffffffffffffffffffffffffffffffffffffffff1673ffffffffffffffffffffffffffffffffffffffff16631d7b5e2230600c848154811061137a57fe5b90600052602060002001546040518363ffffffff1660e01b8152600401808373ffffffffffffffffffffffffffffffffffffffff1673ffffffffffffffffffffffffffffffffffffffff1681526020018281526020019250505060206040518083038186803b1580156113ec57600080fd5b505afa158015611400573d6000803e3d6000fd5b505050506040513d602081101561141657600080fd5b81019080805190602001909291905050509150600082111561153757600560009054906101000a900473ffffffffffffffffffffffffffffffffffffffff1673ffffffffffffffffffffffffffffffffffffffff1663a06fe77530600c848154811061147e57fe5b9060005260206000200154856040518463ffffffff1660e01b8152600401808473ffffffffffffffffffffffffffffffffffffffff1673ffffffffffffffffffffffffffffffffffffffff1681526020018381526020018281526020019350505050602060405180830381600087803b1580156114fa57600080fd5b505af115801561150e573d6000803e3d6000fd5b505050506040513d602081101561152457600080fd5b8101908080519060200190929190505050505b5b8080600101915050611301565b5081600260009054906101000a900473ffffffffffffffffffffffffffffffffffffffff1673ffffffffffffffffffffffffffffffffffffffff166370a08231306040518263ffffffff1660e01b8152600401808273ffffffffffffffffffffffffffffffffffffffff1673ffffffffffffffffffffffffffffffffffffffff16815260200191505060206040518083038186803b1580156115e657600080fd5b505afa1580156115fa573d6000803e3d6000fd5b505050506040513d602081101561161057600080fd5b81019080805190602001909291905050508161162857fe5b046009819055506003600a60006101000a81548160ff0219169083600481111561164e57fe5b02179055507ff5b268a3ff315cc44ccceeef86259c9e8eef81ceecb14001543809115380dd6260095483604051808381526020018281526020019250505060405180910390a15050565b600a60009054906101000a900460ff1681565b6000600360048111156116ba57fe5b600a60009054906101000a900460ff1660048111156116d557fe5b14611748576040517f08c379a00000000000000000000000000000000000000000000000000000000081526004018080602001828103825260098152602001807f6e6f74207265616479000000000000000000000000000000000000000000000081525060200191505060405180910390fd5b600360009054906101000a900473ffffffffffffffffffffffffffffffffffffffff1673ffffffffffffffffffffffffffffffffffffffff1663358177736040518163ffffffff1660e01b81526004018080602001828103825260078152602001807f424f4e444147450000000000000000000000000000000000000000000000000081525060200191505060206040518083038186803b1580156117ec57600080fd5b505afa158015611800573d6000803e3d6000fd5b505050506040513d602081101561181657600080fd5b8101908080519060200190929190505050600560006101000a81548173ffffffffffffffffffffffffffffffffffffffff021916908373ffffffffffffffffffffffffffffffffffffffff1602179055506000600560009054906101000a900473ffffffffffffffffffffffffffffffffffffffff1673ffffffffffffffffffffffffffffffffffffffff16631d7b5e2230866040518363ffffffff1660e01b8152600401808373ffffffffffffffffffffffffffffffffffffffff1673ffffffffffffffffffffffffffffffffffffffff1681526020018281526020019250505060206040518083038186803b15801561191057600080fd5b505afa158015611924573d6000803e3d6000fd5b505050506040513d602081101561193a57600080fd5b81019080805190602001909291905050509050600560009054906101000a900473ffffffffffffffffffffffffffffffffffffffff1673ffffffffffffffffffffffffffffffffffffffff1663a06fe77530600854866040518463ffffffff1660e01b8152600401808473ffffffffffffffffffffffffffffffffffffffff1673ffffffffffffffffffffffffffffffffffffffff1681526020018381526020018281526020019350505050602060405180830381600087803b158015611a0057600080fd5b505af1158015611a14573d6000803e3d6000fd5b505050506040513d6020811015611a2a57600080fd5b810190808051906020019092919050505050600360009054906101000a900473ffffffffffffffffffffffffffffffffffffffff1673ffffffffffffffffffffffffffffffffffffffff1663358177736040518163ffffffff1660e01b815260040180806020018281038252600c8152602001807f43555252454e545f434f5354000000000000000000000000000000000000000081525060200191505060206040518083038186803b158015611ae057600080fd5b505afa158015611af4573d6000803e3d6000fd5b505050506040513d6020811015611b0a57600080fd5b8101908080519060200190929190505050600160006101000a81548173ffffffffffffffffffffffffffffffffffffffff021916908373ffffffffffffffffffffffffffffffffffffffff1602179055506000600160009054906101000a900473ffffffffffffffffffffffffffffffffffffffff1673ffffffffffffffffffffffffffffffffffffffff1663197d66d53087876001870103600189036040518563ffffffff1660e01b8152600401808573ffffffffffffffffffffffffffffffffffffffff1673ffffffffffffffffffffffffffffffffffffffff16815260200184815260200183815260200182815260200194505050505060206040518083038186803b158015611c1c57600080fd5b505afa158015611c30573d6000803e3d6000fd5b505050506040513d6020811015611c4657600080fd5b810190808051906020019092919050505090506000600b600087815260200190815260200160002060009054906101000a900473ffffffffffffffffffffffffffffffffffffffff16905060016004811115611c9e57fe5b600a60009054906101000a900460ff166004811115611cb957fe5b1480611ce95750600480811115611ccc57fe5b600a60009054906101000a900460ff166004811115611ce757fe5b145b15611fce576007544311611d65576040517f08c379a00000000000000000000000000000000000000000000000000000000081526004018080602001828103825260198152602001807f6f7261636c65207175657279206e6f7420657870697265642e0000000000000081525060200191505060405180910390fd5b6004600a60006101000a81548160ff02191690836004811115611d8457fe5b02179055508073ffffffffffffffffffffffffffffffffffffffff166379cc679033876040518363ffffffff1660e01b8152600401808373ffffffffffffffffffffffffffffffffffffffff1673ffffffffffffffffffffffffffffffffffffffff16815260200182815260200192505050600060405180830381600087803b158015611e1057600080fd5b505af1158015611e24573d6000803e3d6000fd5b50505050600260009054906101000a900473ffffffffffffffffffffffffffffffffffffffff1673ffffffffffffffffffffffffffffffffffffffff1663a9059cbb33846040518363ffffffff1660e01b8152600401808373ffffffffffffffffffffffffffffffffffffffff1673ffffffffffffffffffffffffffffffffffffffff16815260200182815260200192505050602060405180830381600087803b158015611ed157600080fd5b505af1158015611ee5573d6000803e3d6000fd5b505050506040513d6020811015611efb57600080fd5b8101908080519060200190929190505050611f7e576040517f08c379a000000000000000000000000000000000000000000000000000000000815260040180806020018281038252600f8152602001807f7472616e73666572206661696c6564000000000000000000000000000000000081525060200191505060405180910390fd5b3373ffffffffffffffffffffffffffffffffffffffff1682877f11a44cb23d594705c95aa35553bec5a6572ef7d08fbd468f29c5392ee1d214e360405160405180910390a4819350505050612439565b60036004811115611fdb57fe5b600a60009054906101000a900460ff166004811115611ff657fe5b14612069576040517f08c379a00000000000000000000000000000000000000000000000000000000081526004018080602001828103825260148152602001807f20636f6e74657374206e6f7420736574746c656400000000000000000000000081525060200191505060405180910390fd5b6000600d60003373ffffffffffffffffffffffffffffffffffffffff1673ffffffffffffffffffffffffffffffffffffffff16815260200190815260200160002060009054906101000a900460ff1660ff161461212e576040517f08c379a00000000000000000000000000000000000000000000000000000000081526004018080602001828103825260118152602001807f616c7265616479207265646565656d656400000000000000000000000000000081525060200191505060405180910390fd5b8560085414612188576040517f08c379a0000000000000000000000000000000000000000000000000000000008152600401808060200182810382526023815260200180613de86023913960400191505060405180910390fd5b600082612196600854613014565b73ffffffffffffffffffffffffffffffffffffffff166370a08231336040518263ffffffff1660e01b8152600401808273ffffffffffffffffffffffffffffffffffffffff1673ffffffffffffffffffffffffffffffffffffffff16815260200191505060206040518083038186803b15801561221257600080fd5b505afa158015612226573d6000803e3d6000fd5b505050506040513d602081101561223c57600080fd5b8101908080519060200190929190505050600954020190508173ffffffffffffffffffffffffffffffffffffffff166379cc679033886040518363ffffffff1660e01b8152600401808373ffffffffffffffffffffffffffffffffffffffff1673ffffffffffffffffffffffffffffffffffffffff16815260200182815260200192505050600060405180830381600087803b1580156122db57600080fd5b505af11580156122ef573d6000803e3d6000fd5b50505050600260009054906101000a900473ffffffffffffffffffffffffffffffffffffffff1673ffffffffffffffffffffffffffffffffffffffff1663a9059cbb33836040518363ffffffff1660e01b8152600401808373ffffffffffffffffffffffffffffffffffffffff1673ffffffffffffffffffffffffffffffffffffffff16815260200182815260200192505050602060405180830381600087803b15801561239c57600080fd5b505af11580156123b0573d6000803e3d6000fd5b505050506040513d60208110156123c657600080fd5b8101908080519060200190929190505050506001600d60003373ffffffffffffffffffffffffffffffffffffffff1673ffffffffffffffffffffffffffffffffffffffff16815260200190815260200160002060006101000a81548160ff021916908360ff160217905550809450505050505b92915050565b6000600a60009054906101000a900460ff16600481111561245c57fe5b905090565b60075481565b6001600481111561247457fe5b600a60009054906101000a900460ff16600481111561248f57fe5b14612502576040517f08c379a00000000000000000000000000000000000000000000000000000000081526004018080602001828103825260198152602001807f20636f6e74657374206973206e6f7420696e697469617465640000000000000081525060200191505060405180910390fd5b600360009054906101000a900473ffffffffffffffffffffffffffffffffffffffff1673ffffffffffffffffffffffffffffffffffffffff1663358177736040518163ffffffff1660e01b81526004018080602001828103825260078152602001807f424f4e444147450000000000000000000000000000000000000000000000000081525060200191505060206040518083038186803b1580156125a657600080fd5b505afa1580156125ba573d6000803e3d6000fd5b505050506040513d60208110156125d057600080fd5b8101908080519060200190929190505050600560006101000a81548173ffffffffffffffffffffffffffffffffffffffff021916908373ffffffffffffffffffffffffffffffffffffffff1602179055506000600560009054906101000a900473ffffffffffffffffffffffffffffffffffffffff1673ffffffffffffffffffffffffffffffffffffffff16631d7b5e2230856040518363ffffffff1660e01b8152600401808373ffffffffffffffffffffffffffffffffffffffff1673ffffffffffffffffffffffffffffffffffffffff1681526020018281526020019250505060206040518083038186803b1580156126ca57600080fd5b505afa1580156126de573d6000803e3d6000fd5b505050506040513d60208110156126f457600080fd5b810190808051906020019092919050505090506000600360009054906101000a900473ffffffffffffffffffffffffffffffffffffffff1673ffffffffffffffffffffffffffffffffffffffff1663358177736040518163ffffffff1660e01b815260040180806020018281038252600c8152602001807f43555252454e545f434f5354000000000000000000000000000000000000000081525060200191505060206040518083038186803b1580156127ad57600080fd5b505afa1580156127c1573d6000803e3d6000fd5b505050506040513d60208110156127d757600080fd5b8101908080519060200190929190505050905060008173ffffffffffffffffffffffffffffffffffffffff1663197d66d5308760018701600189036040518563ffffffff1660e01b8152600401808573ffffffffffffffffffffffffffffffffffffffff1673ffffffffffffffffffffffffffffffffffffffff16815260200184815260200183815260200182815260200194505050505060206040518083038186803b15801561288757600080fd5b505afa15801561289b573d6000803e3d6000fd5b505050506040513d60208110156128b157600080fd5b81019080805190602001909291905050509050600260009054906101000a900473ffffffffffffffffffffffffffffffffffffffff1673ffffffffffffffffffffffffffffffffffffffff166323b872dd3330846040518463ffffffff1660e01b8152600401808473ffffffffffffffffffffffffffffffffffffffff1673ffffffffffffffffffffffffffffffffffffffff1681526020018373ffffffffffffffffffffffffffffffffffffffff1673ffffffffffffffffffffffffffffffffffffffff1681526020018281526020019350505050602060405180830381600087803b1580156129a157600080fd5b505af11580156129b5573d6000803e3d6000fd5b505050506040513d60208110156129cb57600080fd5b8101908080519060200190929190505050612a31576040517f08c379a0000000000000000000000000000000000000000000000000000000008152600401808060200182810382526039815260200180613daf6039913960400191505060405180910390fd5b600260009054906101000a900473ffffffffffffffffffffffffffffffffffffffff1673ffffffffffffffffffffffffffffffffffffffff1663095ea7b3600560009054906101000a900473ffffffffffffffffffffffffffffffffffffffff16836040518363ffffffff1660e01b8152600401808373ffffffffffffffffffffffffffffffffffffffff1673ffffffffffffffffffffffffffffffffffffffff16815260200182815260200192505050602060405180830381600087803b158015612afc57600080fd5b505af1158015612b10573d6000803e3d6000fd5b505050506040513d6020811015612b2657600080fd5b810190808051906020019092919050505050600560009054906101000a900473ffffffffffffffffffffffffffffffffffffffff1673ffffffffffffffffffffffffffffffffffffffff166399275cc73087876040518463ffffffff1660e01b8152600401808473ffffffffffffffffffffffffffffffffffffffff1673ffffffffffffffffffffffffffffffffffffffff1681526020018381526020018281526020019350505050602060405180830381600087803b158015612be957600080fd5b505af1158015612bfd573d6000803e3d6000fd5b505050506040513d6020811015612c1357600080fd5b810190808051906020019092919050505050600b600086815260200190815260200160002060009054906101000a900473ffffffffffffffffffffffffffffffffffffffff1673ffffffffffffffffffffffffffffffffffffffff166340c10f1933866040518363ffffffff1660e01b8152600401808373ffffffffffffffffffffffffffffffffffffffff1673ffffffffffffffffffffffffffffffffffffffff16815260200182815260200192505050602060405180830381600087803b158015612cdf57600080fd5b505af1158015612cf3573d6000803e3d6000fd5b505050506040513d6020811015612d0957600080fd5b8101908080519060200190929190505050503373ffffffffffffffffffffffffffffffffffffffff1684867f9738427d867a8b08540015120042d5a5ab1244297c70f40cb29fa7ba3458715360405160405180910390a45050505050565b606060146040519080825280601f01601f191660200182016040528015612d9d5781602001600182028038833980820191505090505b50905060008090505b6014811015612e23578060130360080260020a8373ffffffffffffffffffffffffffffffffffffffff1681612dd757fe5b0460f81b828281518110612de757fe5b60200101907effffffffffffffffffffffffffffffffffffffffffffffffffffffffffffff1916908160001a9053508080600101915050612da6565b50919050565b6060600c805480602002602001604051908101604052809291908181526020018280548015612e7757602002820191906000526020600020905b815481526020019060010190808311612e63575b5050505050905090565b6000818051906020012060001c9050919050565b600b6020528060005260406000206000915054906101000a900473ffffffffffffffffffffffffffffffffffffffff1681565b600660009054906101000a900473ffffffffffffffffffffffffffffffffffffffff1681565b600080600090505b600c80549050811015612f3957600c8181548110612f1057fe5b9060005260206000200154831415612f2c576001915050612f3f565b8080600101915050612ef6565b50600090505b919050565b6000809054906101000a900473ffffffffffffffffffffffffffffffffffffffff1681565b60608060206040519080825280601f01601f191660200182016040528015612fa05781602001600182028038833980820191505090505b5090508260405160200180828152602001915050604051602081830303815290604052905080915050919050565b600360009054906101000a900473ffffffffffffffffffffffffffffffffffffffff1681565b600d6020528060005260406000206000915054906101000a900460ff1681565b600080600360009054906101000a900473ffffffffffffffffffffffffffffffffffffffff1673ffffffffffffffffffffffffffffffffffffffff1663358177736040518163ffffffff1660e01b81526004018080602001828103825260088152602001807f524547495354525900000000000000000000000000000000000000000000000081525060200191505060206040518083038186803b1580156130bb57600080fd5b505afa1580156130cf573d6000803e3d6000fd5b505050506040513d60208110156130e557600080fd5b810190808051906020019092919050505090506132168173ffffffffffffffffffffffffffffffffffffffff16634d9bcac430866040518363ffffffff1660e01b8152600401808373ffffffffffffffffffffffffffffffffffffffff1673ffffffffffffffffffffffffffffffffffffffff1681526020018281526020019250505060006040518083038186803b15801561318057600080fd5b505afa158015613194573d6000803e3d6000fd5b505050506040513d6000823e3d601f19601f8201168201806040525060208110156131be57600080fd5b8101908080516401000000008111156131d657600080fd5b828101905060208101848111156131ec57600080fd5b815185600182028301116401000000008211171561320957600080fd5b5050929190505050612e81565b915050919050565b60095481565b6000809054906101000a900473ffffffffffffffffffffffffffffffffffffffff1673ffffffffffffffffffffffffffffffffffffffff163373ffffffffffffffffffffffffffffffffffffffff161461327d57600080fd5b6000600481111561328a57fe5b600a60009054906101000a900460ff1660048111156132a557fe5b14613318576040517f08c379a000000000000000000000000000000000000000000000000000000000815260040180806020018281038252601b8152602001807f436f6e7465737420616c726561647920696e697469616c697a6564000000000081525060200191505060405180910390fd5b81600660006101000a81548173ffffffffffffffffffffffffffffffffffffffff021916908373ffffffffffffffffffffffffffffffffffffffff1602179055504381016007819055506001600a60006101000a81548160ff0219169083600481111561338157fe5b0217905550600660009054906101000a900473ffffffffffffffffffffffffffffffffffffffff1673ffffffffffffffffffffffffffffffffffffffff167f908408e307fc569b417f6cbec5d5a06f44a0a505ac0479b47d421a4b2fd6a1e660405160405180910390a25050565b600660009054906101000a900473ffffffffffffffffffffffffffffffffffffffff1673ffffffffffffffffffffffffffffffffffffffff163373ffffffffffffffffffffffffffffffffffffffff161461344957600080fd5b6003600481111561345657fe5b600a60009054906101000a900460ff16600481111561347157fe5b14806134a1575060048081111561348457fe5b600a60009054906101000a900460ff16600481111561349f57fe5b145b613513576040517f08c379a00000000000000000000000000000000000000000000000000000000081526004018080602001828103825260138152602001807f636f6e74657374206e6f7420736574746c65640000000000000000000000000081525060200191505060405180910390fd5b60048081111561351f57fe5b600a60009054906101000a900460ff16600481111561353a57fe5b1415613690576000600260009054906101000a900473ffffffffffffffffffffffffffffffffffffffff1673ffffffffffffffffffffffffffffffffffffffff166370a08231306040518263ffffffff1660e01b8152600401808273ffffffffffffffffffffffffffffffffffffffff1673ffffffffffffffffffffffffffffffffffffffff16815260200191505060206040518083038186803b1580156135e157600080fd5b505afa1580156135f5573d6000803e3d6000fd5b505050506040513d602081101561360b57600080fd5b81019080805190602001909291905050501461368f576040517f08c379a000000000000000000000000000000000000000000000000000000000815260040180806020018281038252600c8152602001807f66756e64732072656d61696e000000000000000000000000000000000000000081525060200191505060405180910390fd5b5b600e600061369e9190613cb1565b600c60006136ac9190613cd2565b6001600a60006101000a81548160ff021916908360048111156136cb57fe5b02179055507f6423db340205c829eeb91151b1c5d1dc6d7a2b8708b1621494e89ba90c87081e60405160405180910390a1565b60085481565b6001600481111561371157fe5b600a60009054906101000a900460ff16600481111561372c57fe5b1461379f576040517f08c379a00000000000000000000000000000000000000000000000000000000081526004018080602001828103825260178152602001807f436f6e74657374206e6f7420696e697469616c697a656400000000000000000081525060200191505060405180910390fd5b600660009054906101000a900473ffffffffffffffffffffffffffffffffffffffff1673ffffffffffffffffffffffffffffffffffffffff163373ffffffffffffffffffffffffffffffffffffffff1614613862576040517f08c379a00000000000000000000000000000000000000000000000000000000081526004018080602001828103825260208152602001807f4f6e6c792064657369676e61746564204f7261636c652063616e206a7564676581525060200191505060405180910390fd5b60075443106138bc576040517f08c379a0000000000000000000000000000000000000000000000000000000008152600401808060200182810382526022815260200180613d8d6022913960400191505060405180910390fd5b806008819055506002600a60006101000a81548160ff021916908360048111156138e257fe5b02179055507f1dc269042eebc624dd61bda8673af110f6d520b8e508c5a05aff5b324ff80bc06008546040518082815260200191505060405180910390a150565b600460009054906101000a900473ffffffffffffffffffffffffffffffffffffffff1681565b6000809054906101000a900473ffffffffffffffffffffffffffffffffffffffff1673ffffffffffffffffffffffffffffffffffffffff163373ffffffffffffffffffffffffffffffffffffffff16146139a257600080fd5b600073ffffffffffffffffffffffffffffffffffffffff168173ffffffffffffffffffffffffffffffffffffffff1614156139dc57600080fd5b8073ffffffffffffffffffffffffffffffffffffffff166000809054906101000a900473ffffffffffffffffffffffffffffffffffffffff1673ffffffffffffffffffffffffffffffffffffffff167f8be0079c531659141344cd1fd0a4f28419497f9722a3daafe3b4186f6b6457e060405160405180910390a3806000806101000a81548173ffffffffffffffffffffffffffffffffffffffff021916908373ffffffffffffffffffffffffffffffffffffffff16021790555050565b600c8181548110613aa757fe5b906000526020600020016000915090505481565b600260009054906101000a900473ffffffffffffffffffffffffffffffffffffffff1681565b600e8181548110613aee57fe5b906000526020600020016000915054906101000a900473ffffffffffffffffffffffffffffffffffffffff1681565b600080600460009054906101000a900473ffffffffffffffffffffffffffffffffffffffff1673ffffffffffffffffffffffffffffffffffffffff1663198e2b8a85856040518363ffffffff1660e01b8152600401808060200180602001838103835285818151815260200191508051906020019080838360005b83811015613bb3578082015181840152602081019050613b98565b50505050905090810190601f168015613be05780820380516001836020036101000a031916815260200191505b50838103825284818151815260200191508051906020019080838360005b83811015613c19578082015181840152602081019050613bfe565b50505050905090810190601f168015613c465780820380516001836020036101000a031916815260200191505b50945050505050602060405180830381600087803b158015613c6757600080fd5b505af1158015613c7b573d6000803e3d6000fd5b505050506040513d6020811015613c9157600080fd5b810190808051906020019092919050505090508091508191505092915050565b5080546000825590600052602060002090810190613ccf9190613cf3565b50565b5080546000825590600052602060002090810190613cf09190613d18565b50565b613d1591905b80821115613d11576000816000905550600101613cf9565b5090565b90565b613d3a91905b80821115613d36576000816000905550600101613d1e565b5090565b9056fe437572766520656e64706f696e7420616c726561647920657869737473206f72207573656420696e2074686520706173742e20506c656173652063686f6f73652061206e657720656e64706f696e74436f6e7465737420657870697265642c20726566756e6420696e2070726f63657373696e73756666696369656e7420616363657074656420746f6b656e206e756d446f747320617070726f76656420666f72207472616e736665726f6e6c792077696e6e6572732063616e20756e626f6e6420666f722072657761726473a165627a7a72305820705e283898b06ee3da6c69156699074093a7b31049aa28526e7abbec85bbcd890029",
  "source": "import \"../token/TokenFactoryInterface.sol\";\nimport \"../token/FactoryTokenInterface.sol\";\nimport \"../ownership/ZapCoordinatorInterface.sol\";\nimport \"../../platform/bondage/BondageInterface.sol\";\nimport \"../../platform/bondage/currentCost/CurrentCostInterface.sol\";\nimport \"../../platform/registry/RegistryInterface.sol\";\nimport \"../../platform/bondage/currentCost/CurrentCostInterface.sol\";\n\n/*\nContest where users can bond to contestant curves which mint tokens( unbondabe*),\nwinner decided by oracle\ncontract unbonds from loser curves\nholders of winning token allowed to take share of reserve token(zap) which was unbonded from loser curves\n\nStarting Contest:\n\n    deploys with contest uninitialized: status = Uninitialized\n\n    anyone can initialize new token:backed curve\n\n    owner initializes contest with oracle: status = Initialized\n\nEnding Contest:\n\n    owner calls close: status = ReadyToSettle\n\n    oracle calls judge to set winning curve: status = Judged\n\n    anyone calls settle, contest unbonds from losing curves: status = Settled\n\n    holders of winnning token call redeem to retrieve their share of reserve token\n    based on their holding of winning token\n\n    *holders of winning token can optionally unbond\n*/\n\ncontract SampleContest is Ownable {\n\n    CurrentCostInterface currentCost;\n    FactoryTokenInterface public reserveToken;\n    ZapCoordinatorInterface public coord;\n    TokenFactoryInterface public tokenFactory;\n    BondageInterface bondage;\n\n    enum ContestStatus {\n        Uninitialized,    //\n        Initialized,      // ready for buys\n        // ReadyToSettle,    // ready for judgement\n        Judged,           // winner determined\n        Settled,           // value of winning tokens determined\n        Canceled          // oracle did not respond in time\n    }\n\n    address public oracle;    // address of oracle who will choose the winner\n    uint256 public ttl;    // time allowed before, close and judge. if time expired, allow unbond from all curves\n    // uint256 public expired = 2**256 -1;    // time allowed before, close and judge. if time expired, allow unbond from all curves\n    bytes32 public winner;    // curve identifier of the winner\n    uint256 public winValue;  // final value of the winning token\n    ContestStatus public status; //state of contest\n\n    mapping(bytes32 => address) public curves; // map of endpoint specifier to token-backed dotaddress\n    bytes32[] public curves_list; // array of endpoint specifiers\n\n    mapping(address => uint8) public redeemed; // map of address redemption state\n    address[] public redeemed_list;\n\n    event DotTokenCreated(address tokenAddress);\n    event Bonded(bytes32 indexed endpoint, uint256 indexed numDots, address indexed sender);\n    event Unbonded(bytes32 indexed endpoint,uint256 indexed amount, address indexed sender);\n\n    event Initialized(address indexed oracle);\n    event Closed();\n    event Judged(bytes32 winner);\n    event Settled(uint256 winValue, uint256 winTokens);\n    event Reset();\n\n    constructor(\n        address coordinator,\n        address factory,\n        uint256 providerPubKey,\n        bytes32 providerTitle\n    ) public {\n        coord = ZapCoordinatorInterface(coordinator);\n        reserveToken = FactoryTokenInterface(coord.getContract(\"ZAP_TOKEN\"));\n        //always allow bondage to transfer from wallet\n        reserveToken.approve(coord.getContract(\"BONDAGE\"), ~uint256(0));\n        tokenFactory = TokenFactoryInterface(factory);\n\n        RegistryInterface registry = RegistryInterface(coord.getContract(\"REGISTRY\"));\n        registry.initiateProvider(providerPubKey, providerTitle);\n        status = ContestStatus.Uninitialized;\n    }\n\n// contest lifecycle\n\n    function initializeContest(\n        address oracleAddress,\n        uint256 _ttl\n    ) onlyOwner public {\n        require( status == ContestStatus.Uninitialized, \"Contest already initialized\");\n        oracle = oracleAddress;\n        ttl = _ttl + block.number;\n        status = ContestStatus.Initialized;\n        emit Initialized(oracle);\n    }\n\n    // function close() onlyOwner {\n    //     status = ContestStatus.ReadyToSettle;\n    //     expired = block.number + ttl;\n    //     emit Closed();\n    // }\n\n    function judge(bytes32 endpoint) public {\n        require( status == ContestStatus.Initialized, \"Contest not initialized\" );\n        require( msg.sender == oracle, \"Only designated Oracle can judge\");\n        require(block.number < ttl, \"Contest expired, refund in process\");\n        winner = endpoint;\n        status = ContestStatus.Judged;\n        emit Judged(winner);\n    }\n\n    function settle() public {\n        require( status == ContestStatus.Judged, \"winner not determined\");\n\n        bondage = BondageInterface(coord.getContract(\"BONDAGE\"));\n        // how many winning dots\n        uint256 numWin =  bondage.getDotsIssued(address(this), winner);\n        // redeemable value of each dot token\n        uint256 dots;\n        for( uint256 i = 0; i < curves_list.length; i++) {\n          if(curves_list[i]!=winner){\n            dots =  bondage.getDotsIssued(address(this), curves_list[i]);\n            if( dots > 0) {\n                bondage.unbond(address(this), curves_list[i], dots);\n            }\n          }\n        }\n        winValue = reserveToken.balanceOf(address(this)) / numWin;\n\n        status = ContestStatus.Settled;\n        emit Settled(winValue, numWin);\n    }\n\n\n    //TODO ensure all has been redeemed or enough time has elasped\n    function reset() public {\n        require(msg.sender == oracle);\n        require(status == ContestStatus.Settled || status == ContestStatus.Canceled, \"contest not settled\");\n        if( status == ContestStatus.Canceled ) {\n            require(reserveToken.balanceOf(address(this)) == 0, \"funds remain\");\n        }\n\n        delete redeemed_list;\n        delete curves_list;\n        status = ContestStatus.Initialized;\n        emit Reset();\n    }\n\n/// TokenDotFactory methods\n\n    function initializeCurve(\n        bytes32 endpoint,\n        bytes32 symbol,\n        int256[] memory curve\n    ) public returns(address) {\n        // require(status==ContestStatus.Initialized,\"Contest is not initalized\")\n        require(curves[endpoint] == address(0), \"Curve endpoint already exists or used in the past. Please choose a new endpoint\");\n\n        RegistryInterface registry = RegistryInterface(coord.getContract(\"REGISTRY\"));\n        registry.initiateProviderCurve(endpoint, curve, address(this));\n        curves[endpoint] = newToken(bytes32ToString(endpoint), bytes32ToString(symbol));\n        curves_list.push(endpoint);\n        registry.setProviderParameter(endpoint, toBytes(curves[endpoint]));\n\n        emit DotTokenCreated(curves[endpoint]);\n        return curves[endpoint];\n    }\n\n    //whether this contract holds tokens or coming from msg.sender,etc\n    function bond(bytes32 endpoint, uint numDots) public  {\n        require( status == ContestStatus.Initialized, \" contest is not initiated\");\n\n        bondage = BondageInterface(coord.getContract(\"BONDAGE\"));\n        uint256 issued = bondage.getDotsIssued(address(this), endpoint);\n\n        CurrentCostInterface cost = CurrentCostInterface(coord.getContract(\"CURRENT_COST\"));\n        uint256 numReserve = cost._costOfNDots(address(this), endpoint, issued + 1, numDots - 1);\n\n        require(\n            reserveToken.transferFrom(msg.sender, address(this), numReserve),\n            \"insufficient accepted token numDots approved for transfer\"\n        );\n\n        reserveToken.approve(address(bondage), numReserve);\n        bondage.bond(address(this), endpoint, numDots);\n        FactoryTokenInterface(curves[endpoint]).mint(msg.sender, numDots);\n        emit Bonded(endpoint, numDots, msg.sender);\n    }\n\n    //whether this contract holds tokens or coming from msg.sender,etc\n    function unbond(bytes32 endpoint, uint numDots) public returns(uint256) {\n\n        require(status == ContestStatus.Settled, \"not ready\");\n\n        bondage = BondageInterface(coord.getContract(\"BONDAGE\"));\n        uint issued = bondage.getDotsIssued(address(this), endpoint);\n\n        //unbond dots\n        bondage.unbond(address(this), winner, numDots);\n\n        currentCost = CurrentCostInterface(coord.getContract(\"CURRENT_COST\"));\n        //get reserve value to send\n        uint reserveCost = currentCost._costOfNDots(address(this), endpoint, issued + 1 - numDots, numDots - 1);\n\n        FactoryTokenInterface curveToken = FactoryTokenInterface(curves[endpoint]);\n\n        if( status == ContestStatus.Initialized || status == ContestStatus.Canceled) {\n            //oracle has taken too long to judge winner so unbonds will be allowed for all\n            require(block.number > ttl, \"oracle query not expired.\");\n            // require(status == ContestStatus.Settled, \"contest not settled\");\n            status = ContestStatus.Canceled;\n\n            //unbond dots\n            //TODO get bound dot then unbond the correct amount ? or unbond all in 1 call\n            // bondage.unbond(address(this), endpoint, numDots);\n\n            //burn dot backed token\n            //FIXME only burn the bound tokens ?\n            curveToken.burnFrom(msg.sender, numDots);\n\n            require(reserveToken.transfer(msg.sender, reserveCost), \"transfer failed\");\n            emit Unbonded(endpoint, reserveCost, msg.sender);\n            return reserveCost;\n        }\n\n        else {\n\n            require( status == ContestStatus.Settled, \" contest not settled\");\n            require(redeemed[msg.sender] == 0, \"already redeeemed\");\n            require(winner==endpoint, \"only winners can unbond for rewards\");\n\n            //reward user's winning tokens unbond value + share of losing curves reserve token proportional to winning token holdings\n            uint reward = ( winValue * FactoryTokenInterface(getTokenAddress(winner)).balanceOf(msg.sender) ) + reserveCost;\n\n            //burn user's unbonded tokens\n            // curveToken.approve(address(this),numDots);\n            curveToken.burnFrom(msg.sender, numDots);\n\n            reserveToken.transfer(msg.sender, reward);\n            redeemed[msg.sender] = 1;\n\n            // emit Unbonded(winner, reward, msg.sender);\n            return reward;\n        }\n    }\n\n    function newToken(\n        string memory name,\n        string memory symbol\n    )\n        internal\n        returns (address tokenAddress)\n    {\n        FactoryTokenInterface token = tokenFactory.create(name, symbol);\n        tokenAddress = address(token);\n        return tokenAddress;\n    }\n\n    function getTokenAddress(bytes32 endpoint) public view returns(address) {\n        RegistryInterface registry = RegistryInterface(coord.getContract(\"REGISTRY\"));\n        return bytesToAddr(registry.getProviderParameter(address(this), endpoint));\n    }\n\n    function getEndpoints() public view returns(bytes32[] memory){\n      return curves_list;\n    }\n\n    function getStatus() public view returns(uint256){\n      return uint(status);\n    }\n\n    function isEndpointValid(bytes32 _endpoint) public view returns(bool){\n      for(uint256 i=0; i<curves_list.length;i++){\n        if(_endpoint == curves_list[i]){\n          return true;\n        }\n      }\n      return false;\n    }\n\n    // https://ethereum.stackexchange.com/questions/884/how-to-convert-an-address-to-bytes-in-solidity\n    function toBytes(address x) public pure returns (bytes memory b) {\n        b = new bytes(20);\n        for (uint i = 0; i < 20; i++)\n            b[i] = byte(uint8(uint(x) / (2**(8*(19 - i)))));\n    }\n\n    //https://ethereum.stackexchange.com/questions/2519/how-to-convert-a-bytes32-to-string\n    function bytes32ToString(bytes32 x) public pure returns (string memory) {\n        bytes memory bytesString = new bytes(32);\n        bytesString = abi.encodePacked(x);\n        return string(bytesString);\n    }\n\n    //https://ethereum.stackexchange.com/questions/15350/how-to-convert-an-bytes-to-address-in-solidity\n//    function bytesToAddr (bytes memory b) public pure returns (address) {\n//        uint result = 0;\n//        for (uint i = b.length-1; i+1 > 0; i--) {\n//            uint c = uint(b[i]);\n//            uint to_inc = c * ( 16 ** ((b.length - i-1) * 2));\n//            result += to_inc;\n//        }\n//        return address(result);\n//    }\n\n    //Slightly modified version of\n    //https://ethereum.stackexchange.com/questions/69213/convert-64-byte-public-key-to-20-byte-address-in-solidity\n    function bytesToAddr (bytes memory b) public pure returns (address) {\n        return address (uint160 (uint256 (keccak256 (b))));\n    }\n}\n",
  "sourcePath": "/Users/moinuddin/Desktop/Zap Projects/main-market-template/contracts/lib/platform/SampleContest.sol",
  "compiler": {
    "name": "solc",
    "version": "0.5.8+commit.23d335f2.Emscripten.clang"
  },
  "schemaVersion": "3.0.11",
  "updatedAt": "2019-06-24T03:26:20.554Z",
  "devdoc": {
    "methods": {
      "transferOwnership(address)": {
        "details": "Allows the current owner to transfer control of the contract to a newOwner.",
        "params": {
          "newOwner": "The address to transfer ownership to."
        }
      }
    }
  },
  "userdoc": {
    "methods": {
      "initializeCurve(bytes32,bytes32,int256[])": {
        "notice": "TokenDotFactory methods"
      }
    }
  }
}