{
  "contractName": "SampleOnChainOracle",
  "abi": [
    {
      "constant": true,
      "inputs": [],
      "name": "owner",
      "outputs": [
        {
          "name": "",
          "type": "address"
        }
      ],
      "payable": false,
      "stateMutability": "view",
      "type": "function"
    },
    {
      "constant": false,
      "inputs": [
        {
          "name": "newOwner",
          "type": "address"
        }
      ],
      "name": "transferOwnership",
      "outputs": [],
      "payable": false,
      "stateMutability": "nonpayable",
      "type": "function"
    },
    {
      "inputs": [
        {
          "name": "coordinator",
          "type": "address"
        },
        {
          "name": "providerPubKey",
          "type": "uint256"
        },
        {
          "name": "providerTitle",
          "type": "bytes32"
        }
      ],
      "payable": false,
      "stateMutability": "nonpayable",
      "type": "constructor"
    },
    {
      "anonymous": false,
      "inputs": [
        {
          "indexed": false,
          "name": "query",
          "type": "string"
        },
        {
          "indexed": false,
          "name": "endpoint",
          "type": "bytes32"
        },
        {
          "indexed": false,
          "name": "params",
          "type": "bytes32[]"
        }
      ],
      "name": "RecievedQuery",
      "type": "event"
    },
    {
      "anonymous": false,
      "inputs": [
        {
          "indexed": true,
          "name": "previousOwner",
          "type": "address"
        },
        {
          "indexed": true,
          "name": "newOwner",
          "type": "address"
        }
      ],
      "name": "OwnershipTransferred",
      "type": "event"
    },
    {
      "constant": false,
      "inputs": [
        {
          "name": "specifier",
          "type": "bytes32"
        },
        {
          "name": "curve",
          "type": "int256[]"
        }
      ],
      "name": "initializeCurve",
      "outputs": [
        {
          "name": "",
          "type": "bool"
        }
      ],
      "payable": false,
      "stateMutability": "nonpayable",
      "type": "function"
    },
    {
      "constant": false,
      "inputs": [
        {
          "name": "key",
          "type": "bytes32"
        },
        {
          "name": "value",
          "type": "bytes"
        }
      ],
      "name": "setProviderParameter",
      "outputs": [],
      "payable": false,
      "stateMutability": "nonpayable",
      "type": "function"
    },
    {
      "constant": false,
      "inputs": [
        {
          "name": "endpoint",
          "type": "bytes32"
        },
        {
          "name": "endpointParams",
          "type": "bytes32[]"
        }
      ],
      "name": "setEndpointParams",
      "outputs": [],
      "payable": false,
      "stateMutability": "nonpayable",
      "type": "function"
    },
    {
      "constant": false,
      "inputs": [
        {
          "name": "id",
          "type": "uint256"
        },
        {
          "name": "userQuery",
          "type": "string"
        },
        {
          "name": "endpoint",
          "type": "bytes32"
        },
        {
          "name": "endpointParams",
          "type": "bytes32[]"
        },
        {
          "name": "onchainSubscriber",
          "type": "bool"
        }
      ],
      "name": "receive",
      "outputs": [],
      "payable": false,
      "stateMutability": "nonpayable",
      "type": "function"
    }
  ],
  "bytecode": "0x608060405234801561001057600080fd5b506040516060806113a28339810180604052606081101561003057600080fd5b81019080805190602001909291908051906020019092919080519060200190929190505050336000806101000a81548173ffffffffffffffffffffffffffffffffffffffff021916908373ffffffffffffffffffffffffffffffffffffffff16021790555082600160006101000a81548173ffffffffffffffffffffffffffffffffffffffff021916908373ffffffffffffffffffffffffffffffffffffffff1602179055506000600160009054906101000a900473ffffffffffffffffffffffffffffffffffffffff1673ffffffffffffffffffffffffffffffffffffffff1663358177736040518163ffffffff1660e01b81526004018080602001828103825260088152602001807f524547495354525900000000000000000000000000000000000000000000000081525060200191505060206040518083038186803b15801561017c57600080fd5b505afa158015610190573d6000803e3d6000fd5b505050506040513d60208110156101a657600080fd5b810190808051906020019092919050505090508073ffffffffffffffffffffffffffffffffffffffff1663af87c83384846040518363ffffffff1660e01b81526004018083815260200182815260200192505050602060405180830381600087803b15801561021457600080fd5b505af1158015610228573d6000803e3d6000fd5b505050506040513d602081101561023e57600080fd5b8101908080519060200190929190505050505050505061113f806102636000396000f3fe608060405234801561001057600080fd5b50600436106100625760003560e01c80635750644a146100675780638da5cb5b1461012c578063c924335714610176578063de26158314610250578063f2fde38b1461033e578063fcf0c24814610382575b600080fd5b61012a6004803603604081101561007d57600080fd5b8101908080359060200190929190803590602001906401000000008111156100a457600080fd5b8201836020820111156100b657600080fd5b803590602001918460018302840111640100000000831117156100d857600080fd5b91908080601f016020809104026020016040519081016040528093929190818152602001838380828437600081840152601f19601f820116905080830192505050505050509192919290505050610444565b005b6101346106ba565b604051808273ffffffffffffffffffffffffffffffffffffffff1673ffffffffffffffffffffffffffffffffffffffff16815260200191505060405180910390f35b6102366004803603604081101561018c57600080fd5b8101908080359060200190929190803590602001906401000000008111156101b357600080fd5b8201836020820111156101c557600080fd5b803590602001918460208302840111640100000000831117156101e757600080fd5b919080806020026020016040519081016040528093929190818152602001838360200280828437600081840152601f19601f8201169050808301925050505050505091929192905050506106df565b604051808215151515815260200191505060405180910390f35b61033c600480360360a081101561026657600080fd5b81019080803590602001909291908035906020019064010000000081111561028d57600080fd5b82018360208201111561029f57600080fd5b803590602001918460018302840111640100000000831117156102c157600080fd5b909192939192939080359060200190929190803590602001906401000000008111156102ec57600080fd5b8201836020820111156102fe57600080fd5b8035906020019184602083028401116401000000008311171561032057600080fd5b9091929391929390803515159060200190929190505050610a5c565b005b6103806004803603602081101561035457600080fd5b81019080803573ffffffffffffffffffffffffffffffffffffffff169060200190929190505050610d70565b005b6104426004803603604081101561039857600080fd5b8101908080359060200190929190803590602001906401000000008111156103bf57600080fd5b8201836020820111156103d157600080fd5b803590602001918460208302840111640100000000831117156103f357600080fd5b919080806020026020016040519081016040528093929190818152602001838360200280828437600081840152601f19601f820116905080830192505050505050509192919290505050610ec1565b005b6000809054906101000a900473ffffffffffffffffffffffffffffffffffffffff1673ffffffffffffffffffffffffffffffffffffffff163373ffffffffffffffffffffffffffffffffffffffff161461049d57600080fd5b600160009054906101000a900473ffffffffffffffffffffffffffffffffffffffff1673ffffffffffffffffffffffffffffffffffffffff1663358177736040518163ffffffff1660e01b81526004018080602001828103825260088152602001807f524547495354525900000000000000000000000000000000000000000000000081525060200191505060206040518083038186803b15801561054157600080fd5b505afa158015610555573d6000803e3d6000fd5b505050506040513d602081101561056b57600080fd5b8101908080519060200190929190505050600260006101000a81548173ffffffffffffffffffffffffffffffffffffffff021916908373ffffffffffffffffffffffffffffffffffffffff160217905550600260009054906101000a900473ffffffffffffffffffffffffffffffffffffffff1673ffffffffffffffffffffffffffffffffffffffff16635750644a83836040518363ffffffff1660e01b81526004018083815260200180602001828103825283818151815260200191508051906020019080838360005b83811015610651578082015181840152602081019050610636565b50505050905090810190601f16801561067e5780820380516001836020036101000a031916815260200191505b509350505050600060405180830381600087803b15801561069e57600080fd5b505af11580156106b2573d6000803e3d6000fd5b505050505050565b6000809054906101000a900473ffffffffffffffffffffffffffffffffffffffff1681565b60008060009054906101000a900473ffffffffffffffffffffffffffffffffffffffff1673ffffffffffffffffffffffffffffffffffffffff163373ffffffffffffffffffffffffffffffffffffffff161461073a57600080fd5b6000600160009054906101000a900473ffffffffffffffffffffffffffffffffffffffff1673ffffffffffffffffffffffffffffffffffffffff1663358177736040518163ffffffff1660e01b81526004018080602001828103825260088152602001807f524547495354525900000000000000000000000000000000000000000000000081525060200191505060206040518083038186803b1580156107e057600080fd5b505afa1580156107f4573d6000803e3d6000fd5b505050506040513d602081101561080a57600080fd5b810190808051906020019092919050505090508073ffffffffffffffffffffffffffffffffffffffff1663186b79c9306040518263ffffffff1660e01b8152600401808273ffffffffffffffffffffffffffffffffffffffff1673ffffffffffffffffffffffffffffffffffffffff16815260200191505060206040518083038186803b15801561089a57600080fd5b505afa1580156108ae573d6000803e3d6000fd5b505050506040513d60208110156108c457600080fd5b8101908080519060200190929190505050610947576040517f08c379a00000000000000000000000000000000000000000000000000000000081526004018080602001828103825260188152602001807f50726f7669646572206e6f7420696e746969616c697a6564000000000000000081525060200191505060405180910390fd5b8073ffffffffffffffffffffffffffffffffffffffff1663238b3aed858560006040518463ffffffff1660e01b815260040180848152602001806020018373ffffffffffffffffffffffffffffffffffffffff1673ffffffffffffffffffffffffffffffffffffffff168152602001828103825284818151815260200191508051906020019060200280838360005b838110156109f15780820151818401526020810190506109d6565b50505050905001945050505050602060405180830381600087803b158015610a1857600080fd5b505af1158015610a2c573d6000803e3d6000fd5b505050506040513d6020811015610a4257600080fd5b810190808051906020019092919050505091505092915050565b7fb1d30540f0019c1e94a292da7a6f164844c5d2e3dee75e0b3a6a66e4e9a4e15386868686866040518080602001858152602001806020018381038352888882818152602001925080828437600081840152601f19601f8201169050808301925050508381038252858582818152602001925060200280828437600081840152601f19601f82011690508083019250505097505050505050505060405180910390a1600160009054906101000a900473ffffffffffffffffffffffffffffffffffffffff1673ffffffffffffffffffffffffffffffffffffffff1663358177736040518163ffffffff1660e01b81526004018080602001828103825260088152602001807f444953504154434800000000000000000000000000000000000000000000000081525060200191505060206040518083038186803b158015610ba257600080fd5b505afa158015610bb6573d6000803e3d6000fd5b505050506040513d6020811015610bcc57600080fd5b8101908080519060200190929190505050600360006101000a81548173ffffffffffffffffffffffffffffffffffffffff021916908373ffffffffffffffffffffffffffffffffffffffff160217905550808015610c775750600360009054906101000a900473ffffffffffffffffffffffffffffffffffffffff1673ffffffffffffffffffffffffffffffffffffffff163373ffffffffffffffffffffffffffffffffffffffff16145b15610d6757600360009054906101000a900473ffffffffffffffffffffffffffffffffffffffff1673ffffffffffffffffffffffffffffffffffffffff16636843581c886040518263ffffffff1660e01b815260040180828152602001806020018281038252600b8152602001807f48656c6c6f20576f726c6400000000000000000000000000000000000000000081525060200192505050602060405180830381600087803b158015610d2a57600080fd5b505af1158015610d3e573d6000803e3d6000fd5b505050506040513d6020811015610d5457600080fd5b8101908080519060200190929190505050505b50505050505050565b6000809054906101000a900473ffffffffffffffffffffffffffffffffffffffff1673ffffffffffffffffffffffffffffffffffffffff163373ffffffffffffffffffffffffffffffffffffffff1614610dc957600080fd5b600073ffffffffffffffffffffffffffffffffffffffff168173ffffffffffffffffffffffffffffffffffffffff161415610e0357600080fd5b8073ffffffffffffffffffffffffffffffffffffffff166000809054906101000a900473ffffffffffffffffffffffffffffffffffffffff1673ffffffffffffffffffffffffffffffffffffffff167f8be0079c531659141344cd1fd0a4f28419497f9722a3daafe3b4186f6b6457e060405160405180910390a3806000806101000a81548173ffffffffffffffffffffffffffffffffffffffff021916908373ffffffffffffffffffffffffffffffffffffffff16021790555050565b6000809054906101000a900473ffffffffffffffffffffffffffffffffffffffff1673ffffffffffffffffffffffffffffffffffffffff163373ffffffffffffffffffffffffffffffffffffffff1614610f1a57600080fd5b600160009054906101000a900473ffffffffffffffffffffffffffffffffffffffff1673ffffffffffffffffffffffffffffffffffffffff1663358177736040518163ffffffff1660e01b81526004018080602001828103825260088152602001807f524547495354525900000000000000000000000000000000000000000000000081525060200191505060206040518083038186803b158015610fbe57600080fd5b505afa158015610fd2573d6000803e3d6000fd5b505050506040513d6020811015610fe857600080fd5b8101908080519060200190929190505050600260006101000a81548173ffffffffffffffffffffffffffffffffffffffff021916908373ffffffffffffffffffffffffffffffffffffffff160217905550600260009054906101000a900473ffffffffffffffffffffffffffffffffffffffff1673ffffffffffffffffffffffffffffffffffffffff1663fcf0c24883836040518363ffffffff1660e01b81526004018083815260200180602001828103825283818151815260200191508051906020019060200280838360005b838110156110d15780820151818401526020810190506110b6565b505050509050019350505050600060405180830381600087803b1580156110f757600080fd5b505af115801561110b573d6000803e3d6000fd5b50505050505056fea165627a7a723058202d979030c2dd57f535e9a2054015d7197725a617c9086daa26175daf271494410029",
  "source": "pragma solidity ^0.5.8;\n\nimport \"../ownership/ZapCoordinatorInterface.sol\";\nimport \"../../platform/dispatch/DispatchInterface.sol\";\nimport \"../../platform/registry/RegistryInterface.sol\";\nimport \"./OnChainProvider.sol\";\n\n\ncontract SampleOnChainOracle is OnChainProvider, Ownable {\n\n    event RecievedQuery(string query, bytes32 endpoint, bytes32[] params);\n\n    ZapCoordinatorInterface coord;\n    RegistryInterface registry;\n    DispatchInterface dispatch;\n\n    //initialize provider\n    constructor(\n        address coordinator, \n        uint256 providerPubKey,\n        bytes32 providerTitle \n    ) public {\n        coord = ZapCoordinatorInterface(coordinator); \n\n        RegistryInterface registry = RegistryInterface(coord.getContract(\"REGISTRY\")); \n        registry.initiateProvider(providerPubKey, providerTitle);\n    }\n\n    //initialize an endpoint curve\n    function initializeCurve(\n        bytes32 specifier, \n        int256[] memory curve\n    ) onlyOwner public returns(bool) {\n        \n        RegistryInterface registry = RegistryInterface(coord.getContract(\"REGISTRY\")); \n        require(registry.isProviderInitiated(address(this)), \"Provider not intiialized\");\n\n        return registry.initiateProviderCurve(specifier, curve, address(0));\n    }\n\n    function setProviderParameter(bytes32 key, bytes memory value) onlyOwner public {\n\n        registry = RegistryInterface(coord.getContract('REGISTRY'));\n        registry.setProviderParameter(key, value);\n    }\n\n    function setEndpointParams(bytes32 endpoint, bytes32[] memory endpointParams) onlyOwner public {\n\n        registry = RegistryInterface(coord.getContract('REGISTRY'));\n        registry.setEndpointParams(endpoint, endpointParams);\n    }\n\n    // middleware function for handling queries\n    function receive(uint256 id, string calldata userQuery, bytes32 endpoint, bytes32[] calldata endpointParams, bool onchainSubscriber) external {\n\n        emit RecievedQuery(userQuery, endpoint, endpointParams);\n        \n        dispatch = DispatchInterface(coord.getContract('DISPATCH'));\n        if(onchainSubscriber && msg.sender == address(dispatch)) {\n\n          //Do something\n          dispatch.respond1(id, \"Hello World\");\n\n        } \n        // else: Do nothing (onchain only)\n    }\n\n}\n",
  "sourcePath": "/Users/moinuddin/Desktop/Zap Projects/main-market-template/contracts/lib/platform/SampleOnChainOracle.sol",
  "compiler": {
    "name": "solc",
    "version": "0.5.8+commit.23d335f2.Emscripten.clang"
  },
  "schemaVersion": "3.0.11",
  "updatedAt": "2019-06-24T03:26:20.569Z",
  "devdoc": {
    "methods": {
      "transferOwnership(address)": {
        "details": "Allows the current owner to transfer control of the contract to a newOwner.",
        "params": {
          "newOwner": "The address to transfer ownership to."
        }
      }
    }
  },
  "userdoc": {
    "methods": {}
  }
}