{
  "contractName": "Telegram",
  "abi": [
    {
      "constant": true,
      "inputs": [],
      "name": "spec1",
      "outputs": [
        {
          "name": "",
          "type": "bytes32"
        }
      ],
      "payable": false,
      "stateMutability": "view",
      "type": "function"
    },
    {
      "inputs": [
        {
          "name": "registryAddress",
          "type": "address"
        }
      ],
      "payable": false,
      "stateMutability": "nonpayable",
      "type": "constructor"
    },
    {
      "constant": false,
      "inputs": [
        {
          "name": "",
          "type": "uint256"
        },
        {
          "name": "",
          "type": "string"
        },
        {
          "name": "",
          "type": "bytes32"
        },
        {
          "name": "",
          "type": "bytes32[]"
        },
        {
          "name": "",
          "type": "bool"
        }
      ],
      "name": "receive",
      "outputs": [],
      "payable": false,
      "stateMutability": "nonpayable",
      "type": "function"
    }
  ],
  "bytecode": "0x60806040527f6c6f6f6d64617274000000000000000000000000000000000000000000000000600055670de0b6b3a76400006001556040518060600160405280600167ffffffffffffffff1681526020016702c68af0bb14000067ffffffffffffffff168152602001633b9aca0067ffffffffffffffff16815250600290600361008a9291906103c8565b5034801561009757600080fd5b506040516020806105d7833981018060405260208110156100b757600080fd5b810190808051906020019092919050505080600360006101000a81548173ffffffffffffffffffffffffffffffffffffffff021916908373ffffffffffffffffffffffffffffffffffffffff16021790555060007f54656c656772616d20526567697374726174696f6e00000000000000000000009050606060026040519080825280602002602001820160405280156101605781602001602082028038833980820191505090505b5090507f70310000000000000000000000000000000000000000000000000000000000008160008151811061019157fe5b6020026020010181815250507f7032000000000000000000000000000000000000000000000000000000000000816001815181106101cb57fe5b602002602001018181525050600360009054906101000a900473ffffffffffffffffffffffffffffffffffffffff1673ffffffffffffffffffffffffffffffffffffffff1663af87c833607b846040518363ffffffff1660e01b81526004018083815260200182815260200192505050602060405180830381600087803b15801561025557600080fd5b505af1158015610269573d6000803e3d6000fd5b505050506040513d602081101561027f57600080fd5b810190808051906020019092919050505050600360009054906101000a900473ffffffffffffffffffffffffffffffffffffffff1673ffffffffffffffffffffffffffffffffffffffff1663238b3aed600054600260006040518463ffffffff1660e01b815260040180848152602001806020018373ffffffffffffffffffffffffffffffffffffffff1673ffffffffffffffffffffffffffffffffffffffff168152602001828103825284818154815260200191508054801561036257602002820191906000526020600020905b81548152602001906001019080831161034e575b5050945050505050602060405180830381600087803b15801561038457600080fd5b505af1158015610398573d6000803e3d6000fd5b505050506040513d60208110156103ae57600080fd5b810190808051906020019092919050505050505050610446565b828054828255906000526020600020908101928215610410579160200282015b8281111561040f578251829067ffffffffffffffff169055916020019190600101906103e8565b5b50905061041d9190610421565b5090565b61044391905b8082111561043f576000816000905550600101610427565b5090565b90565b610182806104556000396000f3fe608060405234801561001057600080fd5b50600436106100365760003560e01c806348cf129a1461003b578063de26158314610059575b600080fd5b610043610147565b6040518082815260200191505060405180910390f35b610145600480360360a081101561006f57600080fd5b81019080803590602001909291908035906020019064010000000081111561009657600080fd5b8201836020820111156100a857600080fd5b803590602001918460018302840111640100000000831117156100ca57600080fd5b909192939192939080359060200190929190803590602001906401000000008111156100f557600080fd5b82018360208201111561010757600080fd5b8035906020019184602083028401116401000000008311171561012957600080fd5b909192939192939080351515906020019092919050505061014d565b005b60005481565b5050505050505056fea165627a7a72305820ac8a582471f2750fc1e04cde1a24d67c8aaf44da25203e416286cd9683deff0f0029",
  "source": "pragma solidity ^0.5.8;\n\nimport \"../../platform/registry/RegistryInterface.sol\";\nimport \"./OnChainProvider.sol\";\n\ncontract Telegram is OnChainProvider {\n    bytes32 public spec1 = \"loomdart\";\n    uint256 decimals = 10 ** 18;\n\n    // curve y=1/5 (1 zap = 5 dots)\n    int[] curve = [1, 1*10**18/5, 1000000000];\n\n\n    RegistryInterface registry;\n\n    // middleware function for handling queries\n    function receive(uint256 /* id */, string calldata /* userQuery */, bytes32 /* endpoint */, bytes32[] calldata /* endpointParams */, bool /* onchainSubscriber*/) external {\n    }\n\n    constructor(address registryAddress) public{\n        registry = RegistryInterface(registryAddress);\n\n        // initialize in registry\n        bytes32 title = \"Telegram Registration\";\n\n        bytes32[] memory params = new bytes32[](2);\n        params[0] = \"p1\";\n        params[1] = \"p2\";\n\n        registry.initiateProvider(123, title);\n        registry.initiateProviderCurve(spec1, curve, address(0));\n    }\n}\n",
  "sourcePath": "/Users/moinuddin/Desktop/Zap Projects/main-market-template/contracts/lib/platform/Telegram.sol",
  "compiler": {
    "name": "solc",
    "version": "0.5.8+commit.23d335f2.Emscripten.clang"
  },
  "schemaVersion": "3.0.11",
  "updatedAt": "2019-06-24T03:26:27.723Z",
  "devdoc": {
    "methods": {}
  },
  "userdoc": {
    "methods": {}
  }
}