{
  "contractName": "TestProvider",
  "abi": [
    {
      "constant": true,
      "inputs": [],
      "name": "spec2",
      "outputs": [
        {
          "name": "",
          "type": "bytes32"
        }
      ],
      "payable": false,
      "stateMutability": "view",
      "type": "function"
    },
    {
      "constant": true,
      "inputs": [],
      "name": "spec1",
      "outputs": [
        {
          "name": "",
          "type": "bytes32"
        }
      ],
      "payable": false,
      "stateMutability": "view",
      "type": "function"
    },
    {
      "constant": true,
      "inputs": [],
      "name": "spec3",
      "outputs": [
        {
          "name": "",
          "type": "bytes32"
        }
      ],
      "payable": false,
      "stateMutability": "view",
      "type": "function"
    },
    {
      "constant": true,
      "inputs": [],
      "name": "spec4",
      "outputs": [
        {
          "name": "",
          "type": "bytes32"
        }
      ],
      "payable": false,
      "stateMutability": "view",
      "type": "function"
    },
    {
      "inputs": [
        {
          "name": "registryAddress",
          "type": "address"
        },
        {
          "name": "isBad",
          "type": "bool"
        }
      ],
      "payable": false,
      "stateMutability": "nonpayable",
      "type": "constructor"
    },
    {
      "anonymous": false,
      "inputs": [
        {
          "indexed": false,
          "name": "query",
          "type": "string"
        },
        {
          "indexed": false,
          "name": "endpoint",
          "type": "bytes32"
        },
        {
          "indexed": false,
          "name": "params",
          "type": "bytes32[]"
        }
      ],
      "name": "RecievedQuery",
      "type": "event"
    },
    {
      "anonymous": false,
      "inputs": [
        {
          "indexed": false,
          "name": "res",
          "type": "uint256"
        },
        {
          "indexed": false,
          "name": "b",
          "type": "bytes32"
        },
        {
          "indexed": false,
          "name": "s",
          "type": "string"
        }
      ],
      "name": "TEST",
      "type": "event"
    },
    {
      "constant": false,
      "inputs": [
        {
          "name": "id",
          "type": "uint256"
        },
        {
          "name": "userQuery",
          "type": "string"
        },
        {
          "name": "endpoint",
          "type": "bytes32"
        },
        {
          "name": "endpointParams",
          "type": "bytes32[]"
        },
        {
          "name": "onchainSubscriber",
          "type": "bool"
        }
      ],
      "name": "receive",
      "outputs": [],
      "payable": false,
      "stateMutability": "nonpayable",
      "type": "function"
    }
  ],
  "bytecode": "0x60806040527f48656c6c6f3f00000000000000000000000000000000000000000000000000006000557f52657665727365000000000000000000000000000000000000000000000000006001557f41646400000000000000000000000000000000000000000000000000000000006002557f446f75626c6500000000000000000000000000000000000000000000000000006003556040518060a00160405280600363ffffffff168152602001600063ffffffff168152602001600063ffffffff168152602001600263ffffffff168152602001633b9aca0063ffffffff168152506005906005620000f392919062000802565b503480156200010157600080fd5b5060405160408062001438833981018060405260408110156200012357600080fd5b81019080805190602001909291908051906020019092919050505081600660006101000a81548173ffffffffffffffffffffffffffffffffffffffff021916908373ffffffffffffffffffffffffffffffffffffffff16021790555080600460006101000a81548160ff02191690831515021790555060007f54657374436f6e74726163740000000000000000000000000000000000000000905060606002604051908082528060200260200182016040528015620001f15781602001602082028038833980820191505090505b5090507f7031000000000000000000000000000000000000000000000000000000000000816000815181106200022357fe5b6020026020010181815250507f7032000000000000000000000000000000000000000000000000000000000000816001815181106200025e57fe5b602002602001018181525050600660009054906101000a900473ffffffffffffffffffffffffffffffffffffffff1673ffffffffffffffffffffffffffffffffffffffff1663af87c833613039846040518363ffffffff1660e01b81526004018083815260200182815260200192505050602060405180830381600087803b158015620002ea57600080fd5b505af1158015620002ff573d6000803e3d6000fd5b505050506040513d60208110156200031657600080fd5b810190808051906020019092919050505050600660009054906101000a900473ffffffffffffffffffffffffffffffffffffffff1673ffffffffffffffffffffffffffffffffffffffff1663238b3aed600054600560006040518463ffffffff1660e01b815260040180848152602001806020018373ffffffffffffffffffffffffffffffffffffffff1673ffffffffffffffffffffffffffffffffffffffff1681526020018281038252848181548152602001915080548015620003fb57602002820191906000526020600020905b815481526020019060010190808311620003e6575b5050945050505050602060405180830381600087803b1580156200041e57600080fd5b505af115801562000433573d6000803e3d6000fd5b505050506040513d60208110156200044a57600080fd5b810190808051906020019092919050505050600660009054906101000a900473ffffffffffffffffffffffffffffffffffffffff1673ffffffffffffffffffffffffffffffffffffffff1663238b3aed600154600560006040518463ffffffff1660e01b815260040180848152602001806020018373ffffffffffffffffffffffffffffffffffffffff1673ffffffffffffffffffffffffffffffffffffffff16815260200182810382528481815481526020019150805480156200052f57602002820191906000526020600020905b8154815260200190600101908083116200051a575b5050945050505050602060405180830381600087803b1580156200055257600080fd5b505af115801562000567573d6000803e3d6000fd5b505050506040513d60208110156200057e57600080fd5b810190808051906020019092919050505050600660009054906101000a900473ffffffffffffffffffffffffffffffffffffffff1673ffffffffffffffffffffffffffffffffffffffff1663238b3aed600254600560006040518463ffffffff1660e01b815260040180848152602001806020018373ffffffffffffffffffffffffffffffffffffffff1673ffffffffffffffffffffffffffffffffffffffff16815260200182810382528481815481526020019150805480156200066357602002820191906000526020600020905b8154815260200190600101908083116200064e575b5050945050505050602060405180830381600087803b1580156200068657600080fd5b505af11580156200069b573d6000803e3d6000fd5b505050506040513d6020811015620006b257600080fd5b810190808051906020019092919050505050600660009054906101000a900473ffffffffffffffffffffffffffffffffffffffff1673ffffffffffffffffffffffffffffffffffffffff1663238b3aed600354600560006040518463ffffffff1660e01b815260040180848152602001806020018373ffffffffffffffffffffffffffffffffffffffff1673ffffffffffffffffffffffffffffffffffffffff16815260200182810382528481815481526020019150805480156200079757602002820191906000526020600020905b81548152602001906001019080831162000782575b5050945050505050602060405180830381600087803b158015620007ba57600080fd5b505af1158015620007cf573d6000803e3d6000fd5b505050506040513d6020811015620007e657600080fd5b8101908080519060200190929190505050505050505062000884565b82805482825590600052602060002090810192821562000849579160200282015b8281111562000848578251829063ffffffff1690559160200191906001019062000823565b5b5090506200085891906200085c565b5090565b6200088191905b808211156200087d57600081600090555060010162000863565b5090565b90565b610ba480620008946000396000f3fe608060405234801561001057600080fd5b50600436106100575760003560e01c80632ee2742e1461005c57806348cf129a1461007a5780637ff94b6214610098578063c5d7a725146100b6578063de261583146100d4575b600080fd5b6100646101c2565b6040518082815260200191505060405180910390f35b6100826101c8565b6040518082815260200191505060405180910390f35b6100a06101ce565b6040518082815260200191505060405180910390f35b6100be6101d4565b6040518082815260200191505060405180910390f35b6101c0600480360360a08110156100ea57600080fd5b81019080803590602001909291908035906020019064010000000081111561011157600080fd5b82018360208201111561012357600080fd5b8035906020019184600183028401116401000000008311171561014557600080fd5b9091929391929390803590602001909291908035906020019064010000000081111561017057600080fd5b82018360208201111561018257600080fd5b803590602001918460208302840111640100000000831117156101a457600080fd5b90919293919293908035151590602001909291905050506101da565b005b60015481565b60005481565b60025481565b60035481565b7fb1d30540f0019c1e94a292da7a6f164844c5d2e3dee75e0b3a6a66e4e9a4e15386868686866040518080602001858152602001806020018381038352888882818152602001925080828437600081840152601f19601f8201169050808301925050508381038252858582818152602001925060200280828437600081840152601f19601f82011690508083019250505097505050505050505060405180910390a1600460009054906101000a900460ff161561029657610655565b60008490508115610653576000816040516020018082815260200191505060405160208183030381529060405280519060200120905060005460405160200180828152602001915050604051602081830303815290604052805190602001208114156103915761038c8989898080601f016020809104026020016040519081016040528093929190818152602001838380828437600081840152601f19601f82011690508083019250505050505050878780806020026020016040519081016040528093929190818152602001838360200280828437600081840152601f19601f8201169050808301925050505050505061065e565b610651565b6001546040516020018082815260200191505060405160208183030381529060405280519060200120811415610456576104518989898080601f016020809104026020016040519081016040528093929190818152602001838380828437600081840152601f19601f82011690508083019250505050505050878780806020026020016040519081016040528093929190818152602001838360200280828437600081840152601f19601f8201169050808301925050505050505061072b565b610650565b600254604051602001808281526020019150506040516020818303038152906040528051906020012081141561051b576105168989898080601f016020809104026020016040519081016040528093929190818152602001838380828437600081840152601f19601f82011690508083019250505050505050878780806020026020016040519081016040528093929190818152602001838360200280828437600081840152601f19601f8201169050808301925050505050505061083a565b61064f565b60035460405160200180828152602001915050604051602081830303815290604052805190602001208114156105e0576105db8989898080601f016020809104026020016040519081016040528093929190818152602001838380828437600081840152601f19601f82011690508083019250505050505050878780806020026020016040519081016040528093929190818152602001838360200280828437600081840152601f19601f820116905080830192505050505050506109ae565b61064e565b6040517f08c379a00000000000000000000000000000000000000000000000000000000081526004018080602001828103825260108152602001807f496e76616c696420656e64706f696e740000000000000000000000000000000081525060200191505060405180910390fd5b5b5b5b505b505b50505050505050565b3373ffffffffffffffffffffffffffffffffffffffff16636843581c846040518263ffffffff1660e01b815260040180828152602001806020018281038252600b8152602001807f48656c6c6f20576f726c6400000000000000000000000000000000000000000081525060200192505050602060405180830381600087803b1580156106ea57600080fd5b505af11580156106fe573d6000803e3d6000fd5b505050506040513d602081101561071457600080fd5b810190808051906020019092919050505050505050565b606061073683610ab4565b90503373ffffffffffffffffffffffffffffffffffffffff16636843581c85836040518363ffffffff1660e01b81526004018083815260200180602001828103825283818151815260200191508051906020019080838360005b838110156107ab578082015181840152602081019050610790565b50505050905090810190601f1680156107d85780820380516001836020036101000a031916815260200191505b509350505050602060405180830381600087803b1580156107f857600080fd5b505af115801561080c573d6000803e3d6000fd5b505050506040513d602081101561082257600080fd5b81019080805190602001909291905050505050505050565b600080905060008090505b825181101561087c57600083828151811061085c57fe5b602002602001015160001c90508083019250508080600101915050610845565b50606060016040519080825280602002602001820160405280156108af5781602001602082028038833980820191505090505b5090508160001b816000815181106108c357fe5b6020026020010181815250503373ffffffffffffffffffffffffffffffffffffffff16630cbe69a186836040518363ffffffff1660e01b81526004018083815260200180602001828103825283818151815260200191508051906020019060200280838360005b8381101561094557808201518184015260208101905061092a565b505050509050019350505050602060405180830381600087803b15801561096b57600080fd5b505af115801561097f573d6000803e3d6000fd5b505050506040513d602081101561099557600080fd5b8101908080519060200190929190505050505050505050565b3373ffffffffffffffffffffffffffffffffffffffff1663fedea288846040518263ffffffff1660e01b8152600401808281526020018060200180602001838103835260058152602001807f48656c6c6f000000000000000000000000000000000000000000000000000000815250602001838103825260058152602001807f576f726c640000000000000000000000000000000000000000000000000000008152506020019350505050602060405180830381600087803b158015610a7357600080fd5b505af1158015610a87573d6000803e3d6000fd5b505050506040513d6020811015610a9d57600080fd5b810190808051906020019092919050505050505050565b606080829050606081516040519080825280601f01601f191660200182016040528015610af05781602001600182028038833980820191505090505b509050606081905060008090505b8351811015610b6c57838181518110610b1357fe5b602001015160f81c60f81b826001838751030381518110610b3057fe5b60200101907effffffffffffffffffffffffffffffffffffffffffffffffffffffffffffff1916908160001a9053508080600101915050610afe565b5080935050505091905056fea165627a7a723058201cde0b86940d230e0259b9b32e4cbc23960b6d2c6cdee45e7c7b5a3bf7da68c80029",
  "source": "pragma solidity ^0.5.8;\n\nimport \"./Client.sol\";\nimport \"../../platform/dispatch/DispatchInterface.sol\";\nimport \"../../platform/bondage/BondageInterface.sol\";\nimport \"../../platform/registry/RegistryInterface.sol\";\nimport \"./OnChainProvider.sol\";\nimport \"../ERC20.sol\";\n\ncontract TestProvider is OnChainProvider {\n    event RecievedQuery(string query, bytes32 endpoint, bytes32[] params);\n\n    event TEST(uint res, bytes32 b, string s);\n\n    bytes32 public spec1 = \"Hello?\";\n    bytes32 public spec2 = \"Reverse\";\n    bytes32 public spec3 = \"Add\";\n    bytes32 public spec4 = \"Double\";\n\n    bool AM_A_BAD_ORACLE;\n\n    /* Endpoints to Functions:\n    spec1: Hello? -> returns \"Hello World\"\n    spec2: Reverse -> returns the query string in reverse\n    spec3: Add -> Adds up the values in endpointParams\n    */\n\n    // curve 2x^2\n    int[] curve = [3, 0, 0, 2, 1000000000];\n\n    RegistryInterface registry;\n\n    // middleware function for handling queries\n    function receive(uint256 id, string calldata userQuery, bytes32 endpoint, bytes32[] calldata endpointParams, bool onchainSubscriber) external {\n        emit RecievedQuery(userQuery, endpoint, endpointParams);\n        if(AM_A_BAD_ORACLE) return;\n        bytes32 _endpoint = endpoint;\n        if(onchainSubscriber) {\n            bytes32 hash = keccak256(abi.encodePacked(_endpoint));\n\n            if(hash == keccak256(abi.encodePacked(spec1))){\n                endpoint1(id, userQuery, endpointParams);\n            } else if (hash == keccak256(abi.encodePacked(spec2))){\n                endpoint2(id, userQuery, endpointParams);\n            } else if (hash == keccak256(abi.encodePacked(spec3))){\n                endpoint3(id, userQuery, endpointParams);\n            } else if (hash == keccak256(abi.encodePacked(spec4))){\n                endpoint4(id, userQuery, endpointParams);\n            } else {\n                revert(\"Invalid endpoint\");\n            }\n        } // else: Do nothing (onchain only)\n    }\n\n    constructor(address registryAddress, bool isBad) public{\n        registry = RegistryInterface(registryAddress);\n        AM_A_BAD_ORACLE = isBad;\n\n        // initialize in registry\n        bytes32 title = \"TestContract\";\n\n        bytes32[] memory params = new bytes32[](2);\n        params[0] = \"p1\";\n        params[1] = \"p2\";\n\n        registry.initiateProvider(12345, title);\n\n        registry.initiateProviderCurve(spec1, curve, address(0));\n        registry.initiateProviderCurve(spec2, curve, address(0));\n        registry.initiateProviderCurve(spec3, curve, address(0));\n        registry.initiateProviderCurve(spec4, curve, address(0));\n    }\n\n\n    // return Hello World to query-maker\n    function endpoint1(uint256 id, string memory /* userQuery */, bytes32[] memory /* endpointParams */) internal{\n        DispatchInterface(msg.sender).respond1(id, \"Hello World\");\n    }\n\n    // return the hash of the query\n    function endpoint2(uint256 id, string memory userQuery, bytes32[] memory /* endpointParams */) internal{\n        // endpointParams\n        string memory reversed = reverseString(userQuery);\n        DispatchInterface(msg.sender).respond1(id, reversed);\n    }\n\n     // returns the sum of all values in endpointParams\n    function endpoint3(uint256 id, string memory /* userQuery */, bytes32[] memory endpointParams) internal{\n        uint sum = 0;\n        for(uint i = 0; i<endpointParams.length; i++){\n            uint value = uint(endpointParams[i]);\n            sum += value;\n        }\n\n        bytes32[] memory res = new bytes32[](1);\n        res[0] = bytes32(sum);\n\n        DispatchInterface(msg.sender).respondBytes32Array(id, res);\n    }\n\n    // returns the sum of all values in endpointParams\n    function endpoint4(uint256 id, string memory /* userQuery */, bytes32[] memory /* endpointParams */) internal{\n        DispatchInterface(msg.sender).respond2(id, \"Hello\", \"World\");\n    }\n\n    function reverseString(string memory _base) internal pure returns (string memory){\n        bytes memory _baseBytes = bytes(_base);\n        string memory _tempValue = new string(_baseBytes.length);\n        bytes memory _newValue = bytes(_tempValue);\n\n        for(uint i=0;i<_baseBytes.length;i++){\n            _newValue[ _baseBytes.length - i - 1] = _baseBytes[i];\n        }\n\n        return string(_newValue);\n    }\n\n\n    function bytes32ToString (bytes32 data) internal pure returns (string memory) {\n        bytes memory bytesString = new bytes(32);\n        for (uint j=0; j<32; j++) {\n            byte char = byte(bytes32(uint(data) * 2 ** (8 * j)));\n            if (char != 0) {\n                bytesString[j] = char;\n            }\n        }\n        return string(bytesString);\n    }\n\n}\n\n/* Test Subscriber Client */\ncontract TestClient is Client1, Client2{\n\n    event MadeQuery(address oracle, string query, uint256 id);\n    event Result1(uint256 id, string response1);\n    event Result1(uint256 id, bytes32 response1);\n    event Result2(uint256 id, string response1, string response2);\n\n    ERC20 token;\n    DispatchInterface dispatch;\n    BondageInterface bondage;\n    RegistryInterface registry;\n\n    constructor(address tokenAddress, address dispatchAddress, address bondageAddress, address registryAddress) public {\n        token = ERC20(tokenAddress);\n        dispatch = DispatchInterface(dispatchAddress);\n        bondage = BondageInterface(bondageAddress);\n        registry = RegistryInterface(registryAddress);\n    }\n\n    /*\n    Implements overloaded callback functions for Client1\n    */\n    function callback(uint256 id, string calldata response1) external {\n        string memory _response1 = response1;\n        emit Result1(id, _response1);\n        // do something with result\n    }\n\n    function callback(uint256 id, bytes32[] calldata response) external {\n        emit Result1(id, response[0]);\n        // do something with result\n    }\n\n    // Client2 callback\n    function callback(uint256 id, string calldata response1, string calldata response2) external {\n        emit Result2(id, response1, response2);\n        // do something with result\n    }\n\n    function testQuery(address oracleAddr, string calldata query, bytes32 specifier, bytes32[] calldata params) external returns (uint256) {\n        uint256 id = dispatch.query(oracleAddr, query, specifier, params);\n        emit MadeQuery(oracleAddr, query, id);\n        return id;\n    }\n\n    function stringToBytes32(string memory source) internal pure returns (bytes32 result) {\n        bytes memory tempEmptyStringTest = bytes(source);\n\n        if (tempEmptyStringTest.length == 0) {\n            return 0x0;\n        }\n        assembly {\n            result := mload(add(source, 32))\n        }\n    }\n\n    // attempts to cancel an existing query\n    function cancelQuery(uint256 id) external {\n        dispatch.cancelQuery(id);\n    }\n\n}\n",
  "sourcePath": "/Users/moinuddin/Desktop/Zap Projects/main-market-template/contracts/lib/platform/TestContracts.sol",
  "compiler": {
    "name": "solc",
    "version": "0.5.8+commit.23d335f2.Emscripten.clang"
  },
  "schemaVersion": "3.0.11",
  "updatedAt": "2019-06-24T03:26:20.579Z",
  "devdoc": {
    "methods": {}
  },
  "userdoc": {
    "methods": {}
  }
}