{
  "contractName": "TokenAdapter",
  "abi": [
    {
      "constant": false,
      "inputs": [
        {
          "name": "name",
          "type": "string"
        },
        {
          "name": "symbol",
          "type": "string"
        }
      ],
      "name": "newToken",
      "outputs": [
        {
          "name": "tokenAddress",
          "type": "address"
        }
      ],
      "payable": false,
      "stateMutability": "nonpayable",
      "type": "function"
    },
    {
      "constant": true,
      "inputs": [
        {
          "name": "",
          "type": "bytes32"
        }
      ],
      "name": "curves",
      "outputs": [
        {
          "name": "",
          "type": "address"
        }
      ],
      "payable": false,
      "stateMutability": "view",
      "type": "function"
    },
    {
      "constant": true,
      "inputs": [],
      "name": "owner",
      "outputs": [
        {
          "name": "",
          "type": "address"
        }
      ],
      "payable": false,
      "stateMutability": "view",
      "type": "function"
    },
    {
      "constant": true,
      "inputs": [
        {
          "name": "x",
          "type": "bytes32"
        }
      ],
      "name": "bytes32ToString",
      "outputs": [
        {
          "name": "",
          "type": "string"
        }
      ],
      "payable": false,
      "stateMutability": "pure",
      "type": "function"
    },
    {
      "constant": true,
      "inputs": [],
      "name": "coord",
      "outputs": [
        {
          "name": "",
          "type": "address"
        }
      ],
      "payable": false,
      "stateMutability": "view",
      "type": "function"
    },
    {
      "constant": false,
      "inputs": [
        {
          "name": "providerPubKey",
          "type": "uint256"
        },
        {
          "name": "providerTitle",
          "type": "bytes32"
        },
        {
          "name": "specifier",
          "type": "bytes32"
        },
        {
          "name": "symbol",
          "type": "bytes32"
        },
        {
          "name": "curve",
          "type": "int256[]"
        }
      ],
      "name": "initializeCurve",
      "outputs": [
        {
          "name": "",
          "type": "address"
        }
      ],
      "payable": false,
      "stateMutability": "nonpayable",
      "type": "function"
    },
    {
      "constant": true,
      "inputs": [],
      "name": "tokenFactory",
      "outputs": [
        {
          "name": "",
          "type": "address"
        }
      ],
      "payable": false,
      "stateMutability": "view",
      "type": "function"
    },
    {
      "constant": false,
      "inputs": [
        {
          "name": "newOwner",
          "type": "address"
        }
      ],
      "name": "transferOwnership",
      "outputs": [],
      "payable": false,
      "stateMutability": "nonpayable",
      "type": "function"
    },
    {
      "constant": true,
      "inputs": [],
      "name": "reserveToken",
      "outputs": [
        {
          "name": "",
          "type": "address"
        }
      ],
      "payable": false,
      "stateMutability": "view",
      "type": "function"
    },
    {
      "inputs": [
        {
          "name": "coordinator",
          "type": "address"
        },
        {
          "name": "tokenFactory",
          "type": "address"
        },
        {
          "name": "_acceptedToken",
          "type": "address"
        }
      ],
      "payable": false,
      "stateMutability": "nonpayable",
      "type": "constructor"
    },
    {
      "anonymous": false,
      "inputs": [
        {
          "indexed": false,
          "name": "tokenAddress",
          "type": "address"
        }
      ],
      "name": "DotTokenCreated",
      "type": "event"
    },
    {
      "anonymous": false,
      "inputs": [
        {
          "indexed": false,
          "name": "_address1",
          "type": "address"
        },
        {
          "indexed": false,
          "name": "address2",
          "type": "address"
        },
        {
          "indexed": false,
          "name": "_quant1",
          "type": "uint256"
        },
        {
          "indexed": false,
          "name": "_quant2",
          "type": "uint256"
        }
      ],
      "name": "Testing",
      "type": "event"
    },
    {
      "anonymous": false,
      "inputs": [
        {
          "indexed": false,
          "name": "q",
          "type": "uint256"
        }
      ],
      "name": "TestInt",
      "type": "event"
    },
    {
      "anonymous": false,
      "inputs": [
        {
          "indexed": true,
          "name": "previousOwner",
          "type": "address"
        },
        {
          "indexed": true,
          "name": "newOwner",
          "type": "address"
        }
      ],
      "name": "OwnershipTransferred",
      "type": "event"
    },
    {
      "constant": false,
      "inputs": [
        {
          "name": "rate",
          "type": "uint256"
        }
      ],
      "name": "setAdapterRate",
      "outputs": [],
      "payable": false,
      "stateMutability": "nonpayable",
      "type": "function"
    },
    {
      "constant": false,
      "inputs": [
        {
          "name": "wallet",
          "type": "address"
        },
        {
          "name": "specifier",
          "type": "bytes32"
        },
        {
          "name": "quantity",
          "type": "uint256"
        }
      ],
      "name": "ownerBond",
      "outputs": [],
      "payable": false,
      "stateMutability": "nonpayable",
      "type": "function"
    },
    {
      "constant": false,
      "inputs": [
        {
          "name": "wallet",
          "type": "address"
        },
        {
          "name": "specifier",
          "type": "bytes32"
        },
        {
          "name": "quantity",
          "type": "uint256"
        }
      ],
      "name": "ownerUnbond",
      "outputs": [],
      "payable": false,
      "stateMutability": "nonpayable",
      "type": "function"
    },
    {
      "constant": false,
      "inputs": [
        {
          "name": "specifier",
          "type": "bytes32"
        },
        {
          "name": "quantity",
          "type": "uint256"
        }
      ],
      "name": "getAdapterPrice",
      "outputs": [
        {
          "name": "",
          "type": "uint256"
        }
      ],
      "payable": false,
      "stateMutability": "nonpayable",
      "type": "function"
    }
  ],
  "bytecode": "0x60806040523480156200001157600080fd5b5060405160608062002709833981018060405260608110156200003357600080fd5b810190808051906020019092919080519060200190929190805190602001909291905050508282336000806101000a81548173ffffffffffffffffffffffffffffffffffffffff021916908373ffffffffffffffffffffffffffffffffffffffff16021790555081600260006101000a81548173ffffffffffffffffffffffffffffffffffffffff021916908373ffffffffffffffffffffffffffffffffffffffff160217905550600260009054906101000a900473ffffffffffffffffffffffffffffffffffffffff1673ffffffffffffffffffffffffffffffffffffffff1663358177736040518163ffffffff1660e01b81526004018080602001828103825260098152602001807f5a41505f544f4b454e000000000000000000000000000000000000000000000081525060200191505060206040518083038186803b1580156200018057600080fd5b505afa15801562000195573d6000803e3d6000fd5b505050506040513d6020811015620001ac57600080fd5b8101908080519060200190929190505050600160006101000a81548173ffffffffffffffffffffffffffffffffffffffff021916908373ffffffffffffffffffffffffffffffffffffffff160217905550600160009054906101000a900473ffffffffffffffffffffffffffffffffffffffff1673ffffffffffffffffffffffffffffffffffffffff1663095ea7b3600260009054906101000a900473ffffffffffffffffffffffffffffffffffffffff1673ffffffffffffffffffffffffffffffffffffffff1663358177736040518163ffffffff1660e01b81526004018080602001828103825260078152602001807f424f4e444147450000000000000000000000000000000000000000000000000081525060200191505060206040518083038186803b158015620002e057600080fd5b505afa158015620002f5573d6000803e3d6000fd5b505050506040513d60208110156200030c57600080fd5b81019080805190602001909291905050506000196040518363ffffffff1660e01b8152600401808373ffffffffffffffffffffffffffffffffffffffff1673ffffffffffffffffffffffffffffffffffffffff16815260200182815260200192505050602060405180830381600087803b1580156200038a57600080fd5b505af11580156200039f573d6000803e3d6000fd5b505050506040513d6020811015620003b657600080fd5b81019080805190602001909291905050505080600360006101000a81548173ffffffffffffffffffffffffffffffffffffffff021916908373ffffffffffffffffffffffffffffffffffffffff160217905550505080600860006101000a81548173ffffffffffffffffffffffffffffffffffffffff021916908373ffffffffffffffffffffffffffffffffffffffff1602179055505050506122aa806200045f6000396000f3fe608060405234801561001057600080fd5b50600436106100cf5760003560e01c80639495c25a1161008c578063e77772fe11610066578063e77772fe1461060d578063f1d6fd6014610657578063f2fde38b146106a3578063f4325d67146106e7576100cf565b80639495c25a14610475578063a9e7046d146104bf578063afcd23f0146104ed576100cf565b8063346ee741146100d45780634629ffea1461012c57806366903e80146102be5780636fbe28d11461032c5780638da5cb5b146103845780639201de55146103ce575b600080fd5b61012a600480360360608110156100ea57600080fd5b81019080803573ffffffffffffffffffffffffffffffffffffffff1690602001909291908035906020019092919080359060200190929190505050610731565b005b61027c6004803603604081101561014257600080fd5b810190808035906020019064010000000081111561015f57600080fd5b82018360208201111561017157600080fd5b8035906020019184600183028401116401000000008311171561019357600080fd5b91908080601f016020809104026020016040519081016040528093929190818152602001838380828437600081840152601f19601f820116905080830192505050505050509192919290803590602001906401000000008111156101f657600080fd5b82018360208201111561020857600080fd5b8035906020019184600183028401116401000000008311171561022a57600080fd5b91908080601f016020809104026020016040519081016040528093929190818152602001838380828437600081840152601f19601f82011690508083019250505050505050919291929050505061079a565b604051808273ffffffffffffffffffffffffffffffffffffffff1673ffffffffffffffffffffffffffffffffffffffff16815260200191505060405180910390f35b6102ea600480360360208110156102d457600080fd5b810190808035906020019092919050505061092e565b604051808273ffffffffffffffffffffffffffffffffffffffff1673ffffffffffffffffffffffffffffffffffffffff16815260200191505060405180910390f35b6103826004803603606081101561034257600080fd5b81019080803573ffffffffffffffffffffffffffffffffffffffff1690602001909291908035906020019092919080359060200190929190505050610961565b005b61038c6109ca565b604051808273ffffffffffffffffffffffffffffffffffffffff1673ffffffffffffffffffffffffffffffffffffffff16815260200191505060405180910390f35b6103fa600480360360208110156103e457600080fd5b81019080803590602001909291905050506109ef565b6040518080602001828103825283818151815260200191508051906020019080838360005b8381101561043a57808201518184015260208101905061041f565b50505050905090810190601f1680156104675780820380516001836020036101000a031916815260200191505b509250505060405180910390f35b61047d610a54565b604051808273ffffffffffffffffffffffffffffffffffffffff1673ffffffffffffffffffffffffffffffffffffffff16815260200191505060405180910390f35b6104eb600480360360208110156104d557600080fd5b8101908080359060200190929190505050610a7a565b005b6105cb600480360360a081101561050357600080fd5b81019080803590602001909291908035906020019092919080359060200190929190803590602001909291908035906020019064010000000081111561054857600080fd5b82018360208201111561055a57600080fd5b8035906020019184602083028401116401000000008311171561057c57600080fd5b919080806020026020016040519081016040528093929190818152602001838360200280828437600081840152601f19601f820116905080830192505050505050509192919290505050610add565b604051808273ffffffffffffffffffffffffffffffffffffffff1673ffffffffffffffffffffffffffffffffffffffff16815260200191505060405180910390f35b610615611037565b604051808273ffffffffffffffffffffffffffffffffffffffff1673ffffffffffffffffffffffffffffffffffffffff16815260200191505060405180910390f35b61068d6004803603604081101561066d57600080fd5b81019080803590602001909291908035906020019092919050505061105d565b6040518082815260200191505060405180910390f35b6106e5600480360360208110156106b957600080fd5b81019080803573ffffffffffffffffffffffffffffffffffffffff16906020019092919050505061127a565b005b6106ef6113cb565b604051808273ffffffffffffffffffffffffffffffffffffffff1673ffffffffffffffffffffffffffffffffffffffff16815260200191505060405180910390f35b6000809054906101000a900473ffffffffffffffffffffffffffffffffffffffff1673ffffffffffffffffffffffffffffffffffffffff163373ffffffffffffffffffffffffffffffffffffffff161461078a57600080fd5b6107958383836113f1565b505050565b600080600360009054906101000a900473ffffffffffffffffffffffffffffffffffffffff1673ffffffffffffffffffffffffffffffffffffffff1663198e2b8a85856040518363ffffffff1660e01b8152600401808060200180602001838103835285818151815260200191508051906020019080838360005b83811015610830578082015181840152602081019050610815565b50505050905090810190601f16801561085d5780820380516001836020036101000a031916815260200191505b50838103825284818151815260200191508051906020019080838360005b8381101561089657808201518184015260208101905061087b565b50505050905090810190601f1680156108c35780820380516001836020036101000a031916815260200191505b50945050505050602060405180830381600087803b1580156108e457600080fd5b505af11580156108f8573d6000803e3d6000fd5b505050506040513d602081101561090e57600080fd5b810190808051906020019092919050505090508091508191505092915050565b60046020528060005260406000206000915054906101000a900473ffffffffffffffffffffffffffffffffffffffff1681565b6000809054906101000a900473ffffffffffffffffffffffffffffffffffffffff1673ffffffffffffffffffffffffffffffffffffffff163373ffffffffffffffffffffffffffffffffffffffff16146109ba57600080fd5b6109c5838383611afc565b505050565b6000809054906101000a900473ffffffffffffffffffffffffffffffffffffffff1681565b60608060206040519080825280601f01601f191660200182016040528015610a265781602001600182028038833980820191505090505b5090508260405160200180828152602001915050604051602081830303815290604052905080915050919050565b600260009054906101000a900473ffffffffffffffffffffffffffffffffffffffff1681565b6000809054906101000a900473ffffffffffffffffffffffffffffffffffffffff1673ffffffffffffffffffffffffffffffffffffffff163373ffffffffffffffffffffffffffffffffffffffff1614610ad357600080fd5b8060098190555050565b60008073ffffffffffffffffffffffffffffffffffffffff166004600086815260200190815260200160002060009054906101000a900473ffffffffffffffffffffffffffffffffffffffff1673ffffffffffffffffffffffffffffffffffffffff1614610bb3576040517f08c379a000000000000000000000000000000000000000000000000000000000815260040180806020018281038252601e8152602001807f43757276652073706563696669657220616c726561647920657869737473000081525060200191505060405180910390fd5b6000600260009054906101000a900473ffffffffffffffffffffffffffffffffffffffff1673ffffffffffffffffffffffffffffffffffffffff1663358177736040518163ffffffff1660e01b81526004018080602001828103825260088152602001807f524547495354525900000000000000000000000000000000000000000000000081525060200191505060206040518083038186803b158015610c5957600080fd5b505afa158015610c6d573d6000803e3d6000fd5b505050506040513d6020811015610c8357600080fd5b810190808051906020019092919050505090508073ffffffffffffffffffffffffffffffffffffffff1663186b79c9306040518263ffffffff1660e01b8152600401808273ffffffffffffffffffffffffffffffffffffffff1673ffffffffffffffffffffffffffffffffffffffff16815260200191505060206040518083038186803b158015610d1357600080fd5b505afa158015610d27573d6000803e3d6000fd5b505050506040513d6020811015610d3d57600080fd5b8101908080519060200190929190505050610dea578073ffffffffffffffffffffffffffffffffffffffff1663af87c83388886040518363ffffffff1660e01b81526004018083815260200182815260200192505050602060405180830381600087803b158015610dad57600080fd5b505af1158015610dc1573d6000803e3d6000fd5b505050506040513d6020811015610dd757600080fd5b8101908080519060200190929190505050505b8073ffffffffffffffffffffffffffffffffffffffff1663238b3aed8685306040518463ffffffff1660e01b815260040180848152602001806020018373ffffffffffffffffffffffffffffffffffffffff1673ffffffffffffffffffffffffffffffffffffffff168152602001828103825284818151815260200191508051906020019060200280838360005b83811015610e93578082015181840152602081019050610e78565b50505050905001945050505050602060405180830381600087803b158015610eba57600080fd5b505af1158015610ece573d6000803e3d6000fd5b505050506040513d6020811015610ee457600080fd5b810190808051906020019092919050505050610f10610f02866109ef565b610f0b866109ef565b61079a565b6004600087815260200190815260200160002060006101000a81548173ffffffffffffffffffffffffffffffffffffffff021916908373ffffffffffffffffffffffffffffffffffffffff1602179055507f6c98c7e1fb155d4c2c1f008682fd94fb74d1c9667207aaaa9ab65cee2b38ea7a6004600087815260200190815260200160002060009054906101000a900473ffffffffffffffffffffffffffffffffffffffff16604051808273ffffffffffffffffffffffffffffffffffffffff1673ffffffffffffffffffffffffffffffffffffffff16815260200191505060405180910390a16004600086815260200190815260200160002060009054906101000a900473ffffffffffffffffffffffffffffffffffffffff1691505095945050505050565b600360009054906101000a900473ffffffffffffffffffffffffffffffffffffffff1681565b6000600260009054906101000a900473ffffffffffffffffffffffffffffffffffffffff1673ffffffffffffffffffffffffffffffffffffffff1663358177736040518163ffffffff1660e01b81526004018080602001828103825260078152602001807f424f4e444147450000000000000000000000000000000000000000000000000081525060200191505060206040518083038186803b15801561110357600080fd5b505afa158015611117573d6000803e3d6000fd5b505050506040513d602081101561112d57600080fd5b8101908080519060200190929190505050600760006101000a81548173ffffffffffffffffffffffffffffffffffffffff021916908373ffffffffffffffffffffffffffffffffffffffff1602179055506000600760009054906101000a900473ffffffffffffffffffffffffffffffffffffffff1673ffffffffffffffffffffffffffffffffffffffff1663b6105f153086866040518463ffffffff1660e01b8152600401808473ffffffffffffffffffffffffffffffffffffffff1673ffffffffffffffffffffffffffffffffffffffff168152602001838152602001828152602001935050505060206040518083038186803b15801561122f57600080fd5b505afa158015611243573d6000803e3d6000fd5b505050506040513d602081101561125957600080fd5b81019080805190602001909291905050509050600954810291505092915050565b6000809054906101000a900473ffffffffffffffffffffffffffffffffffffffff1673ffffffffffffffffffffffffffffffffffffffff163373ffffffffffffffffffffffffffffffffffffffff16146112d357600080fd5b600073ffffffffffffffffffffffffffffffffffffffff168173ffffffffffffffffffffffffffffffffffffffff16141561130d57600080fd5b8073ffffffffffffffffffffffffffffffffffffffff166000809054906101000a900473ffffffffffffffffffffffffffffffffffffffff1673ffffffffffffffffffffffffffffffffffffffff167f8be0079c531659141344cd1fd0a4f28419497f9722a3daafe3b4186f6b6457e060405160405180910390a3806000806101000a81548173ffffffffffffffffffffffffffffffffffffffff021916908373ffffffffffffffffffffffffffffffffffffffff16021790555050565b600160009054906101000a900473ffffffffffffffffffffffffffffffffffffffff1681565b600860009054906101000a900473ffffffffffffffffffffffffffffffffffffffff1673ffffffffffffffffffffffffffffffffffffffff166323b872dd843061143b868661105d565b6040518463ffffffff1660e01b8152600401808473ffffffffffffffffffffffffffffffffffffffff1673ffffffffffffffffffffffffffffffffffffffff1681526020018373ffffffffffffffffffffffffffffffffffffffff1673ffffffffffffffffffffffffffffffffffffffff1681526020018281526020019350505050602060405180830381600087803b1580156114d757600080fd5b505af11580156114eb573d6000803e3d6000fd5b505050506040513d602081101561150157600080fd5b8101908080519060200190929190505050611567576040517f08c379a000000000000000000000000000000000000000000000000000000000815260040180806020018281038252603a815260200180612245603a913960400191505060405180910390fd5b6000600760009054906101000a900473ffffffffffffffffffffffffffffffffffffffff1673ffffffffffffffffffffffffffffffffffffffff16631d7b5e2230856040518363ffffffff1660e01b8152600401808373ffffffffffffffffffffffffffffffffffffffff1673ffffffffffffffffffffffffffffffffffffffff1681526020018281526020019250505060206040518083038186803b15801561161057600080fd5b505afa158015611624573d6000803e3d6000fd5b505050506040513d602081101561163a57600080fd5b810190808051906020019092919050505090506000600260009054906101000a900473ffffffffffffffffffffffffffffffffffffffff1673ffffffffffffffffffffffffffffffffffffffff1663358177736040518163ffffffff1660e01b815260040180806020018281038252600c8152602001807f43555252454e545f434f5354000000000000000000000000000000000000000081525060200191505060206040518083038186803b1580156116f357600080fd5b505afa158015611707573d6000803e3d6000fd5b505050506040513d602081101561171d57600080fd5b8101908080519060200190929190505050905060008173ffffffffffffffffffffffffffffffffffffffff1663197d66d5308760018701600189036040518563ffffffff1660e01b8152600401808573ffffffffffffffffffffffffffffffffffffffff1673ffffffffffffffffffffffffffffffffffffffff16815260200184815260200183815260200182815260200194505050505060206040518083038186803b1580156117cd57600080fd5b505afa1580156117e1573d6000803e3d6000fd5b505050506040513d60208110156117f757600080fd5b81019080805190602001909291905050509050600160009054906101000a900473ffffffffffffffffffffffffffffffffffffffff1673ffffffffffffffffffffffffffffffffffffffff1663095ea7b3600760009054906101000a900473ffffffffffffffffffffffffffffffffffffffff16836040518363ffffffff1660e01b8152600401808373ffffffffffffffffffffffffffffffffffffffff1673ffffffffffffffffffffffffffffffffffffffff16815260200182815260200192505050602060405180830381600087803b1580156118d557600080fd5b505af11580156118e9573d6000803e3d6000fd5b505050506040513d60208110156118ff57600080fd5b810190808051906020019092919050505050600760009054906101000a900473ffffffffffffffffffffffffffffffffffffffff1673ffffffffffffffffffffffffffffffffffffffff166399275cc73087876040518463ffffffff1660e01b8152600401808473ffffffffffffffffffffffffffffffffffffffff1673ffffffffffffffffffffffffffffffffffffffff1681526020018381526020018281526020019350505050602060405180830381600087803b1580156119c257600080fd5b505af11580156119d6573d6000803e3d6000fd5b505050506040513d60208110156119ec57600080fd5b8101908080519060200190929190505050506004600086815260200190815260200160002060009054906101000a900473ffffffffffffffffffffffffffffffffffffffff1673ffffffffffffffffffffffffffffffffffffffff166340c10f1987866040518363ffffffff1660e01b8152600401808373ffffffffffffffffffffffffffffffffffffffff1673ffffffffffffffffffffffffffffffffffffffff16815260200182815260200192505050602060405180830381600087803b158015611ab857600080fd5b505af1158015611acc573d6000803e3d6000fd5b505050506040513d6020811015611ae257600080fd5b810190808051906020019092919050505050505050505050565b600260009054906101000a900473ffffffffffffffffffffffffffffffffffffffff1673ffffffffffffffffffffffffffffffffffffffff1663358177736040518163ffffffff1660e01b81526004018080602001828103825260078152602001807f424f4e444147450000000000000000000000000000000000000000000000000081525060200191505060206040518083038186803b158015611ba057600080fd5b505afa158015611bb4573d6000803e3d6000fd5b505050506040513d6020811015611bca57600080fd5b8101908080519060200190929190505050600760006101000a81548173ffffffffffffffffffffffffffffffffffffffff021916908373ffffffffffffffffffffffffffffffffffffffff1602179055506000600760009054906101000a900473ffffffffffffffffffffffffffffffffffffffff1673ffffffffffffffffffffffffffffffffffffffff16631d7b5e2230856040518363ffffffff1660e01b8152600401808373ffffffffffffffffffffffffffffffffffffffff1673ffffffffffffffffffffffffffffffffffffffff1681526020018281526020019250505060206040518083038186803b158015611cc457600080fd5b505afa158015611cd8573d6000803e3d6000fd5b505050506040513d6020811015611cee57600080fd5b81019080805190602001909291905050509050600260009054906101000a900473ffffffffffffffffffffffffffffffffffffffff1673ffffffffffffffffffffffffffffffffffffffff1663358177736040518163ffffffff1660e01b815260040180806020018281038252600c8152602001807f43555252454e545f434f5354000000000000000000000000000000000000000081525060200191505060206040518083038186803b158015611da557600080fd5b505afa158015611db9573d6000803e3d6000fd5b505050506040513d6020811015611dcf57600080fd5b8101908080519060200190929190505050600560006101000a81548173ffffffffffffffffffffffffffffffffffffffff021916908373ffffffffffffffffffffffffffffffffffffffff1602179055506000600560009054906101000a900473ffffffffffffffffffffffffffffffffffffffff1673ffffffffffffffffffffffffffffffffffffffff1663197d66d53086866001870103600188036040518563ffffffff1660e01b8152600401808573ffffffffffffffffffffffffffffffffffffffff1673ffffffffffffffffffffffffffffffffffffffff16815260200184815260200183815260200182815260200194505050505060206040518083038186803b158015611ee157600080fd5b505afa158015611ef5573d6000803e3d6000fd5b505050506040513d6020811015611f0b57600080fd5b81019080805190602001909291905050509050600760009054906101000a900473ffffffffffffffffffffffffffffffffffffffff1673ffffffffffffffffffffffffffffffffffffffff1663a06fe7753086866040518463ffffffff1660e01b8152600401808473ffffffffffffffffffffffffffffffffffffffff1673ffffffffffffffffffffffffffffffffffffffff1681526020018381526020018281526020019350505050602060405180830381600087803b158015611fcf57600080fd5b505af1158015611fe3573d6000803e3d6000fd5b505050506040513d6020811015611ff957600080fd5b81019080805190602001909291905050505060006004600086815260200190815260200160002060009054906101000a900473ffffffffffffffffffffffffffffffffffffffff1690508073ffffffffffffffffffffffffffffffffffffffff166379cc679087866040518363ffffffff1660e01b8152600401808373ffffffffffffffffffffffffffffffffffffffff1673ffffffffffffffffffffffffffffffffffffffff16815260200182815260200192505050600060405180830381600087803b1580156120ca57600080fd5b505af11580156120de573d6000803e3d6000fd5b50505050600860009054906101000a900473ffffffffffffffffffffffffffffffffffffffff1673ffffffffffffffffffffffffffffffffffffffff1663a9059cbb8760095485026040518363ffffffff1660e01b8152600401808373ffffffffffffffffffffffffffffffffffffffff1673ffffffffffffffffffffffffffffffffffffffff16815260200182815260200192505050602060405180830381600087803b15801561218f57600080fd5b505af11580156121a3573d6000803e3d6000fd5b505050506040513d60208110156121b957600080fd5b810190808051906020019092919050505061223c576040517f08c379a00000000000000000000000000000000000000000000000000000000081526004018080602001828103825260168152602001807f4572726f723a205472616e73666572206661696c65640000000000000000000081525060200191505060405180910390fd5b50505050505056fe696e73756666696369656e7420616363657074656420746f6b656e207175616e7469747920617070726f76656420666f72207472616e73666572a165627a7a72305820c2842fc56db7441c792205e5f7d5802dae5292d747e6284da3171e3f1dec424b0029",
  "source": "pragma solidity ^0.5.8;\n\nimport \"../../platform/bondage/currentCost/CurrentCostInterface.sol\";\nimport \"./ERCDotFactory.sol\";\n\ncontract TokenAdapter is ERCDotFactory {\n\n    CurrentCostInterface currentCost;\n    RegistryInterface registry;\n    BondageInterface bondage;\n    FactoryTokenInterface acceptedToken;\n\n    uint adapterRate;\n\n    constructor(address coordinator, address tokenFactory, FactoryTokenInterface _acceptedToken)\n    ERCDotFactory(coordinator, tokenFactory) public {\n        acceptedToken = _acceptedToken;\n    }\n\n    function setAdapterRate(uint rate) public onlyOwner {\n        //children must set this\n        adapterRate = rate;\n    }\n\n    function ownerBond(address wallet, bytes32 specifier, uint quantity) public onlyOwner {\n        bond(wallet, specifier, quantity);\n    }\n\n    function ownerUnbond(address wallet, bytes32 specifier, uint quantity) public onlyOwner {\n        unbond(wallet, specifier, quantity);\n    }\n\n    //Override\n    function bond(address wallet, bytes32 specifier, uint quantity) internal {\n        require(\n            acceptedToken.transferFrom(wallet, address(this), getAdapterPrice(specifier, quantity)),\n            \"insufficient accepted token quantity approved for transfer\"\n        );\n\n        uint256 issued = bondage.getDotsIssued(address(this), specifier);\n\n        CurrentCostInterface cost = CurrentCostInterface(coord.getContract(\"CURRENT_COST\"));\n        uint256 numReserve = cost._costOfNDots(address(this), specifier, issued + 1, quantity - 1);\n\n        reserveToken.approve(address(bondage), numReserve);\n        bondage.bond(address(this), specifier, quantity);\n\n        FactoryTokenInterface(curves[specifier]).mint(wallet, quantity);\n    }\n\n    // Override\n    function unbond(address wallet, bytes32 specifier, uint quantity) internal {\n        bondage = BondageInterface(coord.getContract(\"BONDAGE\"));\n        uint issued = bondage.getDotsIssued(address(this), specifier);\n\n        currentCost = CurrentCostInterface(coord.getContract(\"CURRENT_COST\"));\n        uint reserveCost = currentCost._costOfNDots(address(this), specifier, issued + 1 - quantity, quantity - 1);\n\n\n        // unbond dots\n        bondage.unbond(address(this), specifier, quantity);\n        // burn dot backed token\n        FactoryTokenInterface curveToken = FactoryTokenInterface(curves[specifier]);\n        curveToken.burnFrom(wallet, quantity);\n\n        require(acceptedToken.transfer(wallet, reserveCost * adapterRate), \"Error: Transfer failed\");\n    }\n\n    function getAdapterPrice(bytes32 specifier, uint quantity) public returns(uint){\n        bondage = BondageInterface(coord.getContract(\"BONDAGE\"));\n        uint reserveAmount = bondage.calcZapForDots(address(this), specifier, quantity);\n        return reserveAmount * adapterRate;\n    }\n}\n",
  "sourcePath": "/Users/moinuddin/Desktop/Zap Projects/main-market-template/contracts/lib/platform/TokenAdapter.sol",
  "compiler": {
    "name": "solc",
    "version": "0.5.8+commit.23d335f2.Emscripten.clang"
  },
  "schemaVersion": "3.0.11",
  "updatedAt": "2019-06-24T03:26:20.586Z",
  "devdoc": {
    "methods": {
      "transferOwnership(address)": {
        "details": "Allows the current owner to transfer control of the contract to a newOwner.",
        "params": {
          "newOwner": "The address to transfer ownership to."
        }
      }
    }
  },
  "userdoc": {
    "methods": {}
  }
}